:100000000C94E4070C94D20A0C940C080C940C0881
:100010000C940C080C94F70A0C940C080C940C0823
:100020000C940C080C940C080C940C080C940C0800
:100030000C940C080C940C080C940C080C940C08F0
:100040000C940C080C940C080C940C080C940C08E0
:100050000C940C080C940C080C940C080C940C08D0
:100060000C940C080C940C084E6F6E2D636F6E741C
:100070006967756F75732066696C650046696C65A4
:10008000206F70656E206661696C65640045525230
:100090004F5200464444454D550047656F6D6574A9
:1000A0007279203E2066696C6500496E636F6D70E1
:1000B00061742067656F6D6574727900556E726545
:1000C000636F676E697A656420696D616765004E6C
:1000D0006F7420666F756E640052656164205344CE
:1000E000206661696C6564004552524F5200577238
:1000F000697465205344206661696C6564005265CB
:100100006164205344206661696C65640045525205
:100110004F52004E6F206469736B000000000008AE
:1001200000001C00001C00003600003600006300C8
:10013000006300004B0080C90080DD00C09C01C04E
:100140009C01401C01600803600803300806300869
:100150000618000C18000C18180C0C18180C0018B5
:10016000FEFF3FFEFF3F000000000000FFFF1F01F9
:10017000003081FF60819F40819F40819F40819F2F
:100180004081FF40010040F1FF47F1FF47F1FF4789
:1001900071F04771E747716F4671674671F04771BB
:1001A000E74771EF4771EF47716F46717046F1FF96
:1001B00047F1FF47F5FF57010040FFFF7FFFFF1F9B
:1001C00001003081FF60819F40819F40819F40817D
:1001D0009F4081FF40010040F1FF47F1FF47F1FBE5
:1001E00047F1F947F1F147F17446F1764671E64778
:1001F00071E64731E04731EF47914F46914F46F165
:10020000FF47F1FF47F5FF57010040FFFF7FFFFF6A
:10021000FFFFFF0001000000800101C0FFFF01039C
:1002200001C0FF83010601C0FF83010C01C0FF83F1
:10023000011801C0FF83013001C0FF83012001C00C
:10024000FF83012001C0FF83012001C0FF83012043
:1002500001C0FF83012001C0FFFF01200100000059
:10026000002001000000002001000000002001002B
:1002700000000020010000000020C1FFFFFF7F20E0
:10028000C1FFFFFF7F20C1FFFFFF7F20C1FFFFFFF6
:100290007F20C1FFFFFF7F20C1FFFFFF7F20C1FF45
:1002A000FFFF7F20C1FFFFFF7F20C1FFFFFF7F20F7
:1002B000C180F1C87320C18071C87320C1FC61C8BE
:1002C0007320C1FC61C87320C1FC69C97320C1805F
:1002D00069C97320C18069C97320C1FC09C9732031
:1002E000C1FC09C97320C1FC89897120C100991919
:1002F0007820C10099397C20C1FFFFFF7F20C1FF1A
:10030000FFFF7F20C1FFFFFF7F20C1FFFFFF7F2096
:10031000C1FFFFFF7F20C1FFFFFF7F20C1FFFFFF65
:100320007F20C1FFFFFF7F20C1FFFFFF7F20C1FFB4
:10033000FFFF7F20C1FFFFFF7F200D000000002C8A
:100340000D000000002C010000000020FFFFFFFF57
:10035000FF3F464444454D55004C6F6164696E67EC
:100360002000425553590A00456C656B74726F6EDC
:10037000696B6369004163656D69002863292032F8
:10038000303231002069646C6500425553590A00CF
:1003900044726976652000464444454D55005465D5
:1003A0007374696E6720312C20322C203300455243
:1003B000524F52004C6F6164696E672000456A6558
:1003C00063746564200053656C6563746564200024
:1003D000447269766520003A2000533A2053656CD8
:1003E0006563742064726976650A503A20507265BC
:1003F00076696F75730A4E3A204E6578740A4C3AE6
:10040000204C6F61640A453A20456A656374004573
:100410006C656B74726F6E696B6369004163656DC7
:100420006900286329203230323100666464454D0A
:1004300055003A20000E1FBE5B7CAC22C0740B56E8
:10044000B40EBB0700CD105EEBF032E4CD16CD1933
:10045000EBFE54686973206973206E6F742061200D
:10046000626F6F7461626C65206469736B2E20200B
:10047000506C6561736520696E73657274206120CC
:10048000626F6F7461626C6520666C6F707079204A
:10049000616E640D0A707265737320616E79206BF2
:1004A000657920746F2074727920616761696E20AC
:1004B0002E2E2E200D0A000000000000000000007B
:1004C000000000000000000000000000000000002C
:1004D000000000000000000000000000000000001C
:1004E000000000000000000000000000000000000C
:1004F00000000000000000000000000000000000FC
:1005000000000000000000000000000000000000EB
:1005100000000000000000000000000000000000DB
:1005200000000000000000000000000000000000CB
:1005300000000000000000000000000000000000BB
:1005400000000000000000000000000000000000AB
:10055000000000000000000000000000000000009B
:10056000000000000000000000000000000000008B
:10057000000000000000000000000000000000007B
:10058000000000000000000000000000000000006B
:10059000000000000000000000000000000000005B
:1005A000000000000000000000000000000000004B
:1005B000000000000000000000000000000000003B
:1005C000000000000000000000000000000000002B
:1005D000000000000000000000000000000000001B
:1005E000000000000000000000000000000000000B
:1005F00000000000004641543132EB3C902E2E00AA
:100600002E005458540044525641004449534B5311
:1006100000464444454D5500666464454D55000010
:10062000002110422063308440A550C660E7700866
:100630008129914AA16BB18CC1ADD1CEE1EFF131ED
:1006400012100273325222B5529442F772D66239B6
:100650009318837BB35AA3BDD39CC3FFF3DEE3623D
:1006600024433420040114E664C774A44485546A06
:10067000A54BB528850995EEE5CFF5ACC58DD553CD
:1006800036722611163006D776F6669556B4465B56
:10069000B77AA719973887DFF7FEE79DD7BCC7C49D
:1006A00048E5588668A7784008611802282338CCA6
:1006B000C9EDD98EE9AFF9488969990AA92BB9F52D
:1006C0005AD44AB77A966A711A500A333A122AFDF6
:1006D000DBDCCBBFFB9EEB799B588B3BBB1AABA6FD
:1006E0006C877CE44CC55C222C033C600C411CAE46
:1006F000ED8FFDECCDCDDD2AAD0BBD688D499D970D
:100700007EB66ED55EF44E133E322E511E700E9F95
:10071000FFBEEFDDDFFCCF1BBF3AAF599F788F885C
:1007200091A981CAB1EBA10CD12DC14EF16FE1802D
:1007300010A100C230E3200450254046706760B924
:10074000839893FBA3DAB33DC31CD37FE35EF3B17D
:10075000029012F322D2323542145277625672EA74
:10076000B5CBA5A89589856EF54FE52CD50DC5E2CD
:1007700034C324A01481046674476424540544DB04
:10078000A7FAB79987B8975FE77EF71DC73CD7D31D
:1007900026F2369106B01657667676154634564CD4
:1007A000D96DC90EF92FE9C899E9898AB9ABA9446D
:1007B00058654806782768C018E1088238A3287D64
:1007C000CB5CDB3FEB1EFBF98BD89BBBAB9ABB75BD
:1007D0004A545A376A167AF10AD01AB32A923A2E34
:1007E000FD0FED6CDD4DCDAABD8BADE89DC98D260D
:1007F0007C076C645C454CA23C832CE01CC10C1F44
:10080000EF3EFF5DCF7CDF9BAFBABFD98FF89F175C
:100810006E367E554E745E932EB23ED10EF01E00A3
:1008200000250028002B000000240027002A00FFDC
:10083000E0FFD1AFFF32FFD0FFFEFFE0FFD1AEFF00
:10084000D0FFFEFFE0FFD11000FFFEFFD0FFE0FF72
:10085000C1FFD1AED580A83FD300408D142002A1A6
:10086000C8DA1281CFD9F1DB402EA4A6AFFFD0FFAA
:10087000FE01060A00FE070136026820FFFE08FEA0
:1008800007FE0A0060221767808080808000801643
:100890003363A0A0A00257675050F850F8505002A0
:1008A00057672070A07028702002576748A8502012
:1008B00050A89002576740A0A040A89068261363F4
:1008C0008080801237672040808080402012376708
:1008D000804020202040800355658850F8508803D0
:1008E00055652020F8202011336360408005516158
:1008F000F811336340E04002576708081020408039
:1009000080025767205088888850200257672060EF
:10091000A0202020F8025767708808304080F80235
:100920005767F808103008887002576710305090E9
:10093000F81010025767F880B0C80888700257672F
:10094000304080B0C88870025767F8081010204007
:10095000400257677088887088887002576770886F
:10096000986808106011376740E0400040E040118F
:10097000376740E0400060408012476710204080A9
:10098000402010045363F800F8124767804020109D
:10099000204080025767708810202000200257678F
:1009A000708898A8B0807002576720508888F888AF
:1009B00088025767F04848704848F00257677088C7
:1009C0008080808870025767F04848484848F002A5
:1009D0005767F88080F08080F8025767F88080F0D1
:1009E000808080025767708880809888700257677F
:1009F000888888F8888888123767E04040404040FF
:100A0000E002576738101010109060025767889006
:100A1000A0C0A09088025767808080808080F80204
:100A200057678888D8A88888880257678888C8A8A0
:100A30009888880257677088888888887002576706
:100A4000F08888F08080800158687088888888A83D
:100A50007008025767F08888F0A090880257677086
:100A6000888070088870025767F820202020202096
:100A700002576788888888888870025767888888BE
:100A800050505020025767888888A8A8D8880257F5
:100A900067888850205088880257678888502020AF
:100AA0002020025767F80810204080F8123767E0CE
:100AB0008080808080E00257678080402010080896
:100AC000123767E02020202020E006536320508862
:100AD000015161F8282262804002556570087888CB
:100AE000780257678080B0C888C8B00255657088A2
:100AF000808870025767080868988898680255656A
:100B00007088F88070025767304840F040404000DD
:100B10005767788888780888700257678080B0C8DF
:100B20008888881237674000C0404040E01049691B
:100B300010003010101090906002576780808890ED
:100B4000E09088123767C04040404040E002556561
:100B5000D0A8A8A888025565B0C8888888025565BD
:100B60007088888870005767B0C888C8B0808000D7
:100B7000576768988898680808025565B0C88080EB
:100B80008002556570807008F00257674040F04061
:100B9000404830025565888888986802556588887D
:100BA0005050200255658888A8A850025565885085
:100BB00020508800576788889868088870025565B3
:100BC000F8102040F8124767304020C02040302203
:100BD000176780808080808080124767C020403007
:100BE0004020C006536348A890FFFFFFFFFFFFFFB0
:100BF000FFFFFFFFFFFFFFFFFFFFFFFFFFFFFFFF05
:100C0000FFFFFFFFFFFFFFFFFFFF0A0060221767E4
:100C1000800080808080800157672078A0A0A07825
:100C200020025767304840E04048B0025565887060
:100C300050708801586888885020F820202022179A
:100C400067808080008080800158687080E09048D4
:100C5000380870193161A00257677088A8C8A88841
:100C6000701346667090B05000F00265652448909D
:100C70004824144262F010154161F00257677088F1
:100C8000E8C8C88870095161F816336340A0400273
:100C900056662020F82020F815456560902040F029
:100CA000154565E0106010E028226240800156661C
:100CB000888888C8B08002576778E8E868282828BC
:100CC00025116180202262408015356540C040407A
:100CD000E01346666090906000F0026565904824DD
:100CE000489001696940C04040E40C143C0401692B
:100CF0006940C04040E81404081C015969C0204004
:100D000020C81828780802576720002020408870E3
:100D10000258684020708888F88888025868102037
:100D2000708888F888880258682050708888F88809
:100D30008802586848B0708888F8888802586850D7
:100D400000708888F888880258682050708888F871
:100D500088880267673C50909CF0909C00596970AD
:100D6000888080808870204002586840F88080F039
:100D70008080F802586810F88080F08080F802586F
:100D80006820F88080F08080F802586850F88080F1
:100D9000F08080F81238688040E040404040E01227
:100DA00038682040E040404040E012386840A0E011
:100DB00040404040E0123868A000E040404040E041
:100DC000025767F04848E84848F0025868285088B9
:100DD000C8A89888880258684020708888888870D9
:100DE00002586810207088888888700258682050DF
:100DF0007088888888700258682850708888888829
:100E0000700258685000708888888870025565881C
:100E100050205088025767709898A8C8C870025828
:100E200068402088888888887002586810208888E0
:100E300088888870025868205000888888887002E6
:100E40005868500088888888887002586810208800
:100E5000885020202002576780F088F08080800230
:100E60005767708890A09088B00258684020007042
:100E7000087888780258681020007008788878020E
:100E80005868205000700878887802586828500008
:100E90007008788878025767500070087888780260
:100EA0005868205020700878887802656578147C2E
:100EB000907C005767708880887020400258684096
:100EC00020007088F880700258681020007088F840
:100ED00080700258682050007088F8807002576750
:100EE00050007088F88070123868804000C0404020
:100EF00040E0123868408000C0404040E01238684E
:100F000040A000C0404040E0123767A000C0404011
:100F100040E0025767C0307088888870025868289F
:100F20005000B0C8888888025868402000708888BF
:100F3000887002586810200070888888700258688D
:100F40002050007088888870025868285000708887
:100F500088887002576750007088888870035565CC
:100F60002000F800200255657898A8C8F00258685B
:100F70004020008888889868025868102000888877
:100F800088986802586820500088888898680257B6
:100F90006750008888889868005969102088889868
:100FA0006808887000586880F0888888F080800021
:100FB00059695000888898680888700007180B18CD
:100FC0000F1813189118971811241FBECFEFD8E0EF
:100FD000DEBFCDBF11E0A0E0B1E0E0E3F0E602C08B
:100FE00005900D92AA33B107D9F725E0AAE3B1E045
:100FF00001C01D92A939B207E1F717E0C4EED7E0AE
:1010000004C02197FE010E94842FCE3DD107C9F76D
:101010000E9417180C9416300C940000E4E6F0E0DF
:1010200080818E7F808380E480937C0087E880933A
:101030007A0008956F70606460937C00EAE7F0E0E6
:101040008081806480830895CF93DF93D82FC92F48
:101050000E940E0867E08D2F9C2FDF91CF910C949A
:101060001A08809178009091790008950F931F934A
:10107000CF93DF938C0180917A0086FD36C0C80142
:101080000E943108EC0167E0C8010E941A08C538C7
:1010900083E0D807C8F4CE0180529340863491058E
:1010A00050F188539F4F8C33910538F188539F4FEF
:1010B0008233910520F18E529F4F889710F181E085
:1010C000CD2B19F087E001C086E0909100012091BE
:1010D0000101263031F4891304C080930101863068
:1010E00028F0909301018093000180E0DF91CF917F
:1010F0001F910F91089585E0E8CF84E0E6CF83E06B
:10110000E4CF82E0E2CFCF93DF93EC01BC01665DD8
:101110007F4F805C9F4F0E940424FE01EF5AFF4FD7
:1011200091838083892B21F481E09BA9911101C0D7
:1011300080E0DF91CF910895CF93DF93EC01CE0152
:101140000E948308882319F09AA994FDF8CFDF91B3
:10115000CF9108950F931F93CF93DF93EC018C01F0
:101160000D5A1F4FF801118210820E94F30881115D
:101170000EC090E080E0DF91CF911F910F91089514
:10118000A895F80180819181019691838083CE0199
:101190000E949C088111F4CFF80180819181EBCFEE
:1011A000CF93DF93EC010E941C229C01FE01EF5AB9
:1011B000FF4F9183808380E0232B61F4319781E09E
:1011C000808333961182108268E171E0CE010E9423
:1011D000AA0881E0DF91CF910895FC01E05BFF4F09
:1011E00010820C94D008CF92DF92EF92FF920F936F
:1011F0001F93CF93DF93EC018B016C0180E4C80E49
:10120000D11CC6010E94BD239C017E01E1E5EE0ECA
:10121000F11CF7019183808381E021153105B1F044
:1012200023703327232B11F480E010C0CE010E94DD
:10123000D0088823C9F3B801C6010E94BD239C01D0
:10124000F7019183808381E0232B71F7DF91CF91A8
:101250001F910F91FF90EF90DF90CF900895CF9264
:10126000DF92FF920F931F93CF93DF938C01D42FC4
:10127000F52E0E94F308882351F0680183E3C80E1D
:10128000D11CC8010E948308C82F81110AC0C0E088
:101290008C2FDF91CF911F910F91FF90DF90CF9016
:1012A0000895A8956D2F7F2DC6010E94D82F892BF8
:1012B00041F7EECFCF93DF93EC01C3960E946323F7
:1012C000CF5ADF4F998388834CE750E0892B31F464
:1012D0000E94F624892B71F448E650E06DE870E036
:1012E0008EE694E00E94A31460E070E0CB01DF91F1
:1012F000CF910895DF91CF910C94DA24CF93DF93AF
:10130000EC018AA984FF05C06BE582E091E00E94B0
:10131000D413BE016D5C7F4F82E091E00E943914CE
:101320008AA984FF07C06DE582E091E0DF91CF914B
:101330000C94D413DF91CF910895CF93DF93FC01E8
:101340001382148215821682DC0117968DE0ED015E
:1013500019928A95E9F780E5818382E1828381E0B1
:101360008083DF91CF9108954F925F926F927F9229
:10137000BF92CF92DF92EF92FF920F931F93CF9382
:10138000DF93CDB7DEB762970FB6F894DEBF0FBE1E
:10139000CDBF7C01B62EC72EFC01808181FF03C02A
:1013A000C7010E949D094B2D5C2D69E171E08BE323
:1013B00091E00E942F09D82E81111DC04FEC50E002
:1013C00068EE70E08EE694E00E94A3148D2D629684
:1013D0000FB6F894DEBF0FBECDBFDF91CF911F9146
:1013E0000F91FF90EF90DF90CF90BF907F906F9024
:1013F0005F904F9008958BE391E00E945A09AB01F2
:10140000BC01F701438354838583768380916D010A
:1014100080FF03C080818460808302E110E026E3C6
:1014200030E0CE0101960E94D21D49ED50E0892B9B
:1014300059F58981863451F48A81813439F48B815C
:10144000843521F48C81813309F44FC0009165010A
:1014500010916601209167013091680159E036953D
:101460002795179507955A95D1F70036F9E01F078C
:1014700091F190F4003D82E0180791F180E5003A87
:10148000154079F14CEB50E068EE70E08EE694E0A8
:101490000E94A314D12C9ACF0034FBE01F07B1F0B7
:1014A0000038164179F780E5F701818384E2828371
:1014B000D70117968DE0EB2DFC2D01900D928A95AA
:1014C000E1F7F70180818260808380CF80E5F701BA
:1014D000818382E1ECCF80E5F70181838FE0E7CF64
:1014E00088E2F701818389E0E2CFF70143815481EB
:1014F0006581768102E110E02BE030E0CE010196BB
:101500000E94D21D89819A818115924051F4888967
:101510009989039734F46E857F856F3F710521F0BB
:101520001CF04AEA50E0B0CF89859A852C01712CD5
:10153000612C009165011091660120916701309145
:10154000680149E036952795179507954A95D1F793
:10155000041515052605370518F44AE950E094CF1F
:10156000F70162837727660F771F0E944E2F6183F2
:101570009FCF0C949D09CF93DF93EC01888181FF6D
:1015800003C0CE010E949D094DE050E063E970E088
:10159000CE0107960E94A42F888188608883DF91FE
:1015A000CF9108958F938FB78F939F934A990FC0D0
:1015B0004B9B17C08091A6019091A7010197909332
:1015C000A7018093A6019093A7018093A601809123
:1015D000A50180688093A5019F918F918FBF8F9106
:1015E00018958091A6019091A7010196E8CF8F935D
:1015F0008FB78F934D990BC04C9909C08091A5016D
:1016000081608093A5018F918FBF8F9118958091F4
:10161000A5018C7FF6CF1092A8018AB183708AB998
:1016200084B1807C84B987B1807F87B95F9829981D
:1016300088B1817F88B98BB180638BB98BB18C64A1
:101640008BB9289A409AE9E6F0E080818C7F80830C
:10165000808182608083E89A80E380936D00E8E671
:10166000F0E080818460808381E08093A801789499
:101670000895CF93DF93EC018091A801811102C0FE
:101680000E940B0B80E18C8BDF91CF910895CF935B
:10169000DF93D82FC92F0E94B90A8D2F9C2FDF917D
:1016A000CF910C94390B0F931F93CF93DF9300D0FE
:1016B00000D0CDB7DEB78C01FC018781811111C04C
:1016C00063E171E08FEA91E00E94B62F8FEA91E02A
:1016D0000F900F900F900F90DF91CF911F910F916E
:1016E000089583E48093AF011092B00181814AE0B4
:1016F000BE016F5F7F4F90E00E94E12FBE016F5FE0
:101700007F4F8FEA91E00E94CD2F65E271E08FEA72
:1017100091E00E94CD2FF80182814AE0BE016F5F07
:101720007F4F90E00E94E12FBE016F5F7F4F8FEAF5
:1017300091E00E94CD2FCACFCF93DF93FC01AB0184
:10174000808181FF1FC0052E000C660B770B838103
:101750009481A581B681480F591F6A1F7B1F8CEBAE
:1017600091E00E94341EEC01892B41F04EEF50E0D5
:101770006DE071E08EE694E00E94A314CE01DF914B
:10178000CF910895C1E0D0E083FFF8CF6CEB71E01A
:101790008FE694E0DF91CF910C94EA17CF93DF931B
:1017A000FC01AB01808181FF1FC0052E000C660B80
:1017B000770B83819481A581B681480F591F6A1FD9
:1017C0007B1F8CEB91E00E94761EEC01892B41F08F
:1017D0004EEE50E06DE071E08EE694E00E94A314BE
:1017E000CE01DF91CF910895C1E0D0E083FFF8CF23
:1017F0006CEB71E08FE694E0DF91CF910C94EA17E7
:10180000CF93DF93EC010E94B409882329F09A81D9
:101810009A3028F090E19C8BDF91CF91089590E26F
:10182000FACFEF92FF920F931F93CF93DF93EC01C8
:10183000888180FF07C03B9A8881982F9A7011F0A9
:101840008E7F8883888182FF16C03A9A0E94B618DC
:1018500011E002E13BEFF32E4EE4E42E8091A5016E
:10186000837059F43B983A98DF91CF911F910F9173
:10187000FF90EF9008953A98E9CF579A8C890E948B
:10188000101B579880E08093AB019A81891730F73D
:101890008091A501837011F3A8958091A5018370B3
:1018A000E9F289B186FB882780F981278093AC0112
:1018B0008091A50187FF21C08091A5018F7780933A
:1018C000A5012091A6013091A7013093AE0120938C
:1018D000AD0137FF65C01092AE011092AD01399A8B
:1018E0008091AD019091AE019093A7018093A601E4
:1018F00088818A7009F467C03B988091AD0190910E
:10190000AE01880F991F2091AC01820F911D089F95
:10191000B001099F700D11248091AB01680F711DFA
:101920007093AA016093A901CE010E949C0B0E94B2
:10193000B6184091AB016091AC018091AD010E945D
:10194000F0188C890E94A11B8091A6019091A7019B
:101950002091AD013091AE0128173907E9F484E1F7
:1019600090E0309B02C00197E1F730992EC00E94B1
:10197000DD1843E052E06BEB71E08C890E940B199B
:10198000A8950E94B6186091A9017091AA01CE0194
:101990000E94CE0B309BFECF8091AB018F5F73CF47
:1019A000898190E0281739072CF001979093AE01B8
:1019B0008093AD018091AD019091AE01892B09F426
:1019C0008ECF39988DCF3B9A98CFF092BB0161E0D2
:1019D00072E08BEB91E00E949B189827892798274B
:1019E0009093BD038093BC03E092BE0344E052E0B9
:1019F0006BEB71E08C890E94361ACECF2F923F920A
:101A00004F925F926F927F928F929F92AF92BF920E
:101A1000CF92DF92EF92FF920F931F93CF93DF93BA
:101A20004C010E94B52AF401908D818D292E281A2F
:101A30003080412C512C3401F3E46F0E711CC32C07
:101A4000D12C540122E4A20EB11C052D10E0F301AB
:101A50008081082E000C990B08171907ACF0C401FF
:101A6000DF91CF911F910F91FF90EF90DF90CF907A
:101A7000BF90AF909F908F907F906F905F904F90AE
:101A80003F902F900C946B2CC4013DE0539E800D31
:101A9000911D1124FC01EC5BFF4F7F01BF01C401CC
:101AA0000E94C52AE601C81BD109D7FD2196D5950C
:101AB000C795C4010E946B2CF5018081082E000C93
:101AC000990B8017910759F4022D232D41E0440D05
:101AD00060E0C4010E946E2EC4010E947C2C97011C
:101AE000442D6C2FC4010E94252A5394420CADCF83
:101AF000CF92DF92EF92FF920F931F93CF93DF93DA
:101B0000EC0118810E946B2C8BAD2DEBE22E21E0B5
:101B1000F22E0BE127E143E061E080FF51C0CE01EE
:101B20000E943B250DE129E142E060E0CE010E94E8
:101B3000112E26EE210F42E06AE1CE010E946E2EA8
:101B4000CE010E947C2C812F8751990B6C0167E993
:101B500071E0CE010E94C52AB601681B710977FFAA
:101B600002C06F5F7F4F759567957727695E7F4FDE
:101B700027E931E044E0CE010E94252A80E991E086
:101B80000E94530B8C01BC01CE010E94C52AB601F4
:101B9000681B710977FF02C06F5F7F4F759567956E
:101BA0007727695E7F4F980141E1CE01DF91CF91A8
:101BB0001F910F91FF90EF90DF90CF900C94252A0A
:101BC000CE010E943B25BFCFAF92BF92CF92DF9252
:101BD000EF92FF920F931F93CF93DF936C01FC0161
:101BE000C081D0E069E573E00E94DF2A9E01281BD6
:101BF0003109C90137FD01965C01B594A794F6013E
:101C000083AD80FF49C0BE016751710977FF02C0F3
:101C10006F5F7F4F759567954DEBE42E41E0F42E95
:101C20000BE127E140E0C6010E943B2529E533E0B6
:101C300040E26A2DC6010E94502A5601F2E4AF0E1E
:101C4000B11CF50180811DE0B6018102600D711D9E
:101C500011246C5B7F4FC6010E94C52AF50190815B
:101C600096019102200D311D11242C5B3F4FC81BA2
:101C7000D109D7FD2196D595C7954FE26C2FC601A6
:101C8000DF91CF911F910F91FF90EF90DF90CF9058
:101C9000BF90AF900C94252A81FFC8CFBE01675139
:101CA000710977FF02C06F5F7F4F759567952CE6CE
:101CB000E22E21E0F22EB4CFAF92BF92CF92DF920C
:101CC000EF92FF920F931F93CF93DF936C01FC0170
:101CD000C081D0E062E673E00E94DF2A9E01281BEB
:101CE0003109C90137FD01965C01B594A794F6014D
:101CF00083AD80FF4BC0BE016751710977FF02C001
:101D00006F5F7F4F759567954DEBE42E41E0F42EA4
:101D10000BE127E140E0C6010E943B2522E633E0CB
:101D200040E26A2DC6010E94502AF60183AD8370FD
:101D30008150990B15E1189FB001199F700D112466
:101D400069567E4FC6010E94C52AF60143AD437015
:101D50004150550B149F9001159F300D11242956A9
:101D60003E4FC81BD109D7FD2196D595C7954FE2A7
:101D70006C2FC601DF91CF911F910F91FF90EF90D3
:101D8000DF90CF90BF90AF900C94252A81FFC6CFF3
:101D9000BE016751710977FF02C06F5F7F4F759574
:101DA00067952CE6E22E21E0F22EB2CFCF92DF92A1
:101DB000EF92FF920F931F93CF93DF936C01FC017F
:101DC000C081D0E064AD75AD0E94DF2A182FBE013E
:101DD0006751710977FF02C06F5F7F4F75956795F7
:101DE0003BE1E32E31E0F32E0BE127E140E0C601B9
:101DF0000E943B25F60124AD35ADBE01611B710982
:101E000077FF02C06F5F7F4F7595679540E2C6010F
:101E10000E94502AF60166AD77ADC6010E94DF2A06
:101E2000F60126AD37ADC81BD109D7FD2196D59552
:101E3000C7954FE26C2FC601DF91CF911F910F9193
:101E4000FF90EF90DF90CF900C94502ACF92DF92CA
:101E5000EF92FF920F931F93CF93DF936C01FC01DE
:101E6000C081CE52DD0B6BE773E00E94DF2A182F92
:101E70003EE0E32E32E0F32E06E32EE245E061E0A1
:101E8000C6010E943B25BE01611B710977FF02C09C
:101E90006F5F7F4F759567957727625D7F4F2BE763
:101EA00033E04AE0C6010E94502A65E773E0C601AC
:101EB0000E94DF2ABE01681B710977FF02C06F5FB5
:101EC0007F4F759567957727625D7F4F25E733E0F4
:101ED00049E1C6010E94502A68E673E0C6010E94EB
:101EE000DF2ABE01681B710977FF02C06F5F7F4F59
:101EF000759567957727625D7F4F28E633E048E266
:101F0000C601DF91CF911F910F91FF90EF90DF906D
:101F1000CF900C94502ACF93DF93D82FC92F65E030
:101F200082E00E94BF270E94DB2765E082E00E94DA
:101F3000BF2761E00E94F32765E082E00E94BF278F
:101F40000E94C42764E082E00E94BF270E94DB2732
:101F500064E082E00E94BF2761E00E94F32764E012
:101F600082E00E94BF270E94C42740E064E071E045
:101F70008D2F9C2F0E940B2C8D2F9C2F0E94352F74
:101F800061E778E08D2F9C2F0E94FA2A8D2F9C2FDD
:101F9000DF91CF910C94BF2ACF93DF93EC010E9485
:101FA0008B0F84E189AF8FEF88AFFE01EE5BFF4FAF
:101FB000108285E08AAFDF91CF910895FC0122ADB8
:101FC000233079F030F4213071F0223071F00C942C
:101FD000780D243021F02530D1F70C94260F0C9485
:101FE0005C0E0C94E40D0C94D60E0C94FE0CCF9366
:101FF000DF93EC018FA9811120C088AD8823E9F01F
:1020000089AD882339F0815089AF9FEF98AF811156
:1020100001C01AAECE010E94212CCE010E94DE0F1B
:10202000CE010E94262C8111F8CF88AD815088AF57
:10203000811103C0CE010E94352C8FA98F5F8FAB19
:10204000DF91CF910895CF93DF93EC011BAE60E059
:102050000E9430101FAACE01DF91CF910C94F70F90
:10206000CF93DF93EC016AAF88AD811106C0CE013A
:102070000E943D2CCE010E9423108FEF88AFDF918C
:10208000CF910895CF93DF93EC017DAF6CAF5FAF3D
:102090004EAF61E00E94301084E189AF1FAACE01EB
:1020A000DF91CF910C94F70FCF93DF93EC01637026
:1020B0006BAF64E00E9430101FAACE01DF91CF9178
:1020C0000C94F70FCF93DF93EC0163E00E94301084
:1020D0001FAACE01DF91CF910C94F70FCF92DF9220
:1020E000EF92FF920F931F93CF93DF938C017C01AC
:1020F00083E4E80EF11C86E0D7018C9380918E0179
:1021000090918F018530910514F48F5F8C93F801C5
:10211000EE5BFF4F3081E801C05CDF4F8881998121
:1021200037FF2FC0108201979983888380918E0199
:1021300090918F0128813981AC01445051092417B5
:1021400035073CF10597998388836AE171E08BE359
:1021500091E00E94F308D12CC12C88819981C81686
:10216000D906E4F0C0E0DDE0F7018081C817F4F0A3
:10217000DF91CF911F910F91FF90EF90DF90CF9063
:102180000895D7012C9132178CF2215020830196AB
:10219000CBCF37FFDACF19821882D7CF8BE391E00C
:1021A0000E949C08BFEFCB1ADB0AD7CF8BE391E0EC
:1021B0000E949C08D801CD02A00DB11D1124AC5B7A
:1021C000BF4F882349F08DE0EEE6F1E001900D92DB
:1021D0008A95E1F7CF5FC8CF62E573E0CD010E9439
:1021E000B62FF8CF0F931F93CF93DF93EC01162FE9
:1021F00016169CF488AD811104C060E0CE010E94E7
:1022000030108FEF88AF133009F441C05CF4113007
:1022100009F49CC0123009F44CC0DF91CF911F919A
:102220000F9108951430D9F01530B9F78AAD8111A6
:10223000F4CF2BAD237089F32150330B45E1429F3E
:10224000C001439F900D112480579E4F0E94BB0AEE
:10225000CE01DF91CF911F910F910C9423108AAD85
:10226000811106C08BAD8370C1F681E08BAFD5CFF5
:10227000823099F6FE01EE5BFF4F80818F5F808395
:10228000CE01DF91CF911F910F910C946E108AAD0A
:10229000811106C08BAD8370823009F0BECFE5CFCF
:1022A000823009F0BACFFE01EE5BFF4F8081815092
:1022B000E6CF8AAD81110DC08BAD837009F4ADCF2F
:1022C000FE01EE5BFF4F10823297118210821AAF2F
:1022D000D7CF823009F0A1CFCE010E946210FE015B
:1022E000EE5BFF4F80818E019DE08902000D111D84
:1022F00011240C5B1F4F62E573E0C8010E94AD2FF3
:102300002BAD23702150330B45E1892B89F4429F7B
:10231000C001439F900D112480579E4F0E94BB0A1D
:1023200060E0CE01DF91CF911F910F910C9430109E
:10233000429FC001439F900D1124B80180579E4FCA
:102340000E94000C882309F468CFEACF8AAD82305E
:1023500011F41AAE62CF811160CF2BAD237009F456
:102360005CCF2150330B85E1829FE001839FD00D2C
:102370001124C057DE4FCE010E949D0980E18C8B55
:102380004CCFFC0110821282118208956AE082E033
:1023900091E00E94D4136AE082E091E00E94D4139D
:1023A0006BE274E082E091E00E94501460E282E00F
:1023B00091E00E94D41362E274E082E091E00E9416
:1023C000501460E282E091E00E94D4136CE174E06A
:1023D00082E091E00E94501460E282E091E00E946D
:1023E000D4136FE074E082E091E00E9450146AE040
:1023F00082E091E00E94D4136AE082E091E00E94C2
:10240000D4136AED73E082E091E00E9450146AE018
:1024100082E091E00E94D4136AE082E091E00C94A3
:10242000D4136AE082E091E00E94D41361E482E078
:1024300091E00E94D41367ED73E082E091E00E9486
:10244000501467E971E082E091E00E94391469E07C
:1024500082E091E00E94D41380E991E00E94530B46
:10246000BC0182E091E00E9439146AE082E091E0D0
:102470000C94D413CF92DF92EF92FF920F931F939D
:10248000CF93DF93CDB7DEB72D970FB6F894DEBFAD
:102490000FBECDBF8C0182E091E00E94E61385362D
:1024A00009F444C10CF041C0803509F4B6C014F5FC
:1024B0008C3409F4CBC08E3409F440C0853409F45F
:1024C00035C19FEC980F953008F010C160ED680F92
:1024D0008FEB93E02D960FB6F894DEBF0FBECDBF05
:1024E000DF91CF911F910F91FF90EF90DF90CF90F0
:1024F0000C94F210833509F45CC0883511F74EE96D
:1025000053E06EEA73E08FEB93E02D960FB6F894EC
:10251000DEBF0FBECDBFDF91CF911F910F91FF9016
:10252000EF90DF90CF900C944210803709F475C083
:10253000D4F58C3609F48AC08E3619F6F8018181FB
:102540009281019697FD70C09283818380918E0164
:1025500090918F01F801218132812817390714F0F9
:102560009283818364E271E08BE391E00E94F3083F
:10257000F12CE12CF801818192818E159F050CF0E0
:1025800056C066EC73E082E091E00E9450148091A6
:102590006E01882309F453C06EE671E082E091E099
:1025A0000E94391427C0833721F0883709F4A7CF58
:1025B00088CFF80180818D7F11F481E08083C8018C
:1025C0000E94111266EC73E082E091E00E945014C8
:1025D00060ED73E082E091E00E945014F801808188
:1025E00061E4813019F0823029F462E482E091E004
:1025F0000E94D4136AE082E091E02D960FB6F89421
:10260000DEBF0FBECDBFDF91CF911F910F91FF9025
:10261000EF90DF90CF900C94D413F80181819281D8
:102620000297928381838ACF128211828FCF8BE3AC
:1026300091E00E949C08FFEFEF1AFF0A9BCF67E929
:1026400073E082E091E00E945014D4CFF8018081C1
:10265000882309F44BC08DE0EEE6F1E09E012F5F88
:102660003F4F7901D90101900D928A95E1F764EB12
:1026700073E082E091E00E94501489816701882311
:1026800009F443C0B70182E091E00E9439146AE086
:1026900082E091E00E94D4138981F80120812150C9
:1026A000330B45E18823C1F1429FC001439F900D48
:1026B0001124B60180579E4F0E94000CF801208122
:1026C0002150330B45E1429FC001439F900D1124DF
:1026D00080579E4F0E94530BBC0182E091E00E9404
:1026E00039146AE082E091E00E94D4132D960FB66F
:1026F000F894DEBF0FBECDBFDF91CF911F910F9138
:10270000FF90EF90DF90CF90089567E973E082E04B
:1027100091E00E945014BBCF429FC001439F900D97
:10272000112480579E4F0E94BB0AC8CFF8018081B8
:102730008823E1F26DEB73E082E091E00E94501497
:10274000F801808161E4813009F062E482E091E087
:102750000E94D4136AE082E091E00E94D413F80151
:1027600080818150990B25E1289F8001299F100DC0
:10277000112400571E4FC8010E949D0980E1F801F5
:10278000848BB4CF8A3039F49091C00095FFFCCF90
:102790009DE09093C6009091C00095FFFCCF809380
:1027A000C60090E080E008956A3039F48091C0005E
:1027B00085FFFCCF8DE08093C6008091C00085FF2F
:1027C000FCCF6093C60090E080E008958091C00047
:1027D00087FFFCCF8091C60090E00895E0E6F4E02A
:1027E00082EC93E19187808786EE93E193878287DD
:1027F00083E08383A1E8B4E01596FC93EE931497ED
:102800001396FC93EE931297ED93FC930895242F67
:10281000352FAB01211581EE38074105510511F126
:102820002A3E81E0380741055105E0F082E08093BF
:10283000C00060E079E08DE390E00E94622F2150BB
:102840003109410951095695479537952795309398
:10285000C5002093C4008091C10088618093C100AD
:102860000C94EE131092C00060E874E88EE190E0E2
:10287000E4CF0F931F93CF93DF938C01EB0169910A
:1028800016162CF0DF91CF911F910F910895D8016A
:10289000ED91FC910190F081E02DC8010995EFCFF9
:1028A0000F931F93CF93DF938C01EB01FE01649193
:1028B000219616162CF0DF91CF911F910F9108955C
:1028C000D801ED91FC910190F081E02DC8010995AE
:1028D000EDCF1F93CF93DF93EC01862F82958F70FE
:1028E000162F1F70603AC8F460E3680F80E31A3057
:1028F00008F087E3180FE881F9810190F081E02D5D
:10290000CE010995E881F9810190F081E02D612FD8
:10291000CE01DF91CF911F91099467E3E6CFCF936A
:10292000DF93D82FC92F242F4AE064E574E0822F6B
:10293000952F0E94E12F64E574E08D2F9C2FDF918D
:10294000CF910C9439140F931F93CF93DF938B0186
:10295000D42FC52F8FEB93E00E944210B80182E084
:1029600091E00E94501462E374E082E091E00E94E2
:1029700050146D2F7C2F82E091E00E9450146AE089
:1029800082E091E0DF91CF911F910F910C94D413CD
:10299000CF92DF92EF92FF92CF93DF9300D000D0DF
:1029A00000D0CDB7DEB78D839E8340E050E0BA0102
:1029B0008D819E810E94341E892BA9F019821A8272
:1029C0001B821C8269817A818B819C8126960FB63D
:1029D000F894DEBF0FBECDBFDF91CF91FF90EF9097
:1029E000DF90CF900895ED81FE81EA53FE4FC080C5
:1029F000D180E280F380B701A6018D819E810E9483
:102A0000341EAD81BE81D6968C91D6978823F1F085
:102A100050964C91509756962D913C915797429FC6
:102A2000C001439F900D11241E962D913C91C20E22
:102A3000D31EE11CF11CA7019601280F391F411D6F
:102A4000511D29833A834B835C83BCCFED81FE818A
:102A5000EE5AFF4F8081882309F4B0CFAD81BE814B
:102A60009C962D913D914D915C919F9722503109FB
:102A7000410951091D96AC91B0E00E948A2F6983EB
:102A80007A838B839C83ED81FE8186859785C80E32
:102A9000D91EE11CF11C29813A814B815C81C20E57
:102AA000D31EE41EF51EA08924A135A146A157A17D
:102AB000B0E00E948A2FDC01CB018C0D9D1DAE1D64
:102AC000BF1D89839A83AB83BC837CCF3F924F9297
:102AD0005F926F927F928F929F92AF92BF92CF92AE
:102AE000DF92EF92FF920F931F93CF93DF93582EB5
:102AF000692E762E872E942E322E432EE5014BE042
:102B000050E060E270E0C5010E94C62F852D962D31
:102B10000E94BD2FAC01652D762DC5010E94A42F0A
:102B2000892D887159F4872D982D0E94BD2FAC01F5
:102B3000672D782DC50108960E94A42F9B86832DB2
:102B4000942D9D8B8C8B1B8F0A8FCC8EDD8EEE8E01
:102B5000FF8EDF91CF911F910F91FF90EF90DF904B
:102B6000CF90BF90AF909F908F907F906F905F902D
:102B70004F903F900895CF93DF93FC011082118214
:102B800012821382DC0115968DE0ED0119928A956F
:102B9000E9F71482DF91CF910895CF93DF93EC0191
:102BA0008C81982F937051F080FF07C0BE016B5F3E
:102BB0007F4F80E991E00E94000C1C82DF91CF9151
:102BC0000895CF93DF93EC01FB014236510559F490
:102BD0001486DC0115968DE001900D928A95E1F73F
:102BE0008C8181608C8390E080E0DF91CF910895AB
:102BF0000F931F93CF93DF938C01EB01FC01808136
:102C00009181A281B381892B8A2B8B2B49F4CB0133
:102C10000E94C814D8016D937D938D939C93139754
:102C200000E012E0FE01C80111920197E9F743E0CC
:102C300050E06AEF75E0CE010E94A42F46E050E01C
:102C400068E176E0CE0103960E94A42F1C870B87D3
:102C500081E08D8781E090E09F878E8782E0888B7E
:102C600080EE90E09A8B898B80E49BE09C8B8B8B31
:102C700080EF8D8B89E090E09F8B8E8B82E190E0DE
:102C8000998F888F82E090E09B8F8A8F89E28EA354
:102C900080EE90EDA0EDB0EF8FA398A7A9A7BAA7FB
:102CA0008E01055D1F4F4BE050E060E270E0C8010F
:102CB0000E94C62F46E050E061E176E0C8010E9424
:102CC000A42F45E050E065EF75E0CE01C6960E9466
:102CD000A42F40EC51E065E374E0CE01CE960E9453
:102CE000A42FC250DE4F85E59AEA99838883DF914D
:102CF000CF911F910F910895AF92BF92CF92DF9223
:102D0000EF92FF920F931F93CF93DF93EB0180E03D
:102D100092E0FB019C01119221503040E1F74331D8
:102D2000510581F55B01C12CD12C760100E010E04A
:102D3000980148E070E060E081E196E00E9466154D
:102D400030E2A30EB11C03E010E020E030E040E1EF
:102D500070E060E08BE096E00E9466155E0180E422
:102D6000A80EB11C8DE0C82ED12CE12CF12C03E46F
:102D700010E020E030E040E062E076E086E096E0BF
:102D80000E946615DF91CF911F910F91FF90EF90F8
:102D9000DF90CF90BF90AF900895AF92BF92CF9247
:102DA000DF92EF92FF920F931F93CF93DF938C01EB
:102DB000EB017A0122E2E21AF10830E4E316F104B1
:102DC00008F06EC0E114F10439F4D80114968C9126
:102DD00014978B7F14968C93F80140815181628106
:102DE0007381411551056105710509F450C0848155
:102DF00082FF45C080E092E0DE01FC011D92319728
:102E0000E9F7FE019E013E5F8081811107C0D80174
:102E100014968C911497846014968C93158A148A56
:102E2000138E128EB096E217F30771F7EF28E1F4D4
:102E30005E01C12CD12C760103E010E020E030E0EF
:102E400040E170E060E080E096E00E94661530E2CC
:102E5000A30EB11C00E010E0980140E170E060E0DA
:102E60008DEF95E00E946615DF91CF911F910F9134
:102E7000FF90EF90DF90CF90BF90AF9008954E0DF0
:102E80005F1D611D711DCE010E94341EBACF80E00E
:102E900092E0FE019C01119221503040E1F7C6CF33
:102EA0004236510549F48DE0E7E9F1E0DB0101909C
:102EB0000D928A95E1F7D8CF80E092E0DB01FC012A
:102EC0001D923197E9F7D0CFFB01CA01AB015695AE
:102ED00047954E0F5F1FD901A40FB51F4D915C910F
:102EE0001197E0FF0AC024E0880F991F2A95E1F7A7
:102EF000842B952B8D939C9308959F70F9CFAF925F
:102F0000BF92CF92DF92EF92FF920F931F93CF93D6
:102F1000DF93182F092FF22EE32EEA01C60FD71FD9
:102F20005E0181E0A81AB1086C177D0758F0DF91A7
:102F3000CF911F910F91FF90EF90DF90CF90BF90B6
:102F4000AF9008956B018FEFC81AD80A4FEF5FE07A
:102F5000A616B70609F0A6012F2D3E2D812F902F22
:102F60000E946417B601E0CFCF93DF93EB0141508D
:102F7000510960E072E0DE01FB011D923197E9F733
:102F80004930510510F049505109452B01F520EF0A
:102F90003FE0398328832FEF3FEF3A8329839E0157
:102FA00040E450E063E070E00E947F17FE01EC59BE
:102FB000FF4F80819181806F9F6F91838083CA5979
:102FC000DF4F888199818F6F9F6099838883DF911C
:102FD000CF9108954115510529F40E94F81590E00C
:102FE00080E008959A01215031092231310518F409
:102FF0000E94B417F4CF9A01235131092E303105C4
:1030000018F40E947C16EBCF0E94CD16E8CF8AE31D
:1030100091E00C9424088BE391E00C94ED0880E996
:1030200091E00C94470B8FEB93E00C94CC0F88E16C
:1030300099E20FB6F894A895809360000FBE909324
:10304000600040E052EC61E070E082E091E00E94BC
:10305000071481E594E00E94C61180918B018823BA
:1030600009F45AC06BE171E080E991E00E94000C24
:10307000C5E1A8958091A5018370A1F16091A5019A
:1030800063708FEB93E00E9454106AE873E082E073
:1030900091E00E9450142091A50123702150330B20
:1030A000C29FC001C39F900D112480579E4F0E9464
:1030B000110C8FE694E00E94CD158FEB93E00E94F7
:1030C000231060E973E082E091E00E94501464E80C
:1030D00073E082E091E00E9450146AE082E091E0A7
:1030E0000E94D4138091C00087FF04C081E594E062
:1030F0000E943A1280917A0086FD09C08AE391E02D
:103100000E943608682F8FEB93E00E94F2108FEB3D
:1031100093E00E94F70FADCF80E991E00E94BB0AD7
:10312000A7CFE1E5F4E010821282118208958FE6C4
:1031300094E00C94BB15AC019B0184EB9DEC121642
:1031400013060CF00895DA01E92FFF274D91E427CB
:10315000EE0FFF1FE15EF94F45915491982F88279C
:103160008427952721503109AD01E9CFCF93DF9313
:10317000A1E8B0E091E09C932198E0E8F0E080ECD9
:103180008083C2E8D0E08881806888831082219A99
:1031900096BB8C9188608C9310928500109284006D
:1031A00080E290E0909389008093880082E086BB63
:1031B00080E48083DF91CF91089510928500109272
:1031C000840081E286BB1092800081E080938100C0
:1031D00010928200EEE6F0E080818E7F8083089579
:1031E000CF93DF93C7E8D4E09EEF988389836A8307
:1031F0004F5F4B8382E08C8365E070E0CE010E94DC
:103200009B189827892798279E838D838EE48F8328
:10321000DF91CF910895FF920F931F93FB01DA0185
:103220001197082F0695080F080F102F180F80E030
:10323000F82EB09A40E0B09B05C0B09AFA9411F411
:1032400083E010C14395B59BFECF30918600B59ABF
:10325000632F621B232F601770F3611758F74035F7
:1032600048F3B59BFECF30918600B59A632F621B61
:10327000232F611708F4DECFB59BFECF3091860077
:10328000B59A632F621B232F061708F4611708F005
:10329000D1CFB59BFECF30918600B59A632F621BCC
:1032A000232F611708F4C6CFB59BFECF309186005F
:1032B000B59A632F621B232F061708F4611708F0D5
:1032C000B9CFB59BFECF30918600B59A632F621BB4
:1032D000232F601708F0AECFB59BFECF309186004C
:1032E000B59A632F621B232F611708F4A3CFB59BF8
:1032F000FECF30918600B59A632F621B232F0617ED
:1033000008F4611708F096CFB59BFECF3091860088
:10331000B59A632F621B232F611708F48BCFB59BDF
:10332000FECF30918600B59A632F621B232F0617BC
:1033300008F4611708F07ECFB59BFECF3091860070
:10334000B59A632F621B232F601708F073CFB59BCC
:10335000FECF30918600B59A632F621B232F611731
:1033600008F468CFB59BFECF30918600B59A632FE5
:10337000621B232F061708F4611708F05BCFB59B7B
:10338000FECF30918600B59A632F621B232F611701
:1033900008F450CFB59BFECF30918600B59A632FCD
:1033A000621B232F061708F4611708F043CFBB23D5
:1033B0000AF458C058E0B59BFECF30918600B59A0C
:1033C000632F621B232F6017F0F0611798F0440FF2
:1033D0005A9529F4419358E0A150B04052F0440F5F
:1033E00041605A9529F4419358E0A150B0400AF049
:1033F000E2CF38C0440F5A9529F4419358E0A150C8
:10340000B040BAF30AC0440F41605A9529F4419381
:1034100058E0A150B0406AF3CECFB59BFECF3091BB
:103420008600B59A632F621B232F601790F0440F1C
:103430005A9529F4419358E0A150B0409AF0440FB6
:1034400041605A9529F4419358E0A150B04052F0A0
:10345000B2CF440F5A9529F4419358E0A150B0409F
:103460000AF0DBCF1F910F91FF9008950F931F93E8
:10347000DA01FB01082F080F0A95102F180F212FD2
:10348000280F40E04093840040E600938800B19B01
:10349000FECF30E830938200B19A4A95B1F710938D
:1034A0008800B19BFECF30E830938200B19A209320
:1034B0008800B19BFECF30E830938200B19A109320
:1034C0008800B19BFECF30E830938200B19A209300
:1034D0008800B19BFECF30E830938200B19A109300
:1034E0008800B19BFECF30E830938200B19A009300
:1034F0008800B19BFECF30E830938200B19A2093D0
:103500008800B19BFECF30E830938200B19A1093CF
:103510008800B19BFECF30E830938200B19A2093AF
:103520008800B19BFECF30E830938200B19A1093AF
:103530008800B19BFECF30E830938200B19A0093AF
:103540008800B19BFECF30E830938200B19A20937F
:103550008800B19BFECF30E830938200B19A10937F
:103560008800B19BFECF30E830938200B19A20935F
:103570008800B19BFECF30E830938200B19A10935F
:103580008800B19BFECF30E830938200B19A00935F
:10359000880050E05A952AF4A150B0409AF1419128
:1035A00057E0441F30F030918800380F3093880086
:1035B00009C0B19BFECF30E830938200B19A0093EE
:1035C0008800E8CF5A952AF4A150B040DAF0419132
:1035D00057E0441F48F0B19BFECF30E830938200A3
:1035E000B19A00938800EECF30918800380F309365
:1035F0008800B19BFECF30E830938200B19A0093EF
:103600008800C8CFB19BFECF30E830938200B19ADA
:1036100090E090938900809388001F910F91089506
:103620000F931F93082F080F0A95102F180F212FA3
:10363000280F48E30E945D1B109388000E94941B92
:103640004FE50E94561B43E0109388000E94941B94
:1036500004C0209388000E94941B009388000E945D
:10366000941B109388000E94941B209388000E9452
:10367000941B109388000E94941B4A9551F7209345
:1036800088000E94941B45E00E94561B10938800FE
:103690000E94941B41E3009388000E94941B0E94A7
:1036A000611B109388000E94941B45C00093880002
:1036B0000E94941B4A95D1F70895109388000E94A8
:1036C000941B109388000E94941B109388000E9402
:1036D000941B109388000E94941B009388000E9402
:1036E000941B009388000E94941B4A9531F708951B
:1036F000109388000E94941B04C0009388000E94CD
:10370000941B209388000E94941B109388000E94B1
:10371000941B209388000E94941B109388000E94A1
:10372000941B4A9551F70895B19BFECF30E8309332
:103730008200B19A08950093880080E01F910F9154
:1037400008950F931F93E7E8F4E0082F080F0A95F8
:10375000102F180F212F280F109388000E944E1C45
:1037600040E50E94101C42E00E94321C0093880039
:103770000E944E1C209388000E944E1C10938800CB
:103780000E944E1C209388000E944E1C10938800BB
:10379000B19BFECF30E830938200B19A009388004D
:1037A00050E0A8E05A9522F4A15092F1419157E0DF
:1037B000441F30F030918800380F3093880009C0E2
:1037C000B19BFECF30E830938200B19A009388001D
:1037D000E9CF5A9522F4A150DAF0419157E0441F05
:1037E00048F0B19BFECF30E830938200B19A00934D
:1037F0008800EFCF30918800380F30938800B19B5C
:10380000FECF30E830938200B19A00938800CACF8F
:1038100045E10E94171C109388000E94941B45C02C
:10382000009388000E944E1C4A95D1F7089510938A
:1038300088000E944E1C109388000E944E1C10931A
:1038400088000E944E1C109388000E944E1C00931A
:1038500088000E944E1C009388000E944E1C4A95CE
:1038600031F70895109388000E944E1C04C0009305
:1038700088000E944E1C209388000E944E1C1093CA
:1038800088000E944E1C209388000E944E1C1093BA
:1038900088000E944E1C4A9551F70895B19BFECFB7
:1038A00030E830938200B19A08950093880080E058
:1038B0001F910F9108958EBD0DB407FEFDCF0895A1
:1038C0008FEF0E945B1C8EB50895FF920F931F939C
:1038D000CF93DF93C82FD42F152F062FF72E87FFF6
:1038E00009C040E050E0BA0187E70E94651C8230C1
:1038F00030F5CF772A9A0E94601C2A980E94601C9B
:103900008C2F0E945B1C8F2D0E945B1C802F0E94BD
:103910005B1C812F0E945B1C8D2F0E945B1C85E924
:10392000C03421F087E8C83409F081E00E945B1CB4
:10393000CAE00E94601C87FF02C0C150D1F7DF912E
:10394000CF911F910F91FF9008950F931F93CF93E5
:10395000DF93462F572FBC014115510561057105B5
:1039600001F18091930483FD07C089E0440F551F46
:10397000661F771F8A95D1F788E50E94651CC1E014
:1039800081110DC08FEF0E945B1C8EEF0E945B1CAB
:1039900080E092E09093920480939104C0E0D0E0A4
:1039A00012C0C0919104D0919204CE3F8FEFD807FE
:1039B00081F40E94601C8F718530E9F0C1E0D0E095
:1039C0002A9A0E94601CCE01DF91CF911F910F9126
:1039D000089580E00E945B1C2197E7CFCE010197FC
:1039E000F1F7015011090E94601C8F3F49F0011549
:1039F0001105A1F7E3CF08E813E1C0E9D1E0F3CF67
:103A0000C1E0012BE1F2C0E0DACFAF92BF92CF92DA
:103A1000DF92EF92FF920F931F93CF93DF9300D02B
:103A200000D0CDB7DEB780919304882339F01A997E
:103A300005C060E070E0CB010E94A51C2A9A229A82
:103A4000239A259A229A83E58CBD1DBC2A9A1AE0F6
:103A50000E94601C1150E1F740E050E0BA0180E4A0
:103A60000E94651C182F8130D9F01092930483E5D1
:103A70008CBD1DBC10E02A9A0E94601C81E01111CF
:103A800080E00F900F900F900F90DF91CF911F91DA
:103A90000F91FF90EF90DF90CF90BF90AF9008957F
:103AA0004AEA51E060E070E088E40E94651C8130E1
:103AB00009F04BC08E010F5F1F4F6E0185E0C80EED
:103AC000D11C78010E94601CF70181937F01EC15E5
:103AD000FD05C1F78B81813041F68C818A3A29F648
:103AE00020E1E22E27E2F22E30E9A32EBB24B3948C
:103AF00008C0C5010197F1F7F1E0EF1AF10809F4E8
:103B0000B4CF40E050E060E070E489EE0E94651CB4
:103B10008111EFCF40E050E0BA018AE70E94651CB6
:103B20008111A3CF0E94601CF80181938F01EC15D5
:103B3000FD05C1F7898114E086FD1CE01093930414
:103B400080E58CBD81E08DBD96CF40E050E0BA01AC
:103B500089EE0E94651C01E4823010F412E009EE47
:103B600080E1E82E87E2F82E90E9C92EDD24D39477
:103B700040E050E0BA01802F0E94651C81110AC00C
:103B800040E052E060E070E080E50E94651C811139
:103B90006CCFD4CFC6010197F1F7F1E0EF1AF1082D
:103BA00039F763CFAF92BF92CF92DF92EF92FF923D
:103BB0000F931F93CF93DF936C015901780180918C
:103BC000930483FD07C089E0440F551F661F771FCC
:103BD0008A95D1F781E50E94651C811108C0C0E477
:103BE000DCE90E94601C8F3F29F42197D1F7C1E0E6
:103BF000D0E01EC08E3FD9F7C2E0D2E0CE19DF0977
:103C0000CA19DB09A114B10411F5C114D10429F1B9
:103C10005601EFEFCE1ADE0A0E94601CF501808388
:103C2000F1E0EF1AF108A1F70E94601C2197E1F77B
:103C30002A9A0E94601CCE01DF91CF911F910F91B3
:103C4000FF90EF90DF90CF90BF90AF9008950E94CB
:103C5000601C81E0A81AB108D5CF0E94601C81E0E9
:103C6000E81AF108D1F7E0CFEF92FF920F931F937C
:103C7000CF93DF93EC018091930483FD07C089E02B
:103C8000440F551F661F771F8A95D1F781E50E9463
:103C9000651C882369F0C1E0D0E02A9A0E94601C6C
:103CA000CE01DF91CF911F910F91FF90EF9008957A
:103CB00000E41CE90E94601C8F3F21F401501109AF
:103CC000C9F7E9CF8E3F39F78E011E5F7E0121963D
:103CD0000E94601CF7018083C017D107B9F70E94CA
:103CE000601C0E94601CD0E0C0E0D7CFEF92FF9232
:103CF0000F931F93CF93DF93F82EE92E80919304B7
:103D000083FD07C089E0440F551F661F771F8A9502
:103D1000D1F788E50E94651C882369F0C1E0D0E0F6
:103D20002A9A0E94601CCE01DF91CF911F910F91C2
:103D3000FF90EF9008958FEF0E945B1C8EEF0E9422
:103D40005B1C00E012E01093900400938F040115B7
:103D5000110589F480E00E945B1C80E00E945B1CDE
:103D6000C4ECD9E00E94601C8F71853071F02097FF
:103D7000A9F22197F7CFCF2DDE2D89910E945B1CF0
:103D800001501109FC2EED2EDECFCD2B39F208E8C3
:103D900013E1C0E9D1E005C0CE010197F1F7015070
:103DA00011090E94601C8F3F21F001151105A1F738
:103DB000B5CFC1E0012B09F4B2CFC0E0B0CFCF93B3
:103DC000DF9300D000D0CDB7DEB7FC012081318178
:103DD00042815381CA01B9010F900F900F900F904B
:103DE000DF91CF910895CF93DF9300D000D0CDB76E
:103DF000DEB769837A838B839C83E0919404F0918E
:103E000095049B01AC012250310941095109868179
:103E10009781A085B1850297A109B10928173907B3
:103E20004A075B0718F5A281B0E00E948A2F6983D8
:103E30007A838B839C8382899389A489B58929811C
:103E40003A814B815C81280F391F4A1F5B1F2983F0
:103E50003A834B835C8369817A818B819C810F904B
:103E60000F900F900F90DF91CF91089519821A82D1
:103E70001B821C82F0CF0F931F93CF93DF9300D050
:103E800000D0CDB7DEB7FC01A0919404B0919504A9
:103E90008C918330E1F484899589B0E0A0E0DC0165
:103EA00099278827428D538D70E060E08A019B013D
:103EB000082B192B2A2B3B2BC901B8010F900F900F
:103EC0000F900F90DF91CF911F910F91089580E097
:103ED00090E0DC01E7CF0F931F93CF93DF93EC01CA
:103EE000E0919404F0919504198218826C817D818F
:103EF0008E819F81613071058105910581F1068177
:103F0000178120853185601771078207930738F57F
:103F1000611571058105910539F42081233021F463
:103F20006685778580899189688779878A879B8765
:103F3000611571058105910569F00E94F31E6C877A
:103F40007D878E879F8790E080E0DF91CF911F91E2
:103F50000F9108956685778580899189F0CF81E0FA
:103F600090E0F3CF4F925F926F927F92AF92BF92A9
:103F7000CF92DF92EF92FF920F931F93CF93DF9335
:103F8000CDB7DEB728970FB6F894DEBF0FBECDBF12
:103F90006B017C01A0909404B090950482E0C81657
:103FA000D104E104F10428F461E070E080E090E0E5
:103FB0005CC0F50186819781A085B185C816D906B8
:103FC000EA06FB0688F78081823009F463C08330FB
:103FD00009F47CC0813041F72B0156944794460E7A
:103FE000571E92013170452C55244694712C612C3A
:103FF0004285538564857585440D551D661D771D65
:1040000002E010E0CE0101962F3FF1E03F07D9F426
:1040100001E010E02FEF31E0CE0101960E94D21DA9
:10402000892B11F6F50142855385648575854F5FAF
:104030005F4F6F4F7F4F440D551D661D771D30E05C
:1040400020E0CE0102960E94D21D892B09F0ACCF50
:1040500069817A81C0FC02C07F7005C0E4E076957A
:104060006795EA95E1F790E080E028960FB6F8941E
:10407000DEBF0FBECDBFDF91CF911F910F91FF909B
:10408000EF90DF90CF90BF90AF907F906F905F9058
:104090004F9008959B013327220F331F77276F2DF1
:1040A0005E2D4D2D82859385A485B585480F591FBA
:1040B0006A1F7B1F02E010E0CE0101960E94D21D14
:1040C000892B09F071CF69817A81CDCF9B012F7740
:1040D0003327220F331F220F331FB701A60197E0AA
:1040E00076956795579547959A95D1F782859385EB
:1040F000A485B585480F591F6A1F7B1F04E010E097
:10410000CE0101960E94D21D892B09F04DCFCE0120
:1041100001960E94DF1E9F70A8CFCF92DF92EF9290
:10412000FF920F931F93CF93DF93CDB7DEB72A97FC
:104130000FB6F894DEBF0FBECDBF8D839E83E09097
:104140009404F0909504AD81BE810D911C910F5F98
:104150001F4F89F483E090E02A960FB6F894DEBFF3
:104160000FBECDBFDF91CF911F910F91FF90EF90C8
:10417000DF90CF900895ED81FE8184859585A68599
:10418000B7850097A105B10529F398012F70332752
:10419000232BC9F40196A11DB11D84879587A6879D
:1041A000B78780859185A285B38589839A83AB8300
:1041B000BC83892B8A2B8B2B69F4F7018481958131
:1041C0000817190738F6AD81BE810D931C9390E056
:1041D00080E0C2CFD70112968C918150990B980143
:1041E00044E0369527954A95E1F782239323892B5E
:1041F00051F769817A818B819C810E94B21F623064
:10420000710581059105E0F0F701C680D780E08453
:10421000F1846C157D058E059F0508F09BCFAD815F
:10422000BE8118966D937D938D939C931B970E94EE
:10423000F31EED81FE816487758786879787C3CFDC
:1042400081E090E089CFCF92DF92EF92FF920F93BF
:104250001F93CF93DF93EC016A017B0102E010E032
:104260002EEF31E00E94D21D892B31F58881998192
:1042700085359A4A59F526E330E0A601B701CE010B
:104280000E94D21D892B29F488819981863491441A
:1042900089F002E010E022E530E0A601B701CE018E
:1042A0000E94D21D892BA1F481E028813981263416
:1042B000314419F480E001C083E0DF91CF911F9178
:1042C0000F91FF90EF90DF90CF90089582E0F5CFAF
:1042D00081E0F3CFCF92DF92EF92FF920F931F9383
:1042E000CF93DF93EC017B01CA016C01DC012C91BF
:1042F00001962032D1F32F3209F46C011C821D8209
:104300001E821F82F6018081803208F062C0CE01D9
:104310000E946B1F9C01D7011C92C901DF91CF91B4
:104320001F910F91FF90EF90DF90CF900895C40EF2
:10433000D11C81E0913208F080E0F8018387CE0142
:104340000E946B1F9C01892B41F7288139812F70B6
:10435000332785E0220F331F8A95E1F74C855D8571
:104360006E857F8500E210E0C7010E94D21D9C018E
:10437000892B09F056C0D7018C91882309F454C0C9
:104380001B964C9143FD11C08A819B81BC01655FE6
:104390007F4FFC011E2D5F2D6E177F0769F0A12F47
:1043A000B52F1D915191151721F0CE010E948D203E
:1043B000C9CF1A2F5B2FF0CFFC0183858111ADCFC0
:1043C00044FF32C0C7010E943B1F6C837D838E83F4
:1043D0009F830A811B814BE050E060E270E0C801DE
:1043E0000E94C62F20E090E088E041E0490FF601EE
:1043F000E90FF11D9081913208F499CF9F3209F4B1
:1044000096CF9E32A1F0281708F091CFF801E20F65
:10441000F11D9083382F81E0820F282F942F832F56
:10442000E4CF21E030E079CF23E030E076CF883070
:1044300009F07DCF3BE0F1CF4F925F926F927F9278
:104440009F92AF92BF92CF92DF92EF92FF920F9323
:104450001F93CF93DF93CDB7DEB7E0970FB6F894F5
:10446000DEBF0FBECDBF5C01109295041092940484
:104470000E94051D02E010E080FD1FC040E050E0FA
:10448000BA019E012F5F3F4F3901C9010E942321CC
:10449000562C972CC12CD12C76018130B1F500E13E
:1044A00010E02EEB31E040E050E0BA01C3010E9481
:1044B000D21D892BC9F001E010E0C801E0960FB6CB
:1044C000F894DEBF0FBECDBFDF91CF911F910F914A
:1044D000FF90EF90DF90CF90BF90AF909F907F9034
:1044E0006F905F904F9008958D81811103C006E019
:1044F00010E0E3CFCE0109960E94DF1E6B017C0124
:10450000BC01A601C3010E9423218330A1F28111C5
:10451000EECF04E210E02DE030E0B701A601852DDA
:10452000992D0E94D21D8C01892B29F68A859B85A5
:104530009C0150E040E0892B31F4CE0148960E9466
:10454000DF1E9B01AC01AC81B0E00E948A2F69A7FD
:104550007AA78BA79CA78A819B819C0150E040E0B1
:104560002DA33EA34FA358A72C013A014C0C5D1C70
:104570006E1C7F1CD5011A964D925D926D927C92B5
:104580001D97998012969C921297ED80FE80159649
:10459000FC92EE9214978F8198859C0150E040E048
:1045A0002DA73EA74FA758AB892B41F4CE014496C7
:1045B0000E94DF1E6DA77EA78FA798AB84E0F694BC
:1045C000E7948A95E1F76701F12CE12C8DA19EA17A
:1045D000AFA1B8A58C0D9D1DAE1DBF1D29A53AA587
:1045E0004BA55CA5820F931FA41FB51F2DA53EA54B
:1045F0004FA558A9281B390B4A0B5B0B2DA33EA3D3
:104600004FA358A7292D30E050E040E06DA17EA1D6
:104610008FA198A50E94622FDA01C9010296A11DFF
:10462000B11DF50186839783A087B187265F3F4040
:10463000410951092F3F3F4E41055105E8F1873FA0
:104640002FEF9207A105B10528F183E0D5018C93E6
:10465000CE0180960E94DF1E462F572FBC01F50128
:1046600046875787608B718BC40CD51CE61CF71CE2
:1046700029A53AA54BA55CA5C20ED31EE41EF51EC6
:10468000C28AD38AE48AF58A1182B0929504A092F4
:10469000940413CF873F9F40A105B10508F027CFB1
:1046A00081E0D5018C9349A55AA56BA57CA5440D45
:1046B000551D661D771DD3CF873F9F4FA105B105BF
:1046C00020F682E0EECFEF92FF920F931F93CF93ED
:1046D000DF93CDB7DEB7EC970FB6F894DEBF0FBE11
:1046E000CDBFAC01E0909404F090950405E010E09B
:1046F000E114F10489F1D70111961C92CE01C19603
:104700009CA38BA3BE016F5F7F4F40970E946A21DD
:104710008C01892B09F58981882361F18C8584FDC1
:1047200029C0CE0101960E943B1FF701668F778F4B
:1047300080A391A3CE014D960E94DF1ED7015A9609
:104740006D937D938D939C935D97F701168A178ADD
:10475000108E118E81E08183C801EC960FB6F8941B
:10476000DEBF0FBECDBFDF91CF911F910F91FF90A4
:10477000EF90089503E010E0EFCF0F931F93CF93D6
:10478000DF93CDB7DEB7AC970FB6F894DEBF0FBEA0
:10479000CDBF8C01AB01809194049091950425E0EC
:1047A00030E0892B29F1CE018196D80113969C9394
:1047B0008E931297BE016F5F7F4FC8010E946A21DE
:1047C0009C01892BA9F48981882371F08C8523E0D1
:1047D00030E084FF0DC0CE0101960E943B1FF8011E
:1047E0006483758386839783C8010E946B1F9C0135
:1047F000C901AC960FB6F894DEBF0FBECDBFDF91F6
:10480000CF911F910F910895CF92DF92EF92FF9277
:104810000F931F93CF93DF93CDB7DEB7AC970FB64F
:10482000F894DEBF0FBECDBF7C016B018091940474
:104830009091950425E030E0892B81F0CE0181969E
:10484000D70113969C938E93129723E030E0672B49
:1048500009F043C0C7010E946B1F9C01C901AC96BF
:104860000FB6F894DEBF0FBECDBFDF91CF911F9181
:104870000F91FF90EF90DF90CF900895F701208186
:1048800031812F70332785E0220F331F8A95E1F79E
:1048900000E210E0CE0101960E94D21D892B09F0A2
:1048A00043C08981882309F442C09C85853E21F05C
:1048B0008E3211F093FF20C0C7010E948D209C0111
:1048C000892B59F0D7011C961D921D921D921C92A6
:1048D0001F972330310511F60FC0D7011C964D915B
:1048E0005D916D917C911F97411551056105710591
:1048F00029F62115310531F78601075F1F4FF701B2
:1049000084859585A685B785892B8A2B8B2B91F479
:10491000F8011082C7010E948D209C01039709F0C5
:104920009DCF30E020E09ACF21E030E0CBCF23E0F4
:1049300030E0C8CFDE01119696012F5E3F4F8D917A
:10494000803249F0853009F485EEF8018193E21751
:10495000F30771F589018985803281F0F8018EE2D3
:104960008193DE011996C80104968F012D912032A2
:1049700029F02193E817F907C1F78C018C85F6011E
:104980008087CE014D960E94DF1ED6016D937D93E8
:104990008D939C931397898D9A8D15969C938E93E6
:1049A00014978F89988D17969C938E931697B0CFF6
:1049B0008F01C5CFCF93DF9300D000D0CDB7DEB746
:1049C000E0919404F0919504868D978DA0A1B1A1FA
:1049D00089839A83AB83BC83BC01CD010F900F9078
:1049E0000F900F90DF91CF910C94F31ECF92DF9236
:1049F000EF92FF92CF93DF93C0919404D0919504EE
:104A0000CE8CDF8CE8A0F9A0C114D104E104F1043C
:104A100049F481E090E0DF91CF91FF90EF90DF903B
:104A2000CF900895A895C701B6010E94B21F462FE6
:104A3000572FBC018E819F81A885B98548175907DA
:104A40006A077B0720F040E050E060E070E08FEF05
:104A5000C81AD80AE80AF80AC416D506E606F70600
:104A600019F46A017B01D0CF81E0452B462B472BFF
:104A700089F280E0CFCF2F923F924F925F926F9258
:104A80007F928F929F92AF92BF92CF92DF92EF92DE
:104A9000FF920F931F93CF93DF9300D000D0CDB739
:104AA000DEB7782E692E69834B83122F502E670153
:104AB0000E94C525882309F187E0E82EE10EE694DF
:104AC000E694E6948B81580E812F8695869586957F
:104AD000882E912C312E98EF899F300C1124E9817A
:104AE000E95FEA83812F887FF981F80FFC832F2EFD
:104AF000230CF12C8B81851144C00F900F900F90E7
:104B00000F90DF91CF911F910F91FF90EF90DF9069
:104B1000CF90BF90AF909F908F907F906F905F905D
:104B20004F903F902F900895F501049122E04B8122
:104B3000642D872D962D0E944E2CFFEFAF1ABF0AD1
:104B400089818850898398E0490EE981E83060F7CF
:104B5000F601E80DF91D332071F0B490AC80B0FE81
:104B600006C04B816A2D872D962D0E94452CA3945B
:104B7000B694A210F4CFCE0CDF1CFB81FF5FFB8349
:104B8000B9CF560119834A80E0CF0F93FC01015041
:104B9000040F84A996A9941788F0081710F4041735
:104BA00078F42150260F83A995A9961758F0281755
:104BB00060F481E0261720F40F910895081778F724
:104BC00080E0FACF2817A8F7FBCF81E0F5CFDB0113
:104BD0001496ED91FC9130E020E061E00994DB0156
:104BE0001496ED91FC9130E020E063E00994DB0144
:104BF0001496ED91FC9130E020E040E064E00994EF
:104C0000DB011496ED91FC9130E020E041E064E09E
:104C10000994DB011496ED91FC9130E020E062E014
:104C20000994DB011496ED91FC9130E020E065E001
:104C30000994DB011496ED91FC9166E00994CF9202
:104C4000DF92EF92FF920F931F93CF93DF93F82E93
:104C5000E92ED62EC72E8A0180E0F801C491811179
:104C600011C081E0CF3F59F04C2F6D2D7C2D8F2D41
:104C70009E2D0E941126882309F43FC080E00F5F1B
:104C80001F4FEBCF4FEFCF3F81F3CE3FB9F1C03F86
:104C9000A8F7C03E48F04C2F4F706D2D7C2D8F2D06
:104CA0009E2D0E940926EACFC03D48F04C2F4F7040
:104CB0006D2D7C2D8F2D9E2D0E94EF25DFCFC03CCA
:104CC000B8F06D2D7C2D8F2D9E2D0E94F725C2955D
:104CD000C07FCE5FD0E0CE010E941A286D2D7C2DC2
:104CE0008F2D9E2D0E940026CE010E941A28C6CF2D
:104CF0008C2F90E0C7FFF9CFC1CF80E0DF91CF913B
:104D00001F910F91FF90EF90DF90CF900895CF9378
:104D1000DF93EC018BA5882389F088E70E943C276C
:104D2000811104C080E0DF91CF9108958EA181119F
:104D300007C00E947C278823A9F31BA681E0F3CF3C
:104D400080E4F7CF0F931F93CF93DF93FC01C62F1F
:104D5000D42F8901653081F148F4623009F449C0EB
:104D6000633011F16130B9F0C1E018C0663091F1E3
:104D70006730D1F70E948726882311F1DD23A1F344
:104D8000F80184910E947C27C82F882339F00F5F97
:104D90001F4FD150F3CF86A50E9402278C2FDF91A1
:104DA000CF911F910F91089516A281E083A7411121
:104DB000DBCF0E94A027D8CF0E948726811104C094
:104DC0000E94A027C0E0EACF8D2F0E947C2781118E
:104DD000CBCFF6CF0E948726882391F3DD2321F2E3
:104DE000F80181918F010E947C27882349F3D150DB
:104DF000F5CF46A381E083A7B7CF10929804109215
:104E000096040895809397041092B90084FF05C01A
:104E10008CE08093B8000C94FD2688E4FACFCF9301
:104E2000DF9300D0CDB7DEB720ED37E03A8329839A
:104E30009091BC009823961302C081E013C0298191
:104E40003A81232BA1F490919704892F827091FDD0
:104E5000F4CF90919804911105C091E0909398043B
:104E6000409396040F900F90DF91CF910895298180
:104E70003A8121503109DACFCF93C82F84EA809349
:104E8000BC0041E060E880E80E940F27811103C068
:104E900080E0CF9108959091B900987F983069F0A3
:104EA000903159F0809198048111F2CF92E0909363
:104EB000980491E090939604ECCFC093BB0084E8F3
:104EC0008093BC0042E060E880E80E940F278823BE
:104ED000F9F28091970481FD0DC08091B900887F1F
:104EE000883141F0809198048111D2CF92E0909363
:104EF0009804E0CF81E0CDCF8093BB0084E880931D
:104F0000BC0043E060E880E80E940F278823B9F0E6
:104F100090919704892F827091FD10C09091B900F3
:104F2000987F983259F090919804911108C092E0BE
:104F30009093980493E090939604089581E00895E7
:104F400084E98093BC0044E060E080E10C940F278A
:104F5000CF93DF9300D0CDB7DEB770E0660F771F39
:104F6000680F791F42E050E0CE0101960E94A42F05
:104F700089819A810F900F90DF91CF910895880FCA
:104F8000880F880F860F0895CF93C82F682F6695D6
:104F90006695669587E298E00E94A827FC018081CB
:104FA000C77021E030E001C0220FCA95EAF7822BDA
:104FB0008083CF910895CF93C82F682F669566950B
:104FC000669587E298E00E94A827FC012081C770BF
:104FD00081E090E001C0880FCA95EAF780958223AE
:104FE0008083CF910895CF93DF93C82FD62F682F5A
:104FF0006695669566958FE198E00E94A827FC016A
:10500000C77081E090E001C0880FCA95EAF7D1111E
:105010000AC09FB7F89420818095822380839FBF28
:10502000DF91CF9108952FB7F8949081892B8083D9
:105030002FBFF6CF9C014EE95FE02115310509F441
:105040000895CA010197F1F721503109F6CFAF92C7
:10505000BF92CF92DF92FF920F931F93CF93DF9374
:105060008C01EB01F42E590180E1481709F470C05E
:105070008417B8F0EAE04E1709F45FC0FFE04F175D
:1050800009F47AC095014F2DBE01C801DF91CF917F
:105090001F910F91FF90DF90CF90BF90AF900C9435
:1050A0000A2D81E1481709F464C0E5E14E13EACF07
:1050B000CA80DB8043E458E0C8010E941F26F60145
:1050C0004481440F406BBE01C8010E94112641E09B
:1050D000BE01C8010E940926F6012681378145815B
:1050E000BE01C8010E94192640E0BE01C8010E940D
:1050F000EF2543E458E0BE01C8010E941F26F601D7
:105100004481440F4F5F406BBE01C8010E941126CD
:1051100041E0BE01C8010E940926F60145812681B1
:105120003781240F311DBE01C8010E94192640E0BD
:10513000BE01C8010E94EF25A5CF42E0C8010E9430
:10514000E7254BE458E0BE01C8010E941F269ACF14
:105150004AE358E0BE01C8010E941F2681E0DF91AA
:10516000CF911F910F91FF90DF90CF90BF90AF90A4
:1051700008954FE258E0EECF41E0C8010E94EF25CC
:1051800040E0BE01C8010E94092641E8BE01C801F5
:105190000E941126F5014081BE01C8010E9411261E
:1051A00040E0BE01C8010E94EF25D8CFFC01E60F08
:1051B000F11D849190E0982F88273196E4918E0F0D
:1051C000911D0895FC01849108950E94E2288D7F2D
:1051D00011F486E0089583E0089580E00895FC01CD
:1051E000808D8F5F089566E00C94D62868E00C945B
:1051F000D6280A96FC01849108950B96FC018491AF
:1052000008959F92AF92BF92CF92DF92EF92FF925A
:105210000F931F93CF93DF938C01C62EDC0114965E
:10522000ED90FC90C7010E94E228C82FC7010E94A0
:10523000E528982E2FE0A22EC13011F0AA24AA94BE
:10524000C7010E94F928D82EC7010E94FD28B82E58
:10525000C7010E94F628EC01B0E6BC1530F5892B99
:1052600021F1CE0DDF1D91E6D92EBC1478F5D801C1
:1052700050961C92509753961C92539754961C929A
:10528000549751961C92519752961C92D0E0C0E0D0
:10529000CE01DF91CF911F910F91FF90EF90DF90A2
:1052A000CF90BF90AF909F900895C7010E94F328C0
:1052B000EC01E0E4EC1538F4892B29F0CE0DDF1D6C
:1052C00081E4D82ED2CFE7016196CFCFBD1478F21A
:1052D000892D90E0FE0124912F3F29F42196DB14C3
:1052E00031F2D394F7CFDC1045C0C7010E94E22809
:1052F0009E012F5F3F4F8D7FFE01D9F48491D8012D
:1053000053968C935397F901249154962C93549768
:105310003296E4915096EC935097FE013496E491C6
:105320005196EC935197FE013596E4915296EC9389
:10533000AFCF8491982F9F709250D80152969C9332
:10534000529782958F7051968C935197F9012491C1
:10535000822F8F7054968C93549722952F7053966A
:105360002C935397FE013296E491E295EF7050969C
:10537000EC938ECF3296E491EA219C012E0F311DE1
:10538000C20FD31FACCF6F927F928F929F92AF923A
:10539000BF92CF92DF92EF92FF920F931F93CF9322
:1053A000DF93EC01762E142F622F0E9401296C01ED
:1053B00080E0C114D104B1F08C819D810E94E52868
:1053C000B82EFB88EC888989780E1E198A89181BEB
:1053D0000E2D2F2D412F672DCE010E94C525811145
:1053E00010C08889DF91CF911F910F91FF90EF90AE
:1053F000DF90CF90BF90AF909F908F907F906F90F5
:105400000895CB0CD11C87E0F80EF694F694F69430
:10541000E10E8F2C912C1E1521F3672C56010DC027
:10542000F501049120E0412F662DCE010E944E2C03
:10543000FFEFAF1ABF0A88E0680E8A2D8C198F150E
:1054400078F3C80CD91C1F5FE6CFCF92DF92EF92A2
:10545000FF920F931F93CF93DF93EC01162FD42E5F
:10546000C22E032FED89FE890995D80EEC2CF02E63
:1054700000E0F70121917F0121110AC0802FDF9107
:10548000CF911F910F91FF90EF90DF90CF900895F3
:105490004D2D612FCE010E94C329180F080FE9CFAF
:1054A000DF92EF92FF920F931F93CF93DF937C01D4
:1054B000162FD42EE901DC015596ED91FC9109954A
:1054C000D80E00E0FE012491222349F04D2D612FDA
:1054D000C7010E94C329180F080F2196F3CF802F10
:1054E000DF91CF911F910F91FF90EF90DF90089582
:1054F000DC0114962D913C9115972115310541F150
:1055000057968C915797F901811123C03596849154
:10551000245F3F4FF901249158968C9358975996E0
:105520002C935997E82F880FFF0BE21BF10927FDF9
:10553000F3955A968C915A97803441F0E89FF00188
:10554000112486E0F695E7958A95E1F75B96EC9352
:105550000895813029F43F968491205F3F4FDACF40
:105560003D968491225F3F4FD5CFFC01178A0C9462
:10557000782A2DEE38E2FC01368B258B08952FEE2C
:1055800038E2FC01368B258B0895FF920F931F9311
:10559000CF93DF93EC018B01F12CF80161918F0126
:1055A000662331F0CE010E9401298889F80EF5CFDB
:1055B0008F2DDF91CF911F910F91FF900895FF9252
:1055C0000F931F93CF93DF938C01EB01F12CFE011E
:1055D0006491662341F0C8010E940129F801808985
:1055E000F80E2196F4CF8F2DDF91CF911F910F915F
:1055F000FF900895CF93DF93EC012C813D81261716
:10560000370741F07D836C830E94782A8DEE98E203
:105610009E8B8D8BDF91CF9108951F93CF93DF9356
:10562000EC011D821C821F821E82198611E01887E0
:1056300082E28A871F861E864EE050E06FEF70E0A0
:10564000CE0183960E94C62F18A3CE010E94B92ACC
:105650001F8B188E198E80E48A8F1B8E8DE49FE23B
:105660009AAB89ABDF91CF911F910895DB01ED914A
:10567000FC9109940F931F93CF93DF93EC018B015F
:10568000E9A9FAA982E0099530E020E04AE0B801F2
:10569000CE010E94362B182FE9A9FAA983E00995BB
:1056A000E9A9FAA980E00995812FDF91CF911F9197
:1056B0000F9108950F931F93CF93DF93EC018B010C
:1056C000E9A9FAA982E00995E9A9FAA981E0099571
:1056D00030E020E044E1B801CE010E94362B9E016B
:1056E0002D5C3F4F47E1B801CE010E94362BE9A95E
:1056F000FAA980E0DF91CF911F910F910994FF9259
:105700000F931F93CF93DF93EC01F62E072FE9A998
:10571000FAA982E00995E9A9FAA981E0099530E0A2
:1057200020E045E16F2D702FCE010E94362B182FFF
:10573000882349F09E012D5C3F4F47E16F2D702F6C
:10574000CE010E94362BE9A9FAA980E00995812FA4
:10575000DF91CF911F910F91FF900895FC01448F2D
:10576000258F9C01245E3F4F42E30C94362BCF9350
:10577000DF930F92CDB7DEB79E012F5F3F4F46E418
:105780000E94362B89810F90DF91CF910895CF939E
:10579000DF930F92CDB7DEB79E012F5F3F4F47E4F7
:1057A0000E94362B89810F90DF91CF91089530E0D0
:1057B00020E048E40C94362BCF93DF93EC016A8110
:1057C0007B810E94B72B88836A817B81CE010E94F6
:1057D000C72B89836A817B81CE010E94D72B8B875F
:1057E0009E012D5C3F4F6A817B8147E1CE01DF91B5
:1057F000CF910C94362BCF93DF93EC016A817B81A0
:105800000E943A2B882321F0CE010E94DC2B81E0FC
:10581000DF91CF910895FF920F931F93CF93DF9362
:10582000EC01F62E072F142F0E940D2BFA820B830A
:105830001EA7CE01DF91CF911F910F91FF900C9485
:10584000FB2BFC01628173810C945A2BCF93DF9365
:10585000EC01EE85FF85309709F009956A817B811F
:10586000CE01DF91CF910C947F2BFC01628173817B
:1058700030E020E040E10C94362BFC016281738122
:1058800030E020E041E10C94362BFC01862F242FE0
:1058900062817381482FCF010C94AE2B0F93FC01D2
:1058A00082819381648F458F278F068F9F01245EAD
:1058B0003F4F4BE3BC01CF010F910C94362BFC0101
:1058C0008385883221F0823021F483E008958FEFC0
:1058D000089581E00895CF93DF93EC018B858033A9
:1058E00031F48FEF88A389A3DF91CF910895CE0182
:1058F0000E945F2C88A3F8CFFC0110A20895FC0140
:10590000128280818150838314820895FC018081FA
:105910009281980F92832181921760F494819F5F06
:1059200094839381890F821710F08FEF820F838306
:1059300081E0089580E00895FC01458150E0440F26
:10594000551F70E060E0868197810C94C62FFC01A2
:10595000868197813281431B342F483020F0458166
:10596000840F911D377041E050E001C0440F3A951B
:10597000EAF7FC01E60FF11D8081222319F0842B48
:105980008083089540958423FBCFFC01DB011196B1
:105990004C9111978281481760F08381841748F0F9
:1059A0006C918581681728F414962C91CF010C9482
:1059B000A72C0895DF92EF92FF920F931F93CF933E
:1059C000DF93082FF92EEB011A812B81E12CD12CCA
:1059D000243048F430E0F901EB5CFE4FD0802F5CBE
:1059E0003E4FF901E08017FF05C0BE01802F9F2DBB
:1059F0000E94C52C28812D0D288329812E0D2983F5
:105A0000110F89F7DF91CF911F910F91FF90EF90C8
:105A1000DF9008950F931F93CF93DF938901FB01CC
:105A2000C281D3814233F1F060F4453139F147311D
:105A300071F14431E1F081E0DF91CF911F910F913D
:105A40000895463449F1473459F14B33A1F7B90170
:105A5000CE010E94772D882371F3B801CE010E94F8
:105A6000DA2CE9CFB901CE010E94C52CE4CFCE01DA
:105A70000E949C2CCE010E947F2CDDCFCE010E9483
:105A8000862C8823C9F2CE010E949C2CD4CFB90168
:105A9000CE010E94672DCFCF8D81F8018083CBCFBF
:105AA0008981FBCFFC0191E08381861708F490E0A7
:105AB00021E0461708F020E081E03281431708F426
:105AC00080E0392F322B83239223892B0895DC0128
:105AD000FB01108212968C911297818315968C91FE
