:100000000C94BB060C94E3060C94E3060C94950B3D
:100010000C94E3060C94E3060C94E3060C94E306BC
:100020000C94E3060C94BE0B0C94E3060C94E306CC
:100030000C94E3060C94E3060C94E3060C94E3069C
:100040000C94E3060C94E3060C94E3060C94E3068C
:100050000C94E3060C94E3060C94E3060C94E3067C
:100060000C94E3060C94E3060C94E3060C94E3066C
:100070000C94E3060C94E3060C94E3060C94E3065C
:100080000C94E3060C94E3060C94E3060C94E3064C
:100090000C94E3060C94E3060C94E3060C94E3063C
:1000A0000C94E3060C94E3060C94E3064E6F6E2D5D
:1000B000636F6E746967756F75732066696C650030
:1000C00046696C65206F70656E206661696C656459
:1000D000004552524F520047656F6D65747279202A
:1000E0003E2066696C6500496E636F6D70617420B7
:1000F00067656F6D6574727900556E7265636F67C1
:100100006E697A656420696D616765004E6F742061
:10011000666F756E640052656164205344206661A9
:10012000696C6564004552524F520057726974659C
:10013000205344206661696C6564005265616420E7
:100140005344206661696C6564004552524F520009
:100150004E6F206469736B00000000000800001CF3
:1001600000001C0000360000360000630000630041
:10017000004B0080C90080DD00C09C01C09C014094
:100180001C016008036008033008063008061800E8
:100190000C18000C18180C0C18180C0018FEFF3F57
:1001A000FEFF3F000000000000FFFF1F0100308144
:1001B000FF60819F40819F40819F40819F4081FFE0
:1001C00040010040F1FF47F1FF47F1FF4771F04761
:1001D00071E747716F4671674671F04771E7477184
:1001E000EF4771EF47716F46717046F1FF47F1FFBE
:1001F00047F5FF57010040FFFF7FFFFF1F01003061
:1002000081FF60819F40819F40819F40819F40810D
:10021000FF40010040F1FF47F1FF47F1FB47F1F9D3
:1002200047F1F147F17446F1764671E64771E647CA
:1002300031E04731EF47914F46914F46F1FF47F18B
:10024000FF47F5FF57010040FFFF7FFFFFFFFFFF64
:100250000001000000800101C0FFFF010301C0FF99
:1002600083010601C0FF83010C01C0FF8301180157
:10027000C0FF83013001C0FF83012001C0FF830163
:100280002001C0FF83012001C0FF83012001C0FFC6
:1002900083012001C0FFFF012001000000002001B8
:1002A000000000002001000000002001000000000C
:1002B00020010000000020C1FFFFFF7F20C1FFFFE1
:1002C000FF7F20C1FFFFFF7F20C1FFFFFF7F20C115
:1002D000FFFFFF7F20C1FFFFFF7F20C1FFFFFF7FE8
:1002E00020C1FFFFFF7F20C1FFFFFF7F20C180F102
:1002F000C87320C18071C87320C1FC61C87320C15C
:10030000FC61C87320C1FC69C97320C18069C973CD
:1003100020C18069C97320C1FC09C97320C1FC09CF
:10032000C97320C1FC89897120C10099197820C145
:100330000099397C20C1FFFFFF7F20C1FFFFFF7FB5
:1003400020C1FFFFFF7F20C1FFFFFF7F20C1FFFF14
:10035000FF7F20C1FFFFFF7F20C1FFFFFF7F20C184
:10036000FFFFFF7F20C1FFFFFF7F20C1FFFFFF7F57
:1003700020C1FFFFFF7F200D000000002C0D0000BA
:1003800000002C010000000020FFFFFFFFFF3F46A0
:100390004444454D55004C6F6164696E6720004EC2
:1003A0006F206469736B00425553590A00456C65B0
:1003B0006B74726F6E696B6369004163656D690090
:1003C000286329203230323100000021104220639E
:1003D000308440A550C660E770088129914AA16B1E
:1003E000B18CC1ADD1CEE1EFF131121002733252B6
:1003F00022B5529442F772D662399318837BB35A6E
:10040000A3BDD39CC3FFF3DEE36224433420040185
:1004100014E664C774A44485546AA54BB5288509BD
:1004200095EEE5CFF5ACC58DD55336722611163055
:1004300006D776F6669556B4465BB77AA71997380D
:1004400087DFF7FEE79DD7BCC7C448E5588668A795
:10045000784008611802282338CCC9EDD98EE9AF5D
:10046000F9488969990AA92BB9F55AD44AB77A96F5
:100470006A711A500A333A122AFDDBDCCBBFFB9EAD
:10048000EB799B588B3BBB1AABA66C877CE44CC5C5
:100490005C222C033C600C411CAEED8FFDECCDCDFD
:1004A000DD2AAD0BBD688D499D977EB66ED55EF495
:1004B0004E133E322E511E700E9FFFBEEFDDDFFC4D
:1004C000CF1BBF3AAF599F788F8891A981CAB1EBF2
:1004D000A10CD12DC14EF16FE18010A100C230E31B
:1004E000200450254046706760B9839893FBA3DAD7
:1004F000B33DC31CD37FE35EF3B1029012F322D26B
:10050000323542145277625672EAB5CBA5A8958966
:10051000856EF54FE52CD50DC5E234C324A01481BA
:10052000046674476424540544DBA7FAB79987B876
:10053000975FE77EF71DC73CD7D326F2369106B00A
:100540001657667676154634564CD96DC90EF92F76
:10055000E9C899E9898AB9ABA9445865480678275A
:1005600068C018E1088238A3287DCB5CDB3FEB1E16
:10057000FBF98BD89BBBAB9ABB754A545A376A16AA
:100580007AF10AD01AB32A923A2EFD0FED6CDD4DA6
:10059000CDAABD8BADE89DC98D267C076C645C45FA
:1005A0004CA23C832CE01CC10C1FEF3EFF5DCF7CB6
:1005B000DF9BAFBABFD98FF89F176E367E554E744A
:1005C0005E932EB23ED10EF01E0000250028002BB7
:1005D000002E0031000000240027002A002D0030EA
:1005E00000FFE0FFD1AFFF32FFD0FFFEFFE0FFD101
:1005F000AEFFD0FFFEFFE0FFD11000FFFEFFD0FFF7
:10060000E0FFC1FFD1AED580A83FD300408D1420BC
:1006100002A1C8DA1281CFD9F1DB402EA4A6AFFF28
:10062000D0FFFE01060A00FE070136026820FFFE29
:1006300008FE07FE0A006022176780808080800025
:1006400080163363A0A0A00257675050F850F850AE
:10065000500257672070A07028702002576748A882
:10066000502050A89002576740A0A040A89068264C
:100670001363808080123767204080808040201282
:100680003767804020202040800355658850F8500F
:10069000880355652020F8202011336360408005D1
:1006A0005161F811336340E0400257670808102099
:1006B0004080800257672050888888502002576702
:1006C0002060A0202020F802576770880830408002
:1006D000F8025767F8081030088870025767103022
:1006E0005090F81010025767F880B0C80888700260
:1006F0005767304080B0C88870025767F8081010FC
:100700002040400257677088887088887002576759
:100710007088986808106011376740E0400040E03A
:100720004011376740E0400060408012476710206A
:100730004080402010045363F800F812476780405F
:10074000201020408002576770881020200020026F
:100750005767708898A8B0807002576720508888C3
:10076000F88888025767F04848704848F002576791
:1007700070888080808870025767F04848484848F1
:10078000F0025767F88080F08080F8025767F880A1
:1007900080F080808002576770888080988870021F
:1007A0005767888888F8888888123767E040404013
:1007B0004040E002576738101010109060025767F1
:1007C0008890A0C0A0908802576780808080808039
:1007D000F80257678888D8A8888888025767888869
:1007E000C8A89888880257677088888888887002A7
:1007F0005767F08888F08080800158687088888802
:1008000088A87008025767F08888F0A0908802577F
:100810006770888070088870025767F82020202051
:1008200020200257678888888888887002576788E0
:10083000888850505020025767888888A8A8D88890
:1008400002576788885020508888025767888850E8
:1008500020202020025767F80810204080F8123727
:1008600067E08080808080E00257678080402010B1
:100870000808123767E02020202020E0065363207C
:100880005088015161F82822628040025565700845
:100890007888780257678080B0C888C8B0025565EC
:1008A000708880887002576708086898889868027E
:1008B00055657088F88070025767304840F04040B6
:1008C000400057677888887808887002576780806A
:1008D000B0C88888881237674000C0404040E010A8
:1008E00049691000301010109090600257678080A6
:1008F0008890E09088123767C04040404040E00256
:100900005565D0A8A8A888025565B0C8888888020F
:1009100055657088888870005767B0C888C8B080EF
:100920008000576768988898680808025565B0C8BD
:1009300080808002556570807008F00257674040E3
:10094000F0404048300255658888889868025565AF
:1009500088885050200255658888A8A8500255659F
:1009600088502050880057678888986808887002E7
:100970005565F8102040F8124767304020C02040ED
:100980003022176780808080808080124767C02077
:1009900040304020C006536348A890FFFFFFFFFF90
:1009A000FFFFFFFFFFFFFFFFFFFFFFFFFFFFFFFF57
:1009B000FFFFFFFFFFFFFFFFFFFFFFFF0A006022B7
:1009C0001767800080808080800157672078A0A012
:1009D000A07820025767304840E04048B002556593
:1009E000887050708801586888885020F82020202E
:1009F000221767808080008080800158687080E0C6
:100A00009048380870193161A00257677088A8C8EB
:100A1000A888701346667090B05000F00265652497
:100A200048904824144262F010154161F002576763
:100A30007088E8C8C88870095161F816336340A00F
:100A4000400256662020F82020F815456560902069
:100A500040F0154565E0106010E0282262408001FA
:100A60005666888888C8B08002576778E8E86828A2
:100A7000282825116180202262408015356540C0FC
:100A80004040E01346666090906000F0026565901B
:100A90004824489001696940C04040E40C143C047B
:100AA00001696940C04040E81404081C015969C04C
:100AB000204020C8182878080257672000202040CE
:100AC00088700258684020708888F88888025868C2
:100AD0001020708888F888880258682050708888AC
:100AE000F8888802586848B0708888F88888025862
:100AF000685000708888F88888025868205070888C
:100B000088F888880267673C50909CF0909C005958
:100B10006970888080808870204002586840F88022
:100B200080F08080F802586810F88080F08080F8AB
:100B300002586820F88080F08080F802586850F8E9
:100B40008080F08080F81238688040E0404040406B
:100B5000E01238682040E040404040E012386840F1
:100B6000A0E040404040E0123868A000E040404033
:100B700040E0025767F04848E84848F002586828C3
:100B80005088C8A89888880258684020708888884B
:100B900088700258681020708888888870025868A9
:100BA000205070888888887002586828507088881B
:100BB000888870025868500070888888887002554C
:100BC000658850205088025767709898A8C8C870E8
:100BD00002586840208888888888700258681020E9
:100BE000888888888870025868205000888888889B
:100BF0007002586850008888888888700258681089
:100C00002088885020202002576780F088F080805C
:100C100080025767708890A09088B0025868402082
:100C2000007008788878025868102000700878886A
:100C30007802586820500070087888780258682830
:100C400050007008788878025767500070087888DC
:100C50007802586820502070087888780265657896
:100C6000147C907C00576770888088702040025800
:100C7000684020007088F88070025868102000706A
:100C800088F880700258682050007088F8807002E0
:100C9000576750007088F88070123868804000C034
:100CA000404040E0123868408000C0404040E012C0
:100CB000386840A000C0404040E0123767A000C044
:100CC000404040E0025767C0307088888870025802
:100CD00068285000B0C88888880258684020007092
:100CE0008888887002586810200070888888700290
:100CF0005868205000708888887002586828500012
:100D000070888888700257675000708888887003E0
:100D100055652000F800200255657898A8C8F002B3
:100D20005868402000888888986802586810200019
:100D30008888889868025868205000888888986851
:100D40000257675000888888986800596910208881
:100D500088986808887000586880F0888888F080D3
:100D60008000596950008888986808887000631767
:100D700076177C17801711241FBECFEFDAE0DEBF95
:100D8000CDBF11E0A0E0B1E0E0E2FDE602C00590D9
:100D90000D92AA32B107D9F725E0AAE2B1E001C06D
:100DA0001D92A435B207E1F716E0CBEBD6E004C004
:100DB0002197FE010E94A035C73BD107C9F70E94C9
:100DC00084170C9429360C940000E4E6F0E080814E
:100DD0008E7F8083ACE7B0E080E48C93EAE7F0E0BC
:100DE00087E8808382E48C93808180648083089587
:100DF000E4E6F0E080818E7F808380E480937C0055
:100E000087E880937A0008956F70606460937C0037
:100E1000EAE7F0E080818064808308958091780023
:100E200090917900089580917A0086FD29C0809183
:100E300078009091790022E420937C0020917A0040
:100E4000206420937A00853823E0920748F02091AF
:100E5000000186E0209301018093000180E0089565
:100E60003091010120910001AC01405253404634C1
:100E7000510540F485E0363069F7253059F718C040
:100E800080E0089548535F4F4C335105A0F048531C
:100E90005F4F42335105A8F04E525F4F4832510523
:100EA000B0F0892BE1F481E03630A1F6213091F6E3
:100EB00020930101089584E0363061F6243051F624
:100EC000F7CF83E0363031F6233021F6F1CF82E0E0
:100ED000363009F0BFCF223009F0BCCFE9CF87E030
:100EE000B9CFAF92BF92CF92DF92EF92FF920F9362
:100EF0001F93CF93DF93EC010E9484229C018E010B
:100F00000F5A1F4FF8019183808380E0232B59F003
:100F1000DF91CF911F910F91FF90EF90DF90CF90D5
:100F2000BF90AF90089581E0319780837E01F3E513
:100F3000EF0EF11CF701118210826E01F0E4CF0E6A
:100F4000D11C66E171E0C6010E942C249C01F801CD
:100F500091838083892BA9F023703327232B11F4ED
:100F600081E0D6CFCE010E9471078823C9F366E1E4
:100F700071E0C6010E942C24F80191838083892BA3
:100F800079F75E01FAE2AF0EB11CB501C6010E940D
:100F90001D25F80191838083892B11F78BA9882364
:100FA000F9F28AA984FDF1CFA895F701808191819A
:100FB000019691838083E9CFAF92BF92CF92DF9267
:100FC000EF92FF920F931F93CF93DF93EC017C017D
:100FD00080E5E80EF11CF7011082CE010E94842208
:100FE0008E010F5A1F4FF80191838083892B59F08E
:100FF000DF91CF911F910F91FF90EF90DF90CF90F5
:10100000BF90AF90089581E0F70180837E01F3E502
:10101000EF0EF11CF701118210826E01F0E4CF0E89
:10102000D11C66E171E0C6010E942C249C01F801EC
:1010300091838083892B99F023703327232BC1F26E
:10104000CE010E947107882399F266E171E0C60122
:101050000E942C24F80191838083892B49F65E013C
:10106000FAE2AF0EB11CB501C6010E941D25F801C0
:1010700091838083892B09F0BBCF8BA9882309F446
:10108000B7CF8AA984FDEFCFA895F7018081918120
:10109000019691838083E7CF0895AF92BF92CF925C
:1010A000DF92EF92FF920F931F93CF93DF93EC01A8
:1010B0005B018C010D5A1F4FF801118210827C01D7
:1010C000F0E4EF0EF11CC7010E942C249C016E017C
:1010D00081E5C80ED11CF60131832083211531052D
:1010E000F9F023703327232B69F490E080E0DF913F
:1010F000CF911F910F91FF90EF90DF90CF90BF9015
:10110000AF900895CE010E947107882371F3B50155
:10111000C7010E942C24F60191838083892B29F733
:101120005E01FAE2AF0EB11CB501C7010E941D2598
:10113000F60191838083892B71F48BA9882359F060
:101140008AA984FDF1CFA895F8018081918101964B
:1011500091838083E9CFF80180819181C8CFCF92BC
:10116000DF92EF92FF920F931F93CF93DF93EC01E7
:101170008B017C0180E4E80EF11CC7010E942C2445
:101180009C016E01E1E5CE0ED11CF60191838083B6
:1011900081E02115310529F023703327232B51F4E9
:1011A00080E0DF91CF911F910F91FF90EF90DF9042
:1011B000CF900895CE010E947107882389F3B8016A
:1011C000C7010E942C249C01F6019183808381E059
:1011D000232B39F3E5CFCF93DF93EC01BC01665DA0
:1011E0007F4F805C9F4F0E941D25FE01EF5AFF4FED
:1011F00091838083892B39F481E09BA9992319F08D
:10120000DF91CF91089580E0DF91CF910895CF9243
:10121000DF92EF92FF920F931F93CF93DF93EC0136
:101220006C018AE2C80ED11C7E01E0E4EE0EF11CD6
:101230008E010F5A1F4FB601C7010E941D25F801EC
:1012400091838083892B41F48BA9882329F08AA973
:1012500084FDF1CF81E001C080E0DF91CF911F914B
:101260000F91FF90EF90DF90CF9008956F927F9253
:101270008F929F92AF92BF92CF92DF92EF92FF92A6
:101280000F931F93CF93DF93EC013B01D42EC52E18
:101290007C0180E4E80EF11CC7010E942C249C0113
:1012A0008E010F5A1F4FF80191838083892B09F417
:1012B00040C023703327232B81F480E0DF91CF914E
:1012C0001F910F91FF90EF90DF90CF90BF90AF9064
:1012D0009F908F907F906F900895CE010E948422FE
:1012E000F80191838083892B41F781E0FE01E05B67
:1012F000FF4F80835E01F3E5AF0EB11CF501118253
:10130000108266E171E0C7010E942C249C01F80163
:1013100091838083892BE1F123703327232B49F5B7
:10132000B301C7010E942C24F80191838083892B8B
:1013300021F65E01FAE2AF0EB11C4E0183E3880E86
:10134000911CB501C7010E941D25F801918380837E
:10135000892B09F0B2CF8BA9882309F4AECFA895C9
:101360006D2D7C2DC4010E94EB35892B51F781E056
:10137000A5CFCE010E947107882391F266E171E04A
:10138000C7010E942C24F80191838083892B41F6A8
:101390004E01FAE28F0E911CB401C7010E941D2577
:1013A000F80191838083892B09F0BACF8BA9882318
:1013B00009F4B6CF8AA984FDEFCFA895F501808105
:1013C0009181019691838083E7CFCF93DF93EC01E6
:1013D000C3960E94BF23CF5ADF4F99838883892BFE
:1013E000B1F40E944028892B21F0DF91CF910C9419
:1013F000FA274CEA50E061ED70E081E494E00E944D
:101400005F1760E070E0CB01DF91CF91089540EC71
:1014100050E061ED70E081E494E00E945F1760E0CD
:1014200070E0CB01DF91CF9108954F925F926F9260
:101430007F92BF92CF92DF92EF92FF920F931F9312
:10144000CF93DF93CDB7DEB762970FB6F894DEBFC8
:101450000FBECDBF7C01B62EC72EDC018C9181FD65
:1014600092C04B2D5C2D67E171E08BE291E00E9410
:101470003609D82E882309F47DC08BE291E00E94C2
:10148000E509AB01BC01D70113964C931397149651
:101490005C93149715968C93159716967C931697D4
:1014A00080915D0180FD62C002E110E026E330E042
:1014B000CE0101960E947B1D892B09F0DFC0898136
:1014C000863409F482C00091550110915601209193
:1014D000570130915801F9E03695279517950795F2
:1014E000FA95D1F70036B9E01B0709F4BEC080F1C8
:1014F00000348BE0180709F45FC00038164109F08A
:10150000C7C080E5F701818384E28283D701179603
:101510008DE0EB2DFC2D01900D928A95E1F7D7011E
:101520008C9182608C938D2D62960FB6F894DEBFFD
:101530000FBECDBFDF91CF911F910F91FF90EF9024
:10154000DF90CF90BF907F906F905F904F90089505
:10155000003DF2E01F0751F1003A154009F098C034
:1015600080E5F701818389E08283D0CF8C9184600C
:101570008C939ACF4CE051E065E271E081E494E015
:101580000E945F17D0CFF701138214821582168252
:101590008DE03796DF011D928A95E9F780E5F70126
:1015A000818382E1828381E080835BCF88E2F701DF
:1015B000818389E08283AACF80E5D70111968C933D
:1015C000119782E112968C93A1CF8A81813409F020
:1015D0007ACF8B81843509F076CF8C81813309F005
:1015E00072CFD70113964D915D916D917C911697B5
:1015F00002E110E02BE030E0CE0101960E947B1D5D
:1016000089819A818115924009F04CC08889998915
:1016100003970CF047C02E853F852F3F310511F011
:101620000CF040C089859A852C01712C612C409169
:101630005501509156016091570170915801E9E0B0
:101640007695679557954795EA95D1F744155505D1
:101650006605770588F1F70122833327B901660F04
:10166000771F0E946A35618351CF80E5D7011196BB
:101670008C9311978FE012968C9348CF46E151E0FE
:1016800065E271E081E494E00E945F17D12C4BCFBA
:1016900049EF50E065E271E081E494E00E945F1759
:1016A000D12C41CF47EE50E065E271E081E494E057
:1016B0000E945F17D12C37CF47ED50E065E271E013
:1016C00081E494E00E945F17D12C2DCFCF93DF935C
:1016D000FC011382148215821682DC0117968DE0BC
:1016E000ED0119928A95E9F780E5818382E1828391
:1016F00081E08083DF91CF910895CF93DF93FC0148
:101700001382148215821682DC0117968DE0ED019A
:1017100019928A95E9F780E5818382E1828381E0ED
:101720008083DF91CF91089508958F938FB78F9322
:101730009F934A990FC04B9917C080919601909141
:10174000970101969093970180939601909397014A
:1017500080939601809195018068809395019F9177
:101760008F918FBF8F9118958091960190919701DD
:1017700001979093970180939601E8CF8F938FB74D
:101780008F931E9902C01C9B09C0809195018C7F8C
:10179000809395018F918FBF8F91189580919501BE
:1017A0008160809395018F918FBF8F9118951092D2
:1017B000980184B18F7884B93E988AB183748AB9CC
:1017C0006E9880B38F7A80BB2D985F9881B38F7AA3
:1017D00081BB85B1806585B9469A8BB18C618BB927
:1017E000769AE9E6F0E080818F7C80838081806258
:1017F0008083EA9A80E580936B00E8E6F0E08081E0
:101800008160808381E08093980178940895CF93DC
:10181000DF93EC0180919801882329F080E18C8B83
:10182000DF91CF9108950E94D70B80E18C8BDF91DF
:10183000CF910895CF93DF93EC010E947D0B8091AF
:101840009801882329F080E18C8BDF91CF91089556
:101850000E94D70B80E18C8BDF91CF9108950F937D
:101860001F93CF93DF9300D000D0CDB7DEB78C01AC
:10187000FC0187818823E9F183E480939F01109222
:10188000A00181814AE0BE016F5F7F4F90E00E941E
:10189000F435BE016F5F7F4F8FE991E00E94E03524
:1018A000EFE9F1E001900020E9F7319788E492E355
:1018B0009183808383E590E093838283F801828122
:1018C0004AE0BE016F5F7F4F90E00E94F435BE0199
:1018D0006F5F7F4F8FE991E00E94E0358FE991E0E3
:1018E0000F900F900F900F90DF91CF911F910F915C
:1018F000089560E571E08FE991E00E94D235EECF66
:10190000CF93DF93FC01AB018081C1E0D0E081FD8A
:1019100004C0CE01DF91CF910895052E000C660B17
:10192000770B83819481A581B681480F591F6A1F67
:101930007B1F8CEA91E00E94EC1DEC01892B49F39E
:101940004BE351E06AE471E081E494E00E945F17A8
:10195000CE01DF91CF910895CF93DF93FC01AB01CE
:101960008081C1E0D0E081FD04C0CE01DF91CF9144
:101970000895052E000C660B770B83819481A58159
:10198000B681480F591F6A1F7B1F8CEA91E00E94A5
:10199000371EEC01892B49F34BE251E06AE471E018
:1019A00081E494E00E945F17CE01DF91CF9108950A
:1019B000CF93DF93EC010E94150A882329F09A81C6
:1019C0009A3028F090E19C8BDF91CF91089590E2BE
:1019D0009C8BDF91CF910895FF920F931F93CF932C
:1019E000DF93EC01888180FF07C0869A8881982F59
:1019F0009A7011F08E7F888382FF29C1559A0E94C8
:101A0000ED1780919501837009F4DEC011E0EBEFD2
:101A1000FE2E0EE4579A8C890E94841A57981092D1
:101A20009B018A81811141C0CAC020919D013091E2
:101A30009E01220F331F280F311DA901440F551F8E
:101A4000440F551F440F551F420F531F440F551F7E
:101A500080919B01480F511D50939A014093990129
:101A6000888181FD66C00E94ED1740919B016091C5
:101A70009C0180919D010E9427188C890E94151B52
:101A8000809196019091970120919D0130919E0146
:101A90002817390709F469C080919B018F5F8093F3
:101AA0009B019A81891708F08AC080919501837003
:101AB00009F485C0A89580919501837009F47FC0D1
:101AC00086B186FB882780F9812780939C019091BD
:101AD000950197FFAACF809195018F77809395010B
:101AE000809196019091970190939E0180939D0122
:101AF00097FD72C0298130E08217930734F0C90145
:101B0000019790939E0180939D01892B09F468C0F1
:101B1000849880919D0190919E019093970180936C
:101B2000960188818A7009F45DC0869880919C0135
:101B30007CCF052E000C660B770B8B819C81AD81D1
:101B4000BE81480F591F6A1F7B1F8CEA91E00E94DB
:101B5000EC1D892B09F487CF4BE351E06AE471E077
:101B600081E494E00E945F177ECF84E190E002C0A0
:101B7000019711F07E99FCCF7E9B38C0F092AB01AB
:101B800061E072E08BEA91E00E94CB1798278927E9
:101B900098279093AD038093AC030093AE0344E089
:101BA00052E06BEA71E08C890E94AA1980919B0136
:101BB0008F5F80939B019A81891708F476CF80917B
:101BC0009501837009F026CF86985598DF91CF91C3
:101BD0001F910F91FF90089510929E0110929D0108
:101BE000849A97CF869A80919C011FCF0E941418E7
:101BF00043E052E06BEA71E08C890E947F18A8955F
:101C00000E94ED174091990150919A01888181FDC0
:101C100003C0369BFECF40CF052E000C660B770B22
:101C20008B819C81AD81BE81480F591F6A1F7B1F2C
:101C30008CEA91E00E94371E892B59F34BE251E068
:101C40006AE471E081E494E00E945F17E2CF559866
:101C5000D6CE2F923F924F925F926F927F928F9249
:101C60009F92AF92BF92CF92DF92EF92FF920F932B
:101C70001F93CF93DF9300D00F92CDB7DEB76C01E7
:101C80000E94A92FF601208C818D281AF081F983FA
:101C9000460123E4820E911CF401808118160CF099
:101CA00050C0F9816F2E712C10E0312CB12CA12C79
:101CB000C6018E5B9F4F2C0113C02A813B81412FAF
:101CC0006E2DC6010E944F2F3394A32CB12C120D00
:101CD000F4018081082E000C990BA816B9068CF52A
:101CE0002DE02A9DF0012B9DF00D1124EC5BFF4FA0
:101CF000EC0DFD1DFB83EA83BF01C6010E94E82FA6
:101D00007301E81AF108F7FE03C0C70101967C01D0
:101D1000F594E794C6010E94E731F2018081082E14
:101D2000000C990B8A159B0541F641E0410F022DED
:101D3000298160E0C6010E949734C6010E94FA31F1
:101D4000BCCFC6010F900F900F90DF91CF911F91E4
:101D50000F91FF90EF90DF90CF90BF90AF909F904A
:101D60008F907F906F905F904F903F902F900C944A
:101D7000E731CF92DF92EF92FF920F931F93CF93B1
:101D8000DF936C01FC01C0810E94E731F60183AD55
:101D90002AEFE22E21E0F22E0BE127E143E061E0A1
:101DA00080FF4FC0C6010E946D290DE129E142E08C
:101DB00060E0C6010E942C3326EE2C0F42E06AE15F
:101DC000C6010E949734C6010E94FA31C751DD0B4B
:101DD00067E871E0C6010E94E82FBE01681B710927
:101DE00077FF02C06F5F7F4F759567957727695EB4
:101DF0007F4F27E831E044E0C6010E944F2F80E882
:101E000091E00E942F0C8C01BC01C6010E94E82FBA
:101E1000BE01681B710977FF02C06F5F7F4F759528
:101E200067957727695E7F4F980141E1C601DF9191
:101E3000CF911F910F91FF90EF90DF90CF900C9476
:101E40004F2FC6010E946D29C1CFAF92BF92CF9292
:101E5000DF92EF92FF920F931F93CF93DF93EC01EA
:101E60006881C62ED12C66E973E00E940C305601C1
:101E7000A81AB108B7FE03C0C50101965C01B5946C
:101E8000A7948BAD80FD4CC081FD38C026E933E0BE
:101E900040E26A2DCE010E947E2F5E0192E4A90EDF
:101EA000B11CF50180811DE0BE018102600D711D34
:101EB00011246C5B7F4FCE010E94E82FF5019081C9
:101EC0009E019102200D311D11242C5B3F4FB60164
:101ED000681B710977FF02C06F5F7F4F759567952B
:101EE0004FE2CE01DF91CF911F910F91FF90EF90C4
:101EF000DF90CF90BF90AF900C944F2FB6016751F9
:101F0000710977FD22C07595679529EAE22E21E0D7
:101F1000F22E0BE127E140E0CE010E946D29B6CF01
:101F2000B6016751710977FD07C0759567954AEF4E
:101F3000E42E41E0F42EEDCF6F5F7F4F75956795EE
:101F40004AEFE42E41E0F42EE4CF6F5F7F4FDBCF0A
:101F5000AF92BF92CF92DF92EF92FF920F931F93B7
:101F6000CF93DF93EC016881C62ED12C67EA73E032
:101F70000E940C305601A81AB108B7FE03C0C50173
:101F800001965C01B594A7948BAD80FD4CC081FD9A
:101F900038C027EA33E040E26A2DCE010E947E2F4E
:101FA0008BAD83708150990B15E1189FB001199F7B
:101FB000700D112469577E4FCE010E94E82F4BAD62
:101FC00043704150550B149F9001159F300D112403
:101FD00029573E4FB601681B710977FF02C06F5F3A
:101FE0007F4F759567954FE2CE01DF91CF911F919D
:101FF0000F91FF90EF90DF90CF90BF90AF900C9437
:102000004F2FB6016751710977FD22C0759567950D
:1020100029EAE22E21E0F22E0BE127E140E0CE0199
:102020000E946D29B6CFB6016751710977FD07C0CF
:10203000759567954AEFE42E41E0F42EEDCF6F5F82
:102040007F4F759567954AEFE42E41E0F42EE4CF7B
:102050006F5F7F4FDBCFCF92DF92EF92FF920F93B4
:102060001F93CF93DF93EC01C880D12C6CAD7DAD75
:102070000E940C30182FB6016751710977FF02C01A
:102080006F5F7F4F7595679538E5E32E31E0F32E4E
:102090000BE127E140E0CE010E946D292CAD3DAD62
:1020A000B601611B710977FF02C06F5F7F4F7595A5
:1020B000679540E2CE010E947E2F6EAD7FADCE01CE
:1020C0000E940C302EAD3FADB601681B710977FF41
:1020D00002C06F5F7F4F759567954FE2CE01DF912C
:1020E000CF911F910F91FF90EF90DF90CF900C94C4
:1020F0007E2FCF92DF92EF92FF920F931F93CF9399
:10210000DF936C01FC01C081CE52DD0B60EC73E00B
:102110000E940C30182F3BE4E32E32E0F32E06E34E
:102120002EE245E061E0C6010E946D29BE01611BFF
:10213000710977FF02C06F5F7F4F759567957727AD
:10214000625D7F4F20EC33E04AE0C6010E947E2FA3
:102150006AEB73E0C6010E940C30BE01681B710976
:1021600077FF02C06F5F7F4F759567957727625D38
:102170007F4F2AEB33E049E1C6010E947E2F6DEAD2
:1021800073E0C6010E940C30C81BD109D7FD21960F
:10219000BE01759567957727625D7F4F2DEA33E025
:1021A00048E2C601DF91CF911F910F91FF90EF9010
:1021B000DF90CF900C947E2FCF93DF93D82FC92F31
:1021C00065E082E00E949D2C0E94CA2C65E082E0BE
:1021D0000E949D2C61E00E94F32C65E082E00E9449
:1021E0009D2C0E94A22C64E082E00E949D2C0E9403
:1021F000CA2C64E082E00E949D2C61E00E94F32CD6
:1022000064E082E00E949D2C0E94A22C40E062E0EB
:1022100071E08D2F9C2F0E94E4308D2F9C2F0E9407
:10222000513563E276E08D2F9C2F0E942A308D2F4E
:102230009C2FDF91CF910C94E22FCF93DF93EC0191
:102240000E94DC1084E189AF8FEF88AFFE01EE5B66
:10225000FF4F108285E08AAFDF91CF910895FC0196
:1022600092AD9330C1F038F4913079F0923051F45E
:10227000CF010C94290E943059F0953019F4CF0108
:102280000C947910CF010C94B90ECF010C942B1043
:10229000CF010C94A80FCF010C94250FCF93DF939F
:1022A000EC018FA981112CC088AD882349F189AD3B
:1022B00081113BC0CE010E9435310CC0813069F1E3
:1022C000823019F5CE010E94290ECE010E945F31A5
:1022D000882381F08AAD8330E1F080F3843009F106
:1022E000853099F4CE010E947910CE010E945F31B1
:1022F0008111F0CF88AD815088AF8823F1F08FA98C
:102300008F5F8FABDF91CF910895CE010E94B90E00
:10231000DCCFCE010E94250FD8CFCE010E942B101A
:10232000D4CFCE010E94A80FD0CF815089AF9FEFAC
:1023300098AF8111BFCF1AAEBDCFCE010E949531AB
:102340008FA9DECFCF93DF93EC016AAF88AD8823EE
:1023500029F08FEF88AFDF91CF910895CE010E94D1
:10236000A4311BAE1AAE88AD882359F08FEF88AF29
:102370001FAACE010E944E118FEF88AFDF91CF913F
:102380000895CE010E94A4311BAE1AAE88AD8823F9
:1023900039F08FEF88AF1FAACE010E944E11E6CF11
:1023A000CE010E94A4311BAE60E0CE010E94A211BA
:1023B0001FAACE010E944E11ECCFCF93DF93EC0108
:1023C00083E08AAF88AD8823D1F18FEF88AF1FAA51
:1023D00089AD882329F0815089AF882309F45DC035
:1023E000CE010E9435310CC08130C1F1823019F527
:1023F000CE010E94290ECE010E945F31882381F018
:102400008AAD833099F180F3843061F1853099F49D
:10241000CE010E947910CE010E945F318111F0CF70
:1024200088AD815088AF882329F18FA98F5F8FAB4A
:10243000DF91CF910895CE010E94B90EDCCFCE017D
:102440000E94A4311BAE1AAE88AD8823B9F08FEF7D
:1024500088AF1FAACE010E944E11B7CFCE010E94B5
:102460002B10C9CFCE010E94A80FC5CFCE010E946C
:10247000250FC1CFCE010E949531D7CFCE010E944A
:10248000A4311BAE1AAE88AD882349F08FEF88AF18
:102490001FAACE010E944E11DACF1AAEA1CFCE01F3
:1024A0000E94A4311BAE1AAE88AD882339F08FEF9D
:1024B00088AF1FAACE010E944E11E8CFCE010E9424
:1024C000A4311BAE1AAE88AD882339F08FEF88AFE8
:1024D0001FAACE010E944E11EACFCE010E94A43164
:1024E0001BAE1AAE88AD882339F08FEF88AF1FAAD4
:1024F000CE010E944E11EACFCE010E94A4311BAE44
:102500001AAE88AD882339F08FEF88AF1FAACE01AD
:102510000E944E11EACFCE010E94A4311BAE60E0B2
:10252000CE010E94A2111FAACE010E944E11ECCF33
:10253000CF93DF93EC011BAE1AAE88AD8823D1F1A7
:102540008FEF88AF1FAA89AD882329F0815089AF0A
:10255000882309F45DC0CE010E9435310CC0813062
:10256000C1F1823019F5CE010E94290ECE010E94E0
:102570005F31882381F08AAD833099F180F3843014
:1025800061F1853099F4CE010E947910CE010E944C
:102590005F318111F0CF88AD815088AF882329F158
:1025A0008FA98F5F8FABDF91CF910895CE010E94ED
:1025B000B90EDCCFCE010E94A4311BAE1AAE88AD9D
:1025C0008823B9F08FEF88AF1FAACE010E944E1169
:1025D000B7CFCE010E942B10C9CFCE010E94A80F09
:1025E000C5CFCE010E94250FC1CFCE010E949531EB
:1025F000D7CFCE010E94A4311BAE1AAE88AD88237E
:1026000049F08FEF88AF1FAACE010E944E11DACF9A
:102610001AAEA1CFCE010E94A4311BAE1AAE88AD76
:10262000882339F08FEF88AF1FAACE010E944E1188
:10263000E8CFCE010E94A4311BAE1AAE88AD88232C
:1026400039F08FEF88AF1FAACE010E944E11EACF5A
:10265000CE010E94A4311BAE1AAE88AD882339F09A
:102660008FEF88AF1FAACE010E944E11EACFCE0194
:102670000E94A4311BAE1AAE88AD882339F08FEFCB
:1026800088AF1FAACE010E944E11EACFCE010E9450
:10269000A4311BAE60E0CE010E94A2111FAACE01A0
:1026A0000E944E11ECCFCF93DF93EC017DAF6CAF66
:1026B0005FAF4EAF81E08AAF88AD8823A1F18FEF85
:1026C00088AF1FAA83E189AFCE010E9435310CC0CB
:1026D0008130E1F1823019F5CE010E94290ECE0140
:1026E0000E945F31882381F08AAD833099F180F3B5
:1026F000843041F1853099F4CE010E947910CE01E9
:102700000E945F318111F0CF88AD815088AF88235E
:1027100029F18FA98F5F8FABDF91CF910895CE0103
:102720000E94B90EDCCFCE010E94A4311BAE1AAEBE
:1027300088AD8823B9F08FEF88AF1FAACE010E9421
:102740004E11BDCFCE010E94A80FC9CFCE010E946D
:102750002B10C5CFCE010E94250FC1CFCE010E9404
:102760009531D7CFCE010E94A4311BAE1AAE88ADF1
:10277000882339F08FEF88AF1FAACE010E944E1137
:10278000DACFCE010E94A4311BAE1AAE88AD8823E9
:1027900039F08FEF88AF1FAACE010E944E11EACF09
:1027A000CE010E94A4311BAE1AAE88AD882339F049
:1027B0008FEF88AF1FAACE010E944E11EACFCE0143
:1027C0000E94A4311BAE1AAE88AD882339F08FEF7A
:1027D00088AF1FAACE010E944E11EACFCE010E94FF
:1027E000A4311BAE1AAE88AD882339F08FEF88AFC5
:1027F0001FAACE010E944E11EACFCE010E94A43141
:102800001BAE1AAE88AD882339F08FEF88AF1FAAB0
:10281000CE010E944E11EACFCE010E94A4311BAE20
:102820001AAE88AD882339F08FEF88AF1FAACE018A
:102830000E944E11EACFCE010E94A4311BAE60E08F
:10284000CE010E94A2111FAACE010E944E11ECCF10
:10285000CF93DF93EC0163706BAF84E08AAF88ADF8
:102860008823D1F18FEF88AF1FAA89AD882329F083
:10287000815089AF882309F45DC0CE010E943531B3
:102880000CC08130C1F1823019F5CE010E94290EB1
:10289000CE010E945F31882381F08AAD833099F1A7
:1028A00080F3843061F1853099F4CE010E94791073
:1028B000CE010E945F318111F0CF88AD815088AF89
:1028C000882329F18FA98F5F8FABDF91CF91089576
:1028D000CE010E94B90EDCCFCE010E94A4311BAE06
:1028E0001AAE88AD8823B9F08FEF88AF1FAACE014A
:1028F0000E944E11B7CFCE010E942B10C9CFCE013E
:102900000E94A80FC5CFCE010E94250FC1CFCE01D6
:102910000E949531D7CFCE010E94A4311BAE1AAED2
:1029200088AD882349F08FEF88AF1FAACE010E949F
:102930004E11DACF1AAEA1CFCE010E94A4311BAE48
:102940001AAE88AD882339F08FEF88AF1FAACE0169
:102950000E944E11E8CFCE010E94A4311BAE1AAEE8
:1029600088AD882339F08FEF88AF1FAACE010E946F
:102970004E11EACFCE010E94A4311BAE1AAE88AD33
:10298000882339F08FEF88AF1FAACE010E944E1125
:10299000EACFCE010E94A4311BAE1AAE88AD8823C7
:1029A00039F08FEF88AF1FAACE010E944E11EACFF7
:1029B000CE010E94A4311BAE1AAE88AD882339F037
:1029C0008FEF88AF1FAACE010E944E11EACFCE0131
:1029D0000E94A4311BAE1AAE88AD882339F08FEF68
:1029E00088AF1FAACE010E944E11EACFCE010E94ED
:1029F000A4311BAE60E0CE010E94A2111FAACE013D
:102A00000E944E11ECCFCF92DF92EF92FF920F9384
:102A10001F93CF93DF938C017C0123E4E20EF11C22
:102A200086E0D7018C9380917E0190917F01853063
:102A300091050CF075C0482F8F5F8C93F801EE5B09
:102A4000FF4F90816801B0E4CB0ED11CD6012D91CF
:102A50003C91119797FD6EC098170CF064C080915F
:102A60007E0190917F01AC01445051092417350734
:102A70000CF450C00597D6018D939C9368E171E0EA
:102A80008BE291E00E94AF08D6018D919C91D0E03D
:102A9000C0E0181619065CF48BE291E00E94070969
:102AA0002196D6018D919C91C817D907ACF3F701F7
:102AB0008081C0E0DDE01816CCF48BE291E00E944A
:102AC0000709D801CD02A00DB11D1124AC5BBF4F89
:102AD0008823A9F08DE0EEE5F1E001900D928A9552
:102AE000E1F7CF5FF7018081C8173CF3DF91CF9109
:102AF0001F910F91FF90EF90DF90CF9008956FE9B5
:102B000073E0CD010E94D235CF5FD7018C91C817F9
:102B1000A4F2ECCF37FFB2CFF60111821082AECF14
:102B200045E086E08BCF40832F5F3F4FF601318336
:102B3000208395CF1082215031092D933C938FCF64
:102B40000F931F93CF93DF938C01C62F1616C4F4F7
:102B5000FC0180AD882391F18FEFF80180AFC33085
:102B600009F444C0C4308CF0C43009F465C0C530E9
:102B700039F482AD811104C023AD237009F0BDC0CA
:102B8000DF91CF911F910F910895C130D9F1C230DB
:102B9000B9F782AD811158C083AD837089F3EE5BC4
:102BA000FF4F1082329711821082F801C2AFC80124
:102BB000DF91CF911F910F910C94031512AEC801B4
:102BC0000E94A431F80113AE12AE80AD882309F43F
:102BD00083C08FEFF80180AF17AAC8010E944E1181
:102BE0008FEFF80180AFC33009F0BCCF82AD811107
:102BF0006AC083AD8370823009F0C2CF81E0F801F2
:102C000083AFBECF82AD823009F494C08111B8CFBA
:102C100023AD237009F4B4CF2150330B85E1829F9B
:102C2000E001839FD00D1124C058DE4FCE010E94D9
:102C3000660B80E18C8BA4CF82AD81113BC083AD4C
:102C4000837009F09DCFDACF823009F099CF83E00D
:102C500082AF17AAC8010E944E11F801EE5BFF4F28
:102C60008081E801FDE08F02C00DD11D1124CC5BF5
:102C7000DF4F6FE873E0CE010E94C935F80123AD44
:102C800023702150330B45E1892B09F077C0429F17
:102C9000C001439F900D112480589E4F0E94940BB9
:102CA000F80112AE80AD882309F476C08FEFF801E9
:102CB00080AF66CF823009F063CFEE5BFF4F80813B
:102CC0008F5F808374CF823009F05ACFEE5BFF4F65
:102CD0008081815080836BCFC8010E94A431F801AC
:102CE00013AE12AE80AD882339F18FEFF80180AFBB
:102CF00017AAC8010E944E116CCF2150330B45E139
:102D0000429FC001439F900D112480589E4F0E9406
:102D1000940BF80113AE12AE80AD8823F1F08FEF63
:102D2000F80180AF17AAC801DF91CF911F910F91D1
:102D30000C944E1112AE24CFC8010E94A431F801A8
:102D400013AE12AE80AD8823C1F18FEFF80180AFD2
:102D500017AAC8010E944E11C8CFC8010E94A43111
:102D6000F80113AE12AE80AD8823C1F18FEFF801E8
:102D700080AF17AAC8010E944E11D1CF429FC00157
:102D8000439F900D1124BE0180589E4F0E94D80C85
:102D9000882309F4F5CE84CFC8010E94A431F8013C
:102DA00013AE12AE80AD882351F18FEFF80180AFE2
:102DB00017AAC8010E944E1179CFC8010E94A43100
:102DC000F80113AE12AE80AD882351F18FEFF801F8
:102DD00080AF17AAC8010E944E11B7CFC8010E9448
:102DE000A431F80113AE12AE80AD882351F18FEFFC
:102DF000F80180AF17AAC8010E944E11B7CFC801D1
:102E00000E94A431F80113AE12AE80AD882341F1C7
:102E10008FEFF80180AF17AAC8010E944E11C5CFED
:102E2000C8010E94A431F80113AE12AE80AD882310
:102E300031F18FEFF80180AF17AAC8010E944E113F
:102E4000C5CFC8010E94A431F80113AE60E0C801EB
:102E50000E94A211F80117AAC8010E944E11C7CF03
:102E6000C8010E94A431F80113AE60E0C8010E94BD
:102E7000A211F80117AAC8010E944E11C9CFC801BA
:102E80000E94A431F80113AE12AE80AD882341F048
:102E90008FEFF80180AF17AAC8010E944E11C9CF69
:102EA000C8010E94A431F80113AE60E0C8010E947D
:102EB000A211F80117AAC8010E944E11E9CF8FEAAA
:102EC00093E00C945313E4E6F0E080818E7F8083DE
:102ED000ACE7B0E080E48C93EAE7F0E087E8808339
:102EE00082E48C93808180648083089510927B01BA
:102EF0008BE291E00C94710780E891E00C941A0C3D
:102F00008FEA93E00C941D1188E199E20FB6F894D2
:102F1000A895809360000FBE9093600080917B0124
:102F2000811132C0C5E111C080917A0086FD09C0CF
:102F30008AE291E00E941307682F8FEA93E00E94D3
:102F4000A0158FEA93E00E944E11A89580919501FB
:102F5000837051F36091950163708FEA93E00E9452
:102F600028142091950123702150330BC29FC0017A
:102F7000C39F900D112480589E4F0E94EC0C8FEA45
:102F800093E00E949812D0CF69E171E080E891E06F
:102F90000E94D80CC7CF9C01CB0118161906D4F497
:102FA000B901680F791F84EB9DECD9012F5F3F4F6A
:102FB000E92FFF274C91E427EE0FFF1FE753FC4F4B
:102FC00045915491982F88278427952726173707EE
:102FD00061F7089584EB9DEC0895CF93DF93A1E80A
:102FE000B0E091E09C932598E0E8F0E080EC8083ED
:102FF000C2E8D0E08881806888831082259A96BBD9
:103000008C9188608C93109285001092840080E2ED
:1030100090E0909389008093880082E086BB80E4F2
:103020008083DF91CF9108951092850010928400E3
:1030300081E286BB1092800081E080938100109233
:103040008200EEE6F0E080818E7F80830895A2E426
:10305000B4E09EEF9C9311968C93119712966C930B
:1030600012974F5F13964C93139792E014969C938C
:103070001497EFE2F4E02591349194EB3927E32F94
:10308000FF27E827EE0FFF1FE753FC4F8591949130
:10309000322F222782279327E92FFF27E627EE0FDB
:1030A000FF1FE753FC4F25913491982F882728273D
:1030B0003927E32FFF27E427EE0FFF1FE753FC4FCD
:1030C00085919491322F222782279327E92FFF277A
:1030D00022E0E227EE0FFF1FE753FC4F25913491CA
:1030E000982F882728273927322723273227169613
:1030F0003C932E9315978EE417968C930895FF9228
:103100000F931F93FB01DA011197082F0695080F03
:10311000080F102F180F80E0F82EB09A40E0B09BF7
:1031200005C0B09AFA9411F483E010C14395B59BA1
:10313000FECF30918600B59A632F621B232F601754
:1031400070F3611758F7403548F3B59BFECF3091C7
:103150008600B59A632F621B232F611708F4DECF18
:10316000B59BFECF30918600B59A632F621B232F4B
:10317000061708F4611708F0D1CFB59BFECF309148
:103180008600B59A632F621B232F611708F4C6CF00
:10319000B59BFECF30918600B59A632F621B232F1B
:1031A000061708F4611708F0B9CFB59BFECF309130
:1031B0008600B59A632F621B232F601708F0AECFED
:1031C000B59BFECF30918600B59A632F621B232FEB
:1031D000611708F4A3CFB59BFECF30918600B59A56
:1031E000632F621B232F061708F4611708F096CF90
:1031F000B59BFECF30918600B59A632F621B232FBB
:10320000611708F48BCFB59BFECF30918600B59A3D
:10321000632F621B232F061708F4611708F07ECF77
:10322000B59BFECF30918600B59A632F621B232F8A
:10323000601708F073CFB59BFECF30918600B59A2A
:10324000632F621B232F611708F468CFB59BFECF55
:1032500030918600B59A632F621B232F061708F45E
:10326000611708F05BCFB59BFECF30918600B59A11
:10327000632F621B232F611708F450CFB59BFECF3D
:1032800030918600B59A632F621B232F061708F42E
:10329000611708F043CFBB230AF458C058E0B59B30
:1032A000FECF30918600B59A632F621B232F6017E3
:1032B000F0F0611798F0440F5A9529F4419358E0C3
:1032C000A150B04052F0440F41605A9529F4419307
:1032D00058E0A150B0400AF0E2CF38C0440F5A95F0
:1032E00029F4419358E0A150B040BAF30AC0440F0A
:1032F00041605A9529F4419358E0A150B0406AF3D7
:10330000CECFB59BFECF30918600B59A632F621B5E
:10331000232F601790F0440F5A9529F4419358E0F9
:10332000A150B0409AF0440F41605A9529F441935E
:1033300058E0A150B04052F0B2CF440F5A9529F452
:10334000419358E0A150B0400AF0DBCF1F910F919C
:10335000FF9008950F931F93DA01FB01082F080FC8
:103360000A95102F180F212F280F40E0409384005A
:1033700040E600938800B19BFECF30E83093820096
:10338000B19A4A95B1F710938800B19BFECF30E80F
:1033900030938200B19A20938800B19BFECF30E831
:1033A00030938200B19A10938800B19BFECF30E831
:1033B00030938200B19A20938800B19BFECF30E811
:1033C00030938200B19A10938800B19BFECF30E811
:1033D00030938200B19A00938800B19BFECF30E811
:1033E00030938200B19A20938800B19BFECF30E8E1
:1033F00030938200B19A10938800B19BFECF30E8E1
:1034000030938200B19A20938800B19BFECF30E8C0
:1034100030938200B19A10938800B19BFECF30E8C0
:1034200030938200B19A00938800B19BFECF30E8C0
:1034300030938200B19A20938800B19BFECF30E890
:1034400030938200B19A10938800B19BFECF30E890
:1034500030938200B19A20938800B19BFECF30E870
:1034600030938200B19A10938800B19BFECF30E870
:1034700030938200B19A0093880050E05A952AF464
:10348000A150B0409AF1419157E0441F30F0309183
:103490008800380F3093880009C0B19BFECF30E818
:1034A00030938200B19A00938800E8CF5A952AF4AD
:1034B000A150B040DAF0419157E0441F48F0B19B71
:1034C000FECF30E830938200B19A00938800EECFAF
:1034D00030918800380F30938800B19BFECF30E8E0
:1034E00030938200B19A00938800C8CFB19BFECF81
:1034F00030E830938200B19A90E0909389008093F5
:1035000088001F910F9108950F931F93082F080FA4
:103510000A95102F180F212F280F48E30E94D11A67
:10352000109388000E94081B4FE50E94CA1A43E0CE
:10353000109388000E94081B04C0209388000E94FA
:10354000081B009388000E94081B109388000E94AB
:10355000081B209388000E94081B109388000E947B
:10356000081B4A9551F7209388000E94081B45E0EC
:103570000E94CA1A109388000E94081B41E300931E
:1035800088000E94081B0E94D51A109388000E9490
:10359000081B45C0009388000E94081B4A95D1F77C
:1035A0000895109388000E94081B109388000E94C1
:1035B000081B109388000E94081B109388000E942B
:1035C000081B009388000E94081B009388000E943B
:1035D000081B4A9531F70895109388000E94081B34
:1035E00004C0009388000E94081B209388000E945A
:1035F000081B109388000E94081B209388000E94DB
:10360000081B109388000E94081B4A9551F70895E3
:10361000B19BFECF30E830938200B19A08950093B9
:10362000880080E01F910F9108950F931F93E2E4AB
:10363000F4E0082F080F0A95102F180F212F280FDC
:10364000109388000E94C21B40E50E94841B42E048
:103650000E94A61B009388000E94C21B2093880032
:103660000E94C21B109388000E94C21B20938800F6
:103670000E94C21B10938800B19BFECF30E83093AC
:103680008200B19A0093880050E0A8E05A9522F495
:10369000A15092F1419157E0441F30F030918800E1
:1036A000380F3093880009C0B19BFECF30E83093CB
:1036B0008200B19A00938800E9CF5A9522F4A15074
:1036C000DAF0419157E0441F48F0B19BFECF30E85B
:1036D00030938200B19A00938800EFCF3091880038
:1036E000380F30938800B19BFECF30E830938200D2
:1036F000B19A00938800CACF45E10E948B1B1093BA
:1037000088000E94081B45C0009388000E94C21BCD
:103710004A95D1F70895109388000E94C21B109318
:1037200088000E94C21B109388000E94C21B109345
:1037300088000E94C21B009388000E94C21B009355
:1037400088000E94C21B4A9531F7089510938800A3
:103750000E94C21B04C0009388000E94C21B2093D9
:1037600088000E94C21B109388000E94C21B2093F5
:1037700088000E94C21B109388000E94C21B4A95B9
:1037800051F70895B19BFECF30E830938200B19A93
:1037900008950093880080E01F910F910895CF92C3
:1037A000DF92EF92FF92CF93C82F6A017B0187FDD2
:1037B0004AC02A9A8FEF8EBD0DB407FEFDCF8EB59D
:1037C0002A988FEF8EBD0DB407FEFDCF8EB5CEBD0E
:1037D0000DB407FEFDCF8F2D9927AA27BB278EBDDD
:1037E0000DB407FEFDCFC701AA27BB278EBD0DB4C0
:1037F00007FEFDCFBB27AF2D9E2D8D2D8EBD0DB4A9
:1038000007FEFDCFCEBC0DB407FEFDCF85E9C03469
:1038100019F087E8C834A9F48EBD0DB407FEFDCFBA
:103820009AE02FEF2EBD0DB407FEFDCF8EB587FFBA
:1038300002C09150B9F7CF91FF90EF90DF90CF90F9
:10384000089581E0E9CF40E050E0BA0187E70E94A7
:10385000CF1B823080F7CF77ACCF462F572FBC01DC
:10386000411551056105710519F180914E0483FDE3
:1038700007C089E0440F551F661F771F8A95D1F74F
:1038800088E50E94CF1B811135C08FEF8EBD0DB42E
:1038900007FEFDCF8EEF8EBD0DB407FEFDCF80E09D
:1038A00092E090934D0480934C0480E090E0089562
:1038B00020914C0430914D04C90101962E3F3F4F99
:1038C00031F01EBC0DB407FEFDCF0197D0F78FEF8E
:1038D0008EBD0DB407FEFDCF8EB58F71853069F0BA
:1038E00081E090E02A9A2FEF2EBD0DB407FEFDCFA8
:1038F0002EB5089581E090E0089528E833E14FEF78
:1039000060E971E04EBD0DB407FEFDCF8EB58F3F6F
:1039100049F02115310521F3CB010197F1F7215031
:103920003109F0CF81E0232B09F080E090E0DACF7D
:103930008F929F92AF92BF92CF92DF92EF92FF92BF
:103940000F931F93CF93DF9300D000D0CDB7DEB796
:1039500080914E04882311F01A9B91C0289A209AD6
:10396000229A219A879A83E58CBD1DBC2A9A1AE077
:103970008FEF8EBD0DB407FEFDCF9EB51150C9F778
:1039800040E050E0BA0180E40E94CF1B082F813054
:10399000F9F010924E0483E58CBD1DBC11E02A9A0B
:1039A0008FEF8EBD0DB407FEFDCF8EB5812F0F902A
:1039B0000F900F900F90DF91CF911F910F91FF907B
:1039C000EF90DF90CF90BF90AF909F908F90089531
:1039D0004AEA51E060E070E088E40E94CF1B813049
:1039E00009F053C0CE0101966C017E0195E0E90E0D
:1039F000F11CF6019FEF9EBD0DB407FEFDCF8EB505
:103A00008193EE15FF05B9F78B81813011F68C811A
:103A10008A3A09F0BECF40E1A42E47E2B42E50E925
:103A2000852E9924939408C0C4010197F1F7E1E031
:103A3000AE1AB10809F4ADCF40E050E060E070E4A8
:103A400089EE0E94CF1B8111EFCF40E050E0BA0118
:103A50008AE70E94CF1B81119CCF8FEF8EBD0DB4E2
:103A600007FEFDCF9EB5F60191936F01EE15FF05A0
:103A7000A9F7898104E086FF37C00CE035C060E01B
:103A800070E0CB010E942D1C69CF40E050E0BA01EC
:103A900089EE0E94CF1B31E4B32E823018F402E08D
:103AA00029EEB22E80E1E82E87E2F82E90E9C92EA9
:103AB000DD24D39408C0C6010197F1F7F1E0EF1AB5
:103AC000F10809F466CF40E050E0BA018B2D0E9466
:103AD000CF1B8111F0CF40E052E060E070E080E564
:103AE0000E94CF1B811155CF00934E0480E58CBD01
:103AF00081E08DBD54CFCF92DF92EF92FF920F9372
:103B00001F93CF93DF93EC016901780180914E04FC
:103B100083FD07C089E0440F551F661F771F8A95F4
:103B2000D1F781E50E94CF1B81110CC080E49CE994
:103B30003FEF3EBD0DB407FEFDCF2EB52F3FA1F4E4
:103B40000197B9F781E090E02A9A2FEF2EBD0DB4CE
:103B500007FEFDCF2EB5DF91CF911F910F91FF9002
:103B6000EF90DF90CF9008952E3F61F782E092E0D2
:103B70008E199F098C199D09960121503109CD2874
:103B800049F04FEF4EBD0DB407FEFDCF5EB521509D
:103B90003109C0F72FEF2097D1F0EC0EFD1E3FEF5B
:103BA0003EBD0DB407FEFDCF2EB52993CE15DF0522
:103BB000B9F72FEF2EBD0DB407FEFDCF3EB501972F
:103BC000C9F7C2CF3EB531E0E31AF10891F32EBD3B
:103BD0000DB407FEFDCFF6CFCF93DF93EC018091BC
:103BE0004E0483FD07C089E0440F551F661F771FF1
:103BF0008A95D1F781E50E94CF1B81110DC020E489
:103C00003CE95FEF5EBD0DB407FEFDCF4EB54F3F03
:103C100081F421503109B1F721E030E02A9A9FEF79
:103C20009EBD0DB407FEFDCF8EB5C901DF91CF91CA
:103C300008954E3F89F7FE019E013E5F9FEF9EBDB6
:103C40000DB407FEFDCF8EB58193E217F307B9F7E8
:103C50008FEF8EBD0DB407FEFDCF8EB58FEF8EBDFD
:103C60000DB407FEFDCF8EB530E020E0D7CFCF9367
:103C7000DF93EC0180914E0483FD07C089E0440F7F
:103C8000551F661F771F8A95D1F788E50E94CF1BC5
:103C900081113AC08FEF8EBD0DB407FEFDCF8EEFC0
:103CA0008EBD0DB407FEFDCF80E092E090934B04F3
:103CB00080934A04888121968EBD0DB407FEFDCF06
:103CC00080914A0490914B04019790934B04809308
:103CD0004A04892B79F71EBC0DB407FEFDCF1EBC2C
:103CE0000DB407FEFDCF24EC39E09FEF9EBD0DB46F
:103CF00007FEFDCF8EB58F71853091F0211531050E
:103D000019F021503109F2CF81E090E02A9A2FEF8B
:103D10002EBD0DB407FEFDCF2EB5DF91CF910895D6
:103D2000232B91F328E833E14FEF60E971E04EBDBA
:103D30000DB407FEFDCF8EB58F3F49F0211531053B
:103D400019F3CB010197F1F721503109F0CF81E050
:103D5000232B11F490E0DACF80E090E0D7CF4F92A0
:103D60005F926F927F92AF92BF92CF92DF92EF926B
:103D7000FF920F931F93CF93DF93CDB7DEB72897B2
:103D80000FB6F894DEBF0FBECDBF6B017C01A090D3
:103D90004F04B090500422E0C216D104E104F104B3
:103DA00098F0F50186819781A085B185C816D9065E
:103DB000EA06FB0648F48081823009F477C083303C
:103DC00009F449C08130D9F081E090E0A0E0B0E092
:103DD000BC01CD0128960FB6F894DEBF0FBECDBF53
:103DE000DF91CF911F910F91FF90EF90DF90CF90D7
:103DF000BF90AF907F906F905F904F9008952B0190
:103E0000569447944C0C5D1C92013170452C5524FE
:103E10004694712C612C4285538564857585440DCB
:103E2000551D661D771D2F3FF1E03F0709F45FC068
:103E300002E010E0CE0101960E947B1D892B21F645
:103E400089819A81C0FE77C0929582958F7089276B
:103E50009F70892746C09B012F773327220F331F7E
:103E6000220F331FB701A60197E076956795579506
:103E700047959A95D1F782859385A485B585480F96
:103E8000591F6A1F7B1F04E010E0CE0101960E94BB
:103E90007B1D892B09F098CF89819A81AB81BC81E8
:103EA0009C01AD015F70CA01B90194CF9B0133271A
:103EB000220F331F77276F2D5E2D4D2D8285938521
:103EC000A485B585480F591F6A1F7B1F02E010E0CB
:103ED000CE0101960E947B1D892B09F075CF898147
:103EE0009A819C0150E040E0CA01B90173CF01E022
:103EF00010E02FEF31E0CE0101960E947B1D892B4F
:103F000009F062CFD5011A964D915D916D917C912A
:103F10001D974F5F5F4F6F4F7F4F440D551D661DBF
:103F2000771D30E020E0CE0102960E947B1D892B98
:103F300009F04ACF85CF9F70D4CFCF92DF92EF9216
:103F4000FF920F931F93CF93DF93EC016A017B01E4
:103F500002E010E02EEF31E00E947B1D892B81F5FD
:103F60008881998185359A4A51F082E0DF91CF911D
:103F70001F910F91FF90EF90DF90CF90089526E36F
:103F800030E0A601B701CE010E947B1D892B29F4E8
:103F9000888199818634914489F002E010E022E51D
:103FA00030E0A601B701CE010E947B1D892B51F4A0
:103FB00081E02881398126343144C1F680E0D6CFB2
:103FC00083E0D4CF81E0D2CF3F924F925F926F9245
:103FD0007F928F929F92AF92BF92CF92DF92EF9299
:103FE000FF920F931F93CF93DF9300D000D000D0A8
:103FF000CDB7DEB76C016D837E834A01DA018C9107
:10400000803231F4FA0131964F0181918032E1F32F
:104010008F3219F4BFEF8B1A9B0AF60114821582B6
:1040200016821782E0904F04F0905004D4018C91D6
:10403000803208F410C2A281B38110E2312E3C928A
:1040400011963C92119712963C92129713963C92BD
:10405000139714963C92149715963C9215971696C2
:104060003C92169717963C92179718963C92189781
:1040700019963C9219971A963C921A97F4018081EE
:10408000813208F436C220E038E091E08F32C1F08E
:104090008E3209F494C1231798F4AD01420F511DDB
:1040A000FA0180832F5F41E0490FB401690F711D50
:1040B000FB018081813208F420C2942F8F3241F7B6
:1040C000492F50E020E0840E951E1B962C93D601BC
:1040D00011961C921E9214964D915D916D917C915A
:1040E0001797413051056105710509F465C1F70164
:1040F00086819781A085B185481759076A077B0794
:1041000008F05AC1411551056105710509F067C1F3
:1041100046855785608971892081233009F488C1DB
:10412000D60118961D921D921D921C921B97D601C6
:104130001C964D935D936D937C931F97E12CF12C0E
:104140009701220F331F22953295307F3227207F2F
:10415000322700E210E08D819E810E947B1D9C0130
:10416000892B09F029C1ED81FE818081882309F422
:104170003EC0938593FF56C0A0904F04B09050046A
:10418000D6010D911C9111970F5F1F4F81F11C9665
:104190004D915D916D917C911F9741155105610580
:1041A000710529F17801BFE0EB22FF24E114F1044D
:1041B000D1F44F5F5F4F6F4F7F4FF60144875587B4
:1041C00066877787408451846284738441145104E4
:1041D0006104710409F08EC0D50114968D919C91F3
:1041E0000817190720F4F60111830083A9CF23E0F3
:1041F00030E0C90126960FB6F894DEBF0FBECDBFE2
:10420000DF91CF911F910F91FF90EF90DF90CF90B2
:10421000BF90AF909F908F907F906F905F904F90E6
:104220003F900895F601A281B3814C914813A4CF29
:10423000ED81FE81418111968C91119748139CCF9D
:10424000428112968C911297481396CF4381139610
:104250008C911397481390CF448114968C911497A6
:1042600048138ACF458115968C911597481384CFB2
:10427000468116968C91169748137ECF47811796E4
:104280008C911797481378CF408518968C91189782
:10429000481372CF418519968C91199748136CCFAA
:1042A00042851A968C911A97481366CF1B968C916B
:1042B0001B9781119ECF94FF9ACFE0904F04F0900E
:1042C0005004F7018081833009F47FC000E010E0E2
:1042D00020E030E0ED81FE81428D538D70E060E0A2
:1042E000402B512B622B732BF6014483558366833D
:1042F0007783A5CEF50122812150330BC801929519
:1043000082958F7089279F70892782239323892B19
:1043100009F069CFC301B2010E94AF1E462F572F8B
:10432000BC01423051056105710508F445C0F50135
:1043300086819781A085B185481759076A077B0751
:1043400008F055CFD60118964D935D936D937C93ED
:104350001B97E0914F04F09150049A01AB01225059
:1043600031094109510986819781A085B18502975C
:10437000A109B109281739074A075B0708F067C088
:10438000A281B0E00E94A63569837A838B839C83E7
:10439000428953896489758989819A81AB81BC81FD
:1043A000480F591F6A1F7B1FD6011C964D935D93C2
:1043B0006D937C931F9717CF21E030E01ACF3830F0
:1043C00009F07ECE28E03BE06ECEED81FE810489CF
:1043D000158930E020E09801112700277BCFF601F6
:1043E00040875187628773879A01AB012250310958
:1043F000410951090297A109B109281739074A074C
:104400005B0708F5F701A281B0E00E94A635698339
:104410007A838B839C8342895389648975898981D6
:104420009A81AB81BC81480F591F6A1F7B1F7FCEC9
:10443000F6014087518762877387411551056105F1
:10444000710591F674CE40E050E0BA0170CE40E0C4
:1044500050E0BA01A9CF11821082F70186819781BD
:10446000A085B18521E030E00097A105B105B9F044
:10447000068517852089318960816330A1F0D601D6
:1044800018961D921D921D921C921B97D6011C9688
:104490000D931D932D933C931F9730E020E0ED8109
:1044A000FE811082A6CEF60100871187228733870E
:1044B000011511052105310549F3A9019801225083
:1044C0003109410951090297A109B1092817390792
:1044D0004A075B07A8F4F701A281B0E00E94A63565
:1044E0000289138924893589060F171F281F391F50
:1044F000CDCF21E041E050E0E6CD50E021E0E3CD3A
:1045000000E010E09801C2CF4F925F926F927F92CD
:104510008F929F92AF92BF92EF92FF920F931F9351
:10452000CF93DF93CDB7DEB7E0970FB6F894DEBF39
:104530000FBECDBF7C011092500410924F040E9418
:10454000981C02E010E080FDCEC040E050E0BA01CF
:10455000CE0101960E949D1F412C512C32018130C9
:1045600009F4DAC0833009F4D4C08111E5C004E253
:1045700010E02DE030E0B301A201CE0101960E94CF
:104580007B1D8C01892B09F0C4C08A859B859C0109
:1045900050E040E0892B21F4288D398D4A8D5B8DC8
:1045A000AC81B0E00E94A6356DA37EA38FA398A72F
:1045B0008A819B81AC0170E060E0440E551E661E4E
:1045C000771ED7011A964D925D926D927C921D973F
:1045D000298112962C9312978D809E8015969C921D
:1045E0008E921497EF81F885CF01B0E0A0E08DA7FF
:1045F0009EA7AFA7B8ABEF2B41F48C899D89AE89FC
:10460000BF898DA79EA7AFA7B8AB929482948FE085
:104610008822892498228924B12CA12CDB01CA018B
:10462000880D991DAA1DBB1D4DA15EA16FA178A586
:10463000840F951FA61FB71F4DA55EA56FA578A96E
:10464000481B590B6A0B7B0B49A75AA76BA77CA782
:1046500030E050E040E069A57AA58BA59CA50E94BA
:104660007E35DA01C9010296A11DB11DF7018683CD
:104670009783A087B187873FFFE09F07A105B1051A
:1046800008F45DC0265F3F40410951092F3F3F4E6E
:104690004105510508F05FC0873F9F4FA105B10557
:1046A00008F46BC083E0F701808388A199A1AAA1D7
:1046B000BBA1F70186879787A08BB18B840C951CD3
:1046C000A61CB71C4DA15EA16FA178A5840E951EF6
:1046D000A61EB71E828A938AA48AB58A1182F09296
:1046E0005004E0924F04C801E0960FB6F894DEBF84
:1046F0000FBECDBFDF91CF911F910F91FF90EF9033
:10470000BF90AF909F908F907F906F905F904F90F1
:10471000089501E010E0E7CF00E110E02EEB31E07A
:1047200040E050E0BA01CE0101960E947B1D892B2A
:1047300081F78D81811116C006E010E0D4CF81E0B1
:10474000D7018C938DA19EA1AFA1B8A5840D951D15
:10475000A61DB71DAECF873F9F4FA105B10508F03D
:10476000A1CFEACF49845A846B847C84B301A2012F
:10477000CE0101960E949D1FF5CE82E0E1CFCF923F
:10478000DF92EF92FF920F931F93CF93DF93CDB7FA
:10479000DEB7EC970FB6F894DEBF0FBECDBFAC010D
:1047A00000914F041091500485E090E0011511052F
:1047B00009F440C0F8011182CE01C1969CA38BA3DD
:1047C000BE016F5F7F4F40970E94E41F009791F5F5
:1047D00029812223F1F12C8524FD3BC0E0914F0477
:1047E000F09150042081C12CD12C7601233039F472
:1047F000CD88DE88F12CE12C7601DD24CC244B8D94
:104800005C8D70E060E04C295D296E297F29F801FC
:10481000468F578F60A371A34D8D5E8D6F8D78A1EC
:10482000428F538F648F758F168A178A108E118E60
:1048300021E02183EC960FB6F894DEBF0FBECDBF0A
:10484000DF91CF911F910F91FF90EF90DF90CF906C
:10485000089583E090E0EECF8F929F92AF92BF9247
:10486000EF92FF920F931F93CF93DF93CDB7DEB7F5
:10487000E0970FB6F894DEBF0FBECDBF8C01AB0141
:1048800080914F0490915004E5E0F0E0892B09F409
:104890009FC0CE018196D80113969C938E93129758
:1048A000BE016F5F7F4FC8010E94E41FFC01892B8E
:1048B00009F08EC08981882309F4A2C08C8584FF09
:1048C00099C0E0904F04F0905004D7018C9140E0E3
:1048D00050E0BA01833039F44D895E8970E060E0C0
:1048E000BA01552744278B8D9C8DB0E0A0E0482B62
:1048F000592B6A2B7B2BD80114964D935D936D93A6
:104900007C931797D8011D921C9241305105610587
:10491000710509F472C0D70116968D909D90AD90E7
:10492000BC901997481559056A057B0508F065C0C4
:10493000411551056105710591F41E964D915D91EA
:104940006D917C9151972C91D801233009F468C066
:1049500018961D921D921D921C921B9732C0D80171
:1049600018964D935D936D937C931B979A01AB01C1
:104970002250310941095109B2E08B1A9108A1086E
:10498000B108281539054A055B0508F045C0D7016F
:1049900012968C91A82FB0E00E94A6356DA77EA735
:1049A0008FA798ABD70152964D915D916D917C91F7
:1049B00055978DA59EA5AFA5B8A9480F591F6A1F89
:1049C0007B1FD8011C964D935D936D937C931F972D
:1049D000CF01E0960FB6F894DEBF0FBECDBFDF91DA
:1049E000CF911F910F91FF90EF90BF90AF909F904C
:1049F0008F900895E3E0F0E0EBCFE1E0F0E0E8CF66
:104A0000E0904F04F0905004D80114964D915D91C0
:104A10006D917C91179776CF40E050E0BA01D1CFED
:104A200018964D935D936D937C931B97411551059B
:104A30006105710509F09ACFC4CF4F925F926F92D2
:104A40007F928F929F92AF92BF92CF92DF92EF921E
:104A5000FF920F931F93CF93DF93CDB7DEB7E0970D
:104A60000FB6F894DEBF0FBECDBF7C014B01A09006
:104A70004F04B090500485E090E0A114B10409F413
:104A8000B0C0CE018196D70113969C938E93129756
:104A9000672B09F425C11C964D915D916D917C9118
:104AA0001F97411551056105710509F4F1C10D917B
:104AB0001C916801BFE0CB22DD249601220F331F39
:104AC00022953295307F3227207F322700E210E096
:104AD000CE0101960E947B1D892B09F031C189818D
:104AE000882309F4D1C19C85853E21F08E3211F0D6
:104AF00093FF2EC1A0904F04B0905004F7010081A5
:104B000011810F5F1F4F09F4C3C144855585668528
:104B10007785411551056105710509F4B9C1680131
:104B2000FFE0CF22DD24C114D10409F071C04F5F32
:104B30005F4F6F4F7F4FD7011C964D935D936D93E1
:104B40007C931F9718964D905D906D907C901B976D
:104B5000411451046104710409F05EC0F5018481BF
:104B600095810817190708F093C1F7011183008395
:104B7000411551056105710509F09FCFF401399682
:104B80001082F701008111810F5F1F4F41F1848571
:104B90009585A685B7850097A105B10501F1980116
:104BA0002F703327232BC1F40196A11DB11D8487DB
:104BB0009587A687B787408551856285738541159E
:104BC00051056105710509F0A6C1D50114968D91B5
:104BD0009C910817190718F4D7010D931C9390E0C6
:104BE00080E0E0960FB6F894DEBF0FBECDBFDF9138
:104BF000CF911F910F91FF90EF90DF90CF90BF90DA
:104C0000AF909F908F907F906F905F904F9008959E
:104C1000D7010D931C9351CFD50112968C918150E1
:104C2000990B9801329522952F7023273F702327E7
:104C300082239323892B09F098CFC301B2010E94EC
:104C4000AF1E462F572FBC0142305105610571053B
:104C500008F476C0F50186819781A085B185A09082
:104C60004F04B0905004481759076A077B0708F0B3
:104C70000FC1D70118964D935D936D937C931B974D
:104C80009A01AB012250310941095109F501868190
:104C90009781A085B1850297A109B1092817390725
:104CA0004A075B0708F02DC1A281B0E00E94A6353B
:104CB0006DA77EA78FA798AB4289538964897589B0
:104CC0008DA59EA5AFA5B8A9480F591F6A1F7B1FC8
:104CD000D7011C964D935D936D937C931F9745CFA1
:104CE000F7011182108284819581A681B78181307C
:104CF0009105A105B10549F1F50146805780608411
:104D0000718484159505A605B705F8F40097A105EB
:104D1000B10509F0C7C086859785A089B189208132
:104D2000F701233009F456C11086118612861386C6
:104D3000F70184879587A687B78790E080E051CFF9
:104D4000F701148615861686178681E090E049CF14
:104D5000A0904F04B0905004F4013996D7011C96EE
:104D60004D915D916D917C911F97452B462B472B63
:104D700009F406CF803209F457C0853009F485EE76
:104D8000F4013A96D40119968C938A81803209F401
:104D90004BC0853009F485EEF4013B96D4011A9698
:104DA0008C938B81803209F43FC0853009F485EE05
:104DB000F4013C96D4011B968C938C818032A1F136
:104DC000853009F485EEF4013D96D4011C968C9350
:104DD0008D81803249F1853009F485EEF4013E96EB
:104DE000D4011D968C938E818032F1F0853009F4C8
:104DF00085EEF4013F96D4011E968C938F8180320C
:104E000099F0853009F485EEF4017096D4011F966F
:104E10008C938885803241F0853009F485EEF40169
:104E20007196D40150968C938985803299F02EE248
:104E300020839F012E5F3F4F81838A85803209F452
:104E4000D3C02F5F3F4F82838B85803209F4CCC063
:104E500083833496D40118969C9318974D8D5E8D5C
:104E60006F8D78A14D935D936D937C931397898D8E
:104E70009A8D15969C938E9314978F89988D17967B
:104E80009C938E9316977CCEA0904F04B0905004C4
:104E9000D7011C961D921D921D921C921F97F40122
:104EA00039966ECEF70180879187A287B3879C01E0
:104EB000AD012250310941095109F2E04F1A510860
:104EC0006108710880E090E0DC0124153505460595
:104ED000570508F02DCFF501A281B0E00E94A6355C
:104EE0006DA77EA78FA798AB82899389A489B5897E
:104EF0002DA53EA54FA558A9820F931FA41FB51F2E
:104F000017CFD7011C961D921D921D921C921F97C0
:104F10000D931C9333CEF50182818150990B98013A
:104F2000329522952F7023273F70232782239323C6
:104F3000892B09F051CECB01BA010E94AF1E462F3A
:104F4000572FBC01423051056105710508F4FDCEB3
:104F5000F50186819781A085B185481759076A07B1
:104F60007B0708F03CCED70118964D935D936D9367
:104F70007C931B97E0914F04F09150049A01AB0190
:104F8000225031094109510986819781A085B18557
:104F90000297A109B109281739074A075B0730F5BD
:104FA000A281B0E00E94A6356DA77EA78FA798AB1F
:104FB00082899389A489B5892DA53EA54FA558A9B5
:104FC000820F931FA41FB51FF70184879587A687BB
:104FD000B78702CE80879187A287B3870097A10504
:104FE000B10509F064CFA4CEF90134CF80E090E0A0
:104FF000DC01EACFCF93DF9300D000D0CDB7DEB78E
:10500000E0914F04F0915004268D378D40A151A1BD
:10501000225031094109510986819781A085B185C6
:105020000297A109B109281739074A075B0718F544
:10503000A281B0E00E94A63569837A838B839C832A
:1050400082899389A489B58929813A814B815C81C0
:10505000280F391F4A1F5B1F29833A834B835C83C8
:1050600069817A818B819C810F900F900F900F90B6
:10507000DF91CF91089519821A821B821C82F0CF92
:105080004F925F926F927F928F929F92AF92BF9258
:10509000CF92DF92EF92FF920F931F93CF93DF9304
:1050A00000D000D0CDB7DEB780904F049090500470
:1050B000F401C68CD78CE0A0F1A0C114D104E104A6
:1050C000F10409F462C0A895A0904F04B090500478
:1050D000F1E0CF16D104E104F10409F44CC0F5016C
:1050E00086819781A085B185C816D906EA06FB0698
:1050F00008F041C08081823009F45EC0833009F439
:1051000090C08130B1F0F40186819781A085B1858E
:105110000297A105B105C8F181E090E0A0E0B0E000
:1051200021E0892B8A2B8B2B09F020E0822F90E045
:105130002EC02601569447944C0C5D1C9201317090
:10514000452C55244694712C612C428553856485E9
:105150007585440D551D661D771D2F3FF1E03F07F6
:1051600009F486C002E010E0CE0101960E947B1D8A
:10517000892B09F49EC0F40186819781A085B185B1
:105180000297A105B10508F0A1C081E090E00F9061
:105190000F900F900F90DF91CF911F910F91FF9083
:1051A000EF90DF90CF90BF90AF909F908F907F90C7
:1051B0006F905F904F90089596013327220F331F11
:1051C00077276F2D5E2D4D2DF50182859385A48562
:1051D000B585480F591F6A1F7B1F02E010E0CE0102
:1051E00001960E947B1D892B31F689819A81B0E05E
:1051F000A0E0F40146815781608571858417950789
:10520000A607B70710F6FFEFCF1ADF0AEF0AFF0A6B
:10521000C816D906EA06FB0609F082CF6C017D01AB
:105220004CCF96012F773327220F331F220F331FC6
:1052300082859385A485B585B701A601E7E07695BB
:10524000679557954795EA95D1F7480F591F6A1FFB
:105250007B1F04E010E0CE0101960E947B1D892B8C
:1052600009F089CF89819A81AB81BC81BF70C1CFA0
:1052700001E010E02FEF31E0CE0101960E947B1D8E
:10528000892B09F078CFF5014285538564857585B2
:105290004F5F5F4F6F4F7F4F440D551D661D771D4C
:1052A00030E020E0CE0102960E947B1D892B09F0A0
:1052B00062CF89819A81C0FE0CC0929582958F70D1
:1052C00089279F708927B0E0A0E093CF80E090E02D
:1052D0005ECF9F70B0E0A0E08CCF2F923F924F92B4
:1052E0005F926F927F928F929F92AF92BF92CF9276
:1052F000DF92EF92FF920F931F93CF93DF9300D033
:105300000F92CDB7DEB7782E692E6A834B8329833F
:10531000302E67010E945A2A882309F486C0002390
:1053200009F483C0A98087E0A80EA694A694A69449
:10533000B12C97E0292EEA812E0EFB813F0E1981B8
:105340001850812E8694869486948394912C187F8D
:10535000E15F1E0F89818770482EE981E83008F4EB
:105360008CC0512E2A827601F701049122E04B81F4
:105370006A81872D962D0E94C931FFEFEF1AFF0A2F
:105380008A81885F8A838113EFCFF601E80DF91DCA
:10539000042D002309F442C084918A8369EF650DCE
:1053A00080FD59C06AEF650D8A8186950130B1F1A3
:1053B00080FD57C06BEF650D8A818695869502301A
:1053C00069F180FD54C06CEF650D8A8186958695E4
:1053D0008695033019F180FD54C06DEF650D8A810B
:1053E00082958F700430D1F080FD51C06EEF650D55
:1053F0008BEFF82EF00E8A818295869587700530A6
:1054000069F080FD4AC05A94EA81E295E695E695F6
:10541000E370F1E0FF1611F0E0FD45C0CA0CDB1CA3
:10542000EB81EF5FEB83E31198CF0F900F900F901C
:10543000DF91CF911F910F91FF90EF90DF90CF9070
:10544000BF90AF909F908F907F906F905F904F90A4
:105450003F902F9008954B81872D962D0E94B33158
:10546000A1CF4B81872D962D0E94B331A3CF4B81C5
:10547000872D962D0E94B331A6CF0E2F522CF60108
:1054800088CF4B81872D962D0E94B331A6CF4B81BB
:10549000872D962D0E94B331A9CF4B81872D962D54
:1054A0000E94B331B0CF4B81652D872D962D0E9480
:1054B000B331B4CF0F93FC010150040F84A996A916
:1054C0009417A0F0081728F4041718F080E00F9143
:1054D00008952150260F83A995A9961760F02817E3
:1054E00080F481E0261790F70F910895081770F364
:1054F000041760F7EECF281748F381E02617A0F3D2
:10550000E5CF81E0E4CFDB011496ED91FC9130E032
:1055100020E061E00994DB011496ED91FC9130E00C
:1055200020E063E00994DB011496ED91FC9130E0FA
:1055300020E062E00994DB011496ED91FC9130E0EB
:1055400020E065E00994DB011496ED91FC9166E0A2
:105550000994CF92DF92EF92FF920F931F93CF9314
:10556000DF936C017B018A01F80144914F3F91F078
:10557000D7011496ED91FC9130E020E065E0C60182
:105580000995882309F46FC00F5F1F4FF8014491FC
:105590004F3F71F7F8013196C491CF3FB9F0CE3F3C
:1055A00009F46BC00E5F1F4FC03FF0F6C03E00F124
:1055B0004C2F4F70D7011496ED91FC9130E020E014
:1055C00062E0C6010995F8014491D0CFD701149645
:1055D000ED91FC9130E020E04FEF65E0C6010995C8
:1055E000882309F440C00E5F1F4FF8014491BECFDD
:1055F000C03D50F04C2F4F70D7011496ED91FC91A7
:1056000030E020E063E0DDCFC03C08F1D701149624
:10561000ED91FC9130E020E040E064E0C6010995A6
:10562000C295C07FCE5FD0E0CE010E94312DD70160
:105630001496ED91FC9130E020E041E064E0C60179
:105640000995CE010E94312DF80144918FCFCE3BB8
:1056500008F08ACFC7FD88CF8C2F90E00E94312DB3
:10566000F801449183CF80E0DF91CF911F910F919A
:10567000FF90EF90DF90CF90089581E0F5CFFF92FB
:105680000F931F93CF93DF938C01F42EE9016530C4
:1056900009F470C0D0F4623009F485C0633071F44D
:1056A000FC0116A281E083A7442309F486C081E0AF
:1056B000DF91CF911F910F91FF9008956130B9F75D
:1056C000FC0186A50E94E52BF2CF663031F16730F0
:1056D00071F7FC0183A5811110C0FF2041F38E01F9
:1056E0000F0D111DFE0184910E94712C882301F37E
:1056F0002196C017D107B1F7DACF88E70E942D2C89
:10570000882379F1F80186A1811180E40E94712C2F
:10571000882339F1F80113A6E0CFFC0183A5882383
:1057200079F088E70E942D2C8823D9F0F80186A112
:10573000811180E40E94712C882399F0F80113A64E
:10574000FF2009F4B4CF8E010F0D111D04C0C01746
:10575000D10709F4ACCF888121960E94712C811168
:10576000F6CF0E94952C80E0DF91CF911F910F9191
:10577000FF900895FC0183A5882379F088E70E94B3
:105780002D2C882371F3F80186A1811180E40E94F9
:10579000712C882331F3F80113A68F2D0E94712CF0
:1057A000811185CFDECFFC0146A381E083A7DF9185
:1057B000CF911F910F91FF9008950E94952C77CF64
:1057C0001092530410925104089580935204109241
:1057D000B90084FF05C08CE08093B8000C94E02BE6
:1057E00088E48093B8000C94E02BCF93DF9300D033
:1057F000CDB7DEB720ED37E03A8329839091BC0026
:10580000982369130CC023C029813A8121503109A2
:105810003A8329839091BC0098239617C1F029817F
:105820003A81232B89F790915204892F827091FD40
:105830000EC09091530491110BC091E090935304CA
:10584000409351040F900F90DF91CF91089581E024
:105850000F900F90DF91CF910895CF93C82F84EAD6
:105860008093BC0041E060E880E80E94F52B88232B
:1058700051F18091B900887F883011F08031F9F4BE
:10588000C093BB0084E88093BC0042E060E880E8FD
:105890000E94F52B8823B9F08091520481FD1EC02F
:1058A0008091B900887F8831C9F0809153048111BB
:1058B0000AC092E0909353049093510405C08091E4
:1058C0005304882319F080E0CF91089592E09093DB
:1058D000530491E090935104CF91089581E0CF91CA
:1058E00008958093BB0084E88093BC0043E060E8A7
:1058F00080E80E94F52B882339F090915204892F7B
:10590000827091FF02C081E008959091B900987F64
:105910009832C9F3909153049111F6CF92E090938D
:10592000530493E090935104089584E98093BC005C
:1059300044E060E080E10C94F52B880F880F880F1D
:10594000860F08951F93CF93DF9300D0CDB7DEB7B6
:10595000182F682F66956695669570E0660F771F1D
:105960006B527A4F42E050E0CE0101960E94C03562
:10597000E981FA818081177021E030E001C0220FB7
:105980001A95EAF7822B80830F900F90DF91CF91C9
:105990001F9108951F93CF93DF9300D0CDB7DEB74B
:1059A000182F682F66956695669570E0660F771FCD
:1059B0006B527A4F42E050E0CE0101960E94C03512
:1059C000E981FA812081177081E090E001C0880FA1
:1059D0001A95EAF78095822380830F900F90DF91CC
:1059E000CF911F9108950F931F93CF93DF9300D012
:1059F000CDB7DEB7182F062F682F6695669566958A
:105A000070E0660F771F67537A4F42E050E0CE0197
:105A100001960E94C035E981FA81177081E090E01B
:105A200001C0880F1A95EAF701110EC09FB7F894CC
:105A300020818095822380839FBF0F900F90DF91FC
:105A4000CF911F910F9108952FB7F8949081892BD2
:105A500080832FBF0F900F90DF91CF911F910F91F7
:105A600008959C01892B41F04EE95FE0CA0101973E
:105A7000F1F721503109D1F70895AF92BF92CF923B
:105A8000DF92FF920F931F93CF93DF93F82ED92FBE
:105A90008B01C42F6901403109F4A0C008F463C030
:105AA000413109F48BC0453109F04DC0FB01A280A2
:105AB000B38045EF55E00E94A92AF5014481440FC7
:105AC000406BB8018F2D9D2F0E949B2A41E0B801A9
:105AD0008F2D9D2F0E94932AF501268137814581C4
