:100000000C94BB060C94E3060C94E3060C9475095F
:100010000C94E3060C94E3060C94E3060C94E306BC
:100020000C94E3060C949A090C94E3060C94E306F2
:100030000C94E3060C94E3060C94E3060C94E3069C
:100040000C94E3060C94E3060C94E3060C94E3068C
:100050000C94E3060C94E3060C94E3060C94E3067C
:100060000C94E3060C94E3060C94E3060C94E3066C
:100070000C94E3060C94E3060C94E3060C94E3065C
:100080000C94E3060C94E3060C94E3060C94E3064C
:100090000C94E3060C94E3060C94E3060C94E3063C
:1000A0000C94E3060C94E3060C94E3064E6F6E2D5D
:1000B000636F6E746967756F75732066696C650030
:1000C00046696C65206F70656E206661696C656459
:1000D000004552524F520047656F6D65747279202A
:1000E0003E2066696C6500496E636F6D70617420B7
:1000F00067656F6D6574727900556E7265636F67C1
:100100006E697A656420696D616765004E6F742061
:10011000666F756E640052656164205344206661A9
:10012000696C6564004552524F520057726974659C
:10013000205344206661696C6564005265616420E7
:100140005344206661696C6564004552524F520009
:100150004E6F206469736B00000000000800001CF3
:1001600000001C0000360000360000630000630041
:10017000004B0080C90080DD00C09C01C09C014094
:100180001C016008036008033008063008061800E8
:100190000C18000C18180C0C18180C0018FEFF3F57
:1001A000FEFF3F000000000000FFFF1F0100308144
:1001B000FF60819F40819F40819F40819F4081FFE0
:1001C00040010040F1FF47F1FF47F1FF4771F04761
:1001D00071E747716F4671674671F04771E7477184
:1001E000EF4771EF47716F46717046F1FF47F1FFBE
:1001F00047F5FF57010040FFFF7FFFFF1F01003061
:1002000081FF60819F40819F40819F40819F40810D
:10021000FF40010040F1FF47F1FF47F1FB47F1F9D3
:1002200047F1F147F17446F1764671E64771E647CA
:1002300031E04731EF47914F46914F46F1FF47F18B
:10024000FF47F5FF57010040FFFF7FFFFFFFFFFF64
:100250000001000000800101C0FFFF010301C0FF99
:1002600083010601C0FF83010C01C0FF8301180157
:10027000C0FF83013001C0FF83012001C0FF830163
:100280002001C0FF83012001C0FF83012001C0FFC6
:1002900083012001C0FFFF012001000000002001B8
:1002A000000000002001000000002001000000000C
:1002B00020010000000020C1FFFFFF7F20C1FFFFE1
:1002C000FF7F20C1FFFFFF7F20C1FFFFFF7F20C115
:1002D000FFFFFF7F20C1FFFFFF7F20C1FFFFFF7FE8
:1002E00020C1FFFFFF7F20C1FFFFFF7F20C180F102
:1002F000C87320C18071C87320C1FC61C87320C15C
:10030000FC61C87320C1FC69C97320C18069C973CD
:1003100020C18069C97320C1FC09C97320C1FC09CF
:10032000C97320C1FC89897120C10099197820C145
:100330000099397C20C1FFFFFF7F20C1FFFFFF7FB5
:1003400020C1FFFFFF7F20C1FFFFFF7F20C1FFFF14
:10035000FF7F20C1FFFFFF7F20C1FFFFFF7F20C184
:10036000FFFFFF7F20C1FFFFFF7F20C1FFFFFF7F57
:1003700020C1FFFFFF7F200D000000002C0D0000BA
:1003800000002C010000000020FFFFFFFFFF3F46A0
:100390004444454D55004C6F6164696E6720004EC2
:1003A0006F206469736B00425553590A00456C65B0
:1003B0006B74726F6E696B6369004163656D690090
:1003C000286329203230323100000021104220639E
:1003D000308440A550C660E770088129914AA16B1E
:1003E000B18CC1ADD1CEE1EFF131121002733252B6
:1003F00022B5529442F772D662399318837BB35A6E
:10040000A3BDD39CC3FFF3DEE36224433420040185
:1004100014E664C774A44485546AA54BB5288509BD
:1004200095EEE5CFF5ACC58DD55336722611163055
:1004300006D776F6669556B4465BB77AA71997380D
:1004400087DFF7FEE79DD7BCC7C448E5588668A795
:10045000784008611802282338CCC9EDD98EE9AF5D
:10046000F9488969990AA92BB9F55AD44AB77A96F5
:100470006A711A500A333A122AFDDBDCCBBFFB9EAD
:10048000EB799B588B3BBB1AABA66C877CE44CC5C5
:100490005C222C033C600C411CAEED8FFDECCDCDFD
:1004A000DD2AAD0BBD688D499D977EB66ED55EF495
:1004B0004E133E322E511E700E9FFFBEEFDDDFFC4D
:1004C000CF1BBF3AAF599F788F8891A981CAB1EBF2
:1004D000A10CD12DC14EF16FE18010A100C230E31B
:1004E000200450254046706760B9839893FBA3DAD7
:1004F000B33DC31CD37FE35EF3B1029012F322D26B
:10050000323542145277625672EAB5CBA5A8958966
:10051000856EF54FE52CD50DC5E234C324A01481BA
:10052000046674476424540544DBA7FAB79987B876
:10053000975FE77EF71DC73CD7D326F2369106B00A
:100540001657667676154634564CD96DC90EF92F76
:10055000E9C899E9898AB9ABA9445865480678275A
:1005600068C018E1088238A3287DCB5CDB3FEB1E16
:10057000FBF98BD89BBBAB9ABB754A545A376A16AA
:100580007AF10AD01AB32A923A2EFD0FED6CDD4DA6
:10059000CDAABD8BADE89DC98D267C076C645C45FA
:1005A0004CA23C832CE01CC10C1FEF3EFF5DCF7CB6
:1005B000DF9BAFBABFD98FF89F176E367E554E744A
:1005C0005E932EB23ED10EF01E0000250028002BB7
:1005D000002E0031000000240027002A002D0030EA
:1005E00000FFE0FFD1AFFF32FFD0FFFEFFE0FFD101
:1005F000AEFFD0FFFEFFE0FFD11000FFFEFFD0FFF7
:10060000E0FFC1FFD1AED580A83FD300408D1420BC
:1006100002A1C8DA1281CFD9F1DB402EA4A6AFFF28
:10062000D0FFFE01060A00FE070136026820FFFE29
:1006300008FE07FE0A006022176780808080800025
:1006400080163363A0A0A00257675050F850F850AE
:10065000500257672070A07028702002576748A882
:10066000502050A89002576740A0A040A89068264C
:100670001363808080123767204080808040201282
:100680003767804020202040800355658850F8500F
:10069000880355652020F8202011336360408005D1
:1006A0005161F811336340E0400257670808102099
:1006B0004080800257672050888888502002576702
:1006C0002060A0202020F802576770880830408002
:1006D000F8025767F8081030088870025767103022
:1006E0005090F81010025767F880B0C80888700260
:1006F0005767304080B0C88870025767F8081010FC
:100700002040400257677088887088887002576759
:100710007088986808106011376740E0400040E03A
:100720004011376740E0400060408012476710206A
:100730004080402010045363F800F812476780405F
:10074000201020408002576770881020200020026F
:100750005767708898A8B0807002576720508888C3
:10076000F88888025767F04848704848F002576791
:1007700070888080808870025767F04848484848F1
:10078000F0025767F88080F08080F8025767F880A1
:1007900080F080808002576770888080988870021F
:1007A0005767888888F8888888123767E040404013
:1007B0004040E002576738101010109060025767F1
:1007C0008890A0C0A0908802576780808080808039
:1007D000F80257678888D8A8888888025767888869
:1007E000C8A89888880257677088888888887002A7
:1007F0005767F08888F08080800158687088888802
:1008000088A87008025767F08888F0A0908802577F
:100810006770888070088870025767F82020202051
:1008200020200257678888888888887002576788E0
:10083000888850505020025767888888A8A8D88890
:1008400002576788885020508888025767888850E8
:1008500020202020025767F80810204080F8123727
:1008600067E08080808080E00257678080402010B1
:100870000808123767E02020202020E0065363207C
:100880005088015161F82822628040025565700845
:100890007888780257678080B0C888C8B0025565EC
:1008A000708880887002576708086898889868027E
:1008B00055657088F88070025767304840F04040B6
:1008C000400057677888887808887002576780806A
:1008D000B0C88888881237674000C0404040E010A8
:1008E00049691000301010109090600257678080A6
:1008F0008890E09088123767C04040404040E00256
:100900005565D0A8A8A888025565B0C8888888020F
:1009100055657088888870005767B0C888C8B080EF
:100920008000576768988898680808025565B0C8BD
:1009300080808002556570807008F00257674040E3
:10094000F0404048300255658888889868025565AF
:1009500088885050200255658888A8A8500255659F
:1009600088502050880057678888986808887002E7
:100970005565F8102040F8124767304020C02040ED
:100980003022176780808080808080124767C02077
:1009900040304020C006536348A890FFFFFFFFFF90
:1009A000FFFFFFFFFFFFFFFFFFFFFFFFFFFFFFFF57
:1009B000FFFFFFFFFFFFFFFFFFFFFFFF0A006022B7
:1009C0001767800080808080800157672078A0A012
:1009D000A07820025767304840E04048B002556593
:1009E000887050708801586888885020F82020202E
:1009F000221767808080008080800158687080E0C6
:100A00009048380870193161A00257677088A8C8EB
:100A1000A888701346667090B05000F00265652497
:100A200048904824144262F010154161F002576763
:100A30007088E8C8C88870095161F816336340A00F
:100A4000400256662020F82020F815456560902069
:100A500040F0154565E0106010E0282262408001FA
:100A60005666888888C8B08002576778E8E86828A2
:100A7000282825116180202262408015356540C0FC
:100A80004040E01346666090906000F0026565901B
:100A90004824489001696940C04040E40C143C047B
:100AA00001696940C04040E81404081C015969C04C
:100AB000204020C8182878080257672000202040CE
:100AC00088700258684020708888F88888025868C2
:100AD0001020708888F888880258682050708888AC
:100AE000F8888802586848B0708888F88888025862
:100AF000685000708888F88888025868205070888C
:100B000088F888880267673C50909CF0909C005958
:100B10006970888080808870204002586840F88022
:100B200080F08080F802586810F88080F08080F8AB
:100B300002586820F88080F08080F802586850F8E9
:100B40008080F08080F81238688040E0404040406B
:100B5000E01238682040E040404040E012386840F1
:100B6000A0E040404040E0123868A000E040404033
:100B700040E0025767F04848E84848F002586828C3
:100B80005088C8A89888880258684020708888884B
:100B900088700258681020708888888870025868A9
:100BA000205070888888887002586828507088881B
:100BB000888870025868500070888888887002554C
:100BC000658850205088025767709898A8C8C870E8
:100BD00002586840208888888888700258681020E9
:100BE000888888888870025868205000888888889B
:100BF0007002586850008888888888700258681089
:100C00002088885020202002576780F088F080805C
:100C100080025767708890A09088B0025868402082
:100C2000007008788878025868102000700878886A
:100C30007802586820500070087888780258682830
:100C400050007008788878025767500070087888DC
:100C50007802586820502070087888780265657896
:100C6000147C907C00576770888088702040025800
:100C7000684020007088F88070025868102000706A
:100C800088F880700258682050007088F8807002E0
:100C9000576750007088F88070123868804000C034
:100CA000404040E0123868408000C0404040E012C0
:100CB000386840A000C0404040E0123767A000C044
:100CC000404040E0025767C0307088888870025802
:100CD00068285000B0C88888880258684020007092
:100CE0008888887002586810200070888888700290
:100CF0005868205000708888887002586828500012
:100D000070888888700257675000708888887003E0
:100D100055652000F800200255657898A8C8F002B3
:100D20005868402000888888986802586810200019
:100D30008888889868025868205000888888986851
:100D40000257675000888888986800596910208881
:100D500088986808887000586880F0888888F080D3
:100D6000800059695000888898680888700056107B
:100D70005A105E10621011241FBECFEFDAE0DEBF02
:100D8000CDBF11E0A0E0B1E0EEE3F0E502C00590D8
:100D90000D92AE32B107D9F725E0AEE2B1E001C065
:100DA0001D92A835B207E1F716E0CBEBD6E004C000
:100DB0002197FE010E949427C73BD107C9F70E94E3
:100DC00066100C941D280C940000E4E6F0E080818D
:100DD0008E7F808380E480937C0087E880937A0014
:100DE00008956F70606460937C00EAE7F0E08081B2
:100DF000806480830895CF93DF93D82FC92F0E94FA
:100E0000E5066FEF8D2F9C2FDF91CF910C94F106AB
:100E1000809178009091790008950F931F93CF935C
:100E2000DF938C0180917A0086FD36C0C8010E9454
:100E30000807EC016FEFC8010E94F106C53883E096
:100E4000D807C8F4CE01805293408634910550F102
:100E500088539F4F8C33910538F188539F4F8233CD
:100E6000910520F18E529F4F889710F181E0CD2B94
:100E700019F087E001C086E0909100012091010106
:100E8000263031F4891304C080930101863028F0A4
:100E9000909301018093000180E0DF91CF911F9139
:100EA0000F91089585E0E8CF84E0E6CF83E0E4CFBA
:100EB00082E0E2CF0895CF93DF93EC01BC01665D41
:100EC0007F4F805C9F4F0E94141CFE01EF5AFF4F22
:100ED00091838083892B21F481E09BA9911101C02A
:100EE00080E0DF91CF910895CF93DF93EC01CE01A5
:100EF0000E945B07882319F09AA994FDF8CFDF912F
:100F0000CF9108950F931F93CF93DF93EC018C0142
:100F10000D5A1F4FF801118210820E94CB078111D8
:100F20000EC090E080E0DF91CF911F910F91089566
:100F3000A895F80180819181019691838083CE01EB
:100F40000E9474078111F4CFF80180819181EBCF69
:100F5000CF93DF93EC010E942C1A9C01FE01EF5A03
:100F6000FF4F9183808380E0232B61F4319781E0F0
:100F7000808333961182108266E171E0CE010E9477
:100F8000820781E0DF91CF910895FC01E05BFF4F84
:100F900010820C94A807CF92DF92EF92FF920F93EA
:100FA0001F93CF93DF93EC018B016C0180E4C80E9B
:100FB000D11CC6010E94CD1B9C017E01E1E5EE0E15
:100FC000F11CF7019183808381E021153105B1F097
:100FD00023703327232B11F480E010C0CE010E9430
:100FE000A8078823C9F3B801C6010E94CD1B9C0144
:100FF000F7019183808381E0232B71F7DF91CF91FB
:101000001F910F91FF90EF90DF90CF900895CF92B6
:10101000DF92FF920F931F93CF93DF938C01D42F16
:10102000F52E0E94CB07882351F0680183E3C80E98
:10103000D11CC8010E945B07C82F81110AC0C0E003
:101040008C2FDF91CF911F910F91FF90DF90CF9068
:101050000895A8956D2F7F2DC6010E94DF27892B4B
:1010600041F7EECFCF93DF93EC01C3960E94731B41
:10107000CF5ADF4F9983888340EC50E0892B31F4BD
:101080000E94061D892B71F44CEA50E061ED70E07E
:1010900085E494E00E94521060E070E0CB01DF91A3
:1010A000CF910895DF91CF910C94EA1CCF93DF93F9
:1010B000FC011382148215821682DC0117968DE0E2
:1010C000ED0119928A95E9F780E5818382E18283B7
:1010D00081E08083DF91CF9108954F925F926F926C
:1010E0007F92BF92CF92DF92EF92FF920F931F9366
:1010F000CF93DF93CDB7DEB762970FB6F894DEBF1C
:101100000FBECDBF7C01B62EC72EFC01808181FFB2
:1011100003C0C7010E9456084B2D5C2D67E171E0AA
:101120008FE291E00E940708D82E81111DC04CE08B
:1011300051E065E271E085E494E00E9452108D2D4B
:1011400062960FB6F894DEBF0FBECDBFDF91CF9190
:101150001F910F91FF90EF90DF90CF90BF907F9005
:101160006F905F904F9008958FE291E00E94320857
:10117000AB01BC01F701438354838583768380915F
:10118000610180FF03C080818460808302E110E000
:1011900026E330E0CE0101960E94E21546E151E0DF
:1011A000892B59F58981863451F48A81813439F447
:1011B0008B81843521F48C81813309F44FC00091F7
:1011C000590110915A0120915B0130915C0159E065
:1011D00036952795179507955A95D1F70036F9E07A
:1011E0001F0791F190F4003D82E0180791F180E52E
:1011F000003A154079F149EF50E065E271E085E48D
:1012000094E00E945210D12C9ACF0034FBE01F07CB
:10121000B1F00038164179F780E5F701818384E267
:101220008283D70117968DE0EB2DFC2D01900D9256
:101230008A95E1F7F70180818260808380CF80E525
:10124000F701818382E1ECCF80E5F70181838FE0B4
:10125000E7CF88E2F701818389E0E2CFF70143819C
:1012600054816581768102E110E02BE030E0CE010F
:1012700001960E94E21589819A818115924051F46C
:1012800088899989039734F46E857F856F3F71054E
:1012900021F01CF047EE50E0B0CF89859A852C01F3
:1012A000712C612C0091590110915A0120915B0120
:1012B00030915C0149E036952795179507954A9539
:1012C000D1F7041515052605370518F447ED50E04C
:1012D00094CFF70162837727660F771F0E945E27FE
:1012E00061839FCF0C94560808958F938FB78F9387
:1012F0009F934A990FC04B9B17C080919A01909180
:101300009B01019790939B0180939A0190939B017D
:1013100080939A01809199018068809399019F91AF
:101320008F918FBF8F91189580919A0190919B0119
:101330000196E8CF8F938FB78F931E990BC01C999E
:1013400009C0809199018160809399018F918FBF2D
:101350008F911895809199018C7FF6CF10929C0106
:1013600084B18F7884B93E988AB183768AB96E98B1
:1013700080B38F7880BB2D985F9881B38F7881BBC5
:1013800085B1806585B9469A8BB18C618BB9769AA7
:10139000E9E6F0E080818F7C8083808180628083B9
:1013A000EA9A80E580936B00E8E6F0E08081816056
:1013B000808381E080939C0178940895CF93DF939C
:1013C000EC0180919C01811102C00E94AE0980E174
:1013D0008C8BDF91CF910895CF93DF93D82FC92FB6
:1013E0000E9472098D2F9C2FDF91CF910C94DE0902
:1013F0000F931F93CF93DF9300D000D0CDB7DEB70C
:101400008C01FC018781811111C060E571E083EAE4
:1014100091E00E94C62783EA91E00F900F900F9011
:101420000F90DF91CF911F910F91089583E48093E6
:10143000A3011092A40181814AE0BE016F5F7F4F3A
:1014400090E00E94E827BE016F5F7F4F83EA91E042
:101450000E94D42762E271E083EA91E00E94D427DF
:10146000F80182814AE0BE016F5F7F4F90E00E94E9
:10147000E827BE016F5F7F4F83EA91E00E94D42787
:10148000CACFCF93DF93FC01AB018081C1E0D0E0F4
:1014900081FF1BC0052E000C660B770B83819481A6
:1014A000A581B681480F591F6A1F7B1F80EB91E011
:1014B0000E944416EC01892B41F04BE351E06AE4B1
:1014C00071E085E494E00E945210CE01DF91CF914B
:1014D0000895CF93DF93FC01AB018081C1E0D0E0A0
:1014E00081FF1BC0052E000C660B770B8381948156
:1014F000A581B681480F591F6A1F7B1F80EB91E0C1
:101500000E948616EC01892B41F04BE251E06AE41F
:1015100071E085E494E00E945210CE01DF91CF91FA
:101520000895CF93DF93EC010E946D08882329F082
:101530009A819A3028F090E19C8BDF91CF910895A9
:1015400090E2FACFEF92FF920F931F93CF93DF9326
:10155000EC01888180FF07C0869A8881982F9A7055
:1015600011F08E7F8883888182FF16C0859A0E9441
:10157000C61011E002E13BEFF32E4EE4E42E809121
:101580009901837059F486988598DF91CF911F91C6
:101590000F91FF90EF9008958598E9CF579A8C8925
:1015A0000E942013579880E080939F019A818917A9
:1015B00030F780919901837011F3A895809199017A
:1015C0008370E9F286B186FB882780F981278093B2
:1015D000A0018091990187FF21C0809199018F77A7
:1015E0008093990120919A0130919B013093A2013F
:1015F0002093A10137FF65C01092A2011092A101B2
:10160000849A8091A1019091A20190939B01809373
:101610009A0188818A7009F467C086988091A10137
:101620009091A201880F991F2091A001820F911D16
:10163000089FB001099F700D112480919F01680FD0
:10164000711D70939E0160939D01CE010E94410A1D
:101650000E94C61040919F016091A0018091A1015C
:101660000E9400118C890E94B11380919A0190917F
:101670009B012091A1013091A20128173907E9F4BB
:1016800084E190E07E9B02C00197E1F77E992EC035
:101690000E94ED1043E052E06FEA71E08C890E94F5
:1016A0001B11A8950E94C61060919D0170919E012A
:1016B000CE010E94690A369BFECF80919F018F5F09
:1016C00073CF898190E0281739072CF00197909308
:1016D000A2018093A1018091A1019091A201892B87
:1016E00009F48ECF84988DCF869A98CFF092AF016F
:1016F00061E072E08FEA91E00E94AB1098278927A1
:1017000098279093B1038093B003E092B20344E032
:1017100052E06FEA71E08C890E944612CECF2F9280
:101720003F924F925F926F927F928F929F92AF9271
:10173000BF92CF92DF92EF92FF920F931F93CF93BE
:10174000DF934C010E94C522F401908D818D292EDA
:10175000281A3080412C512C3401F3E46F0E711C97
:10176000C32CD12C540122E4A20EB11C052D10E093
:10177000F3018081082E000C990B08171907ACF0B3
:10178000C401DF91CF911F910F91FF90EF90DF90F7
:10179000CF90BF90AF909F908F907F906F905F9011
:1017A0004F903F902F900C947B24C4013DE0539EBA
:1017B000800D911D1124FC01EC5BFF4F7F01BF01E7
:1017C000C4010E94D522E601C81BD109D7FD21968C
:1017D000D595C795C4010E947B24F5018081082E10
:1017E000000C990B8017910759F4022D232D41E02D
:1017F000440D60E0C4010E947E26C4010E948C2436
:101800009701442D6C2FC4010E9435225394420C41
:10181000ADCFCF92DF92EF92FF920F931F93CF93B2
:10182000DF93EC0118810E947B248BAD2AEFE22E1E
:1018300021E0F22E0BE127E143E061E080FF51C09F
:10184000CE010E944B1D0DE129E142E060E0CE0196
:101850000E94212626EE210F42E06AE1CE010E947D
:101860007E26CE010E948C24812F8751990B6C011A
:101870006BE871E0CE010E94D522B601681B7109A8
:1018800077FF02C06F5F7F4F759567957727695E19
:101890007F4F2BE831E044E0CE010E94352284E8FE
:1018A00091E00E94F8098C01BC01CE010E94D52272
:1018B000B601681B710977FF02C06F5F7F4F759596
:1018C00067957727695E7F4F980141E1CE01DF91EF
:1018D000CF911F910F91FF90EF90DF90CF900C94DC
:1018E0003522CE010E944B1DBFCFAF92BF92CF9247
:1018F000DF92EF92FF920F931F93CF93DF936C01D0
:10190000FC01C081D0E066E973E00E94EF229E01F5
:10191000281B3109C90137FD01965C01B594A794D4
:10192000F60183AD80FF49C0BE016751710977FFA1
:1019300002C06F5F7F4F759567954AEFE42E41E0D7
:10194000F42E0BE127E140E0C6010E944B1D26E981
:1019500033E040E26A2DC6010E9460225601F2E4A3
:10196000AF0EB11CF50180811DE0B6018102600D52
:10197000711D11246C5B7F4FC6010E94D522F501B9
:10198000908196019102200D311D11242C5B3F4F57
:10199000C81BD109D7FD2196D595C7954FE26C2F6D
:1019A000C601DF91CF911F910F91FF90EF90DF90D3
:1019B000CF90BF90AF900C94352281FFC8CFBE016D
:1019C0006751710977FF02C06F5F7F4F759567950B
:1019D00029EAE22E21E0F22EB4CFAF92BF92CF924D
:1019E000DF92EF92FF920F931F93CF93DF936C01DF
:1019F000FC01C081D0E067EA73E00E94EF229E0103
:101A0000281B3109C90137FD01965C01B594A794E3
:101A1000F60183AD80FF4BC0BE016751710977FFAE
:101A200002C06F5F7F4F759567954AEFE42E41E0E6
:101A3000F42E0BE127E140E0C6010E944B1D27EA8E
:101A400033E040E26A2DC6010E946022F60183ADB8
:101A500083708150990B15E1189FB001199F700D8B
:101A6000112465577E4FC6010E94D522F60143AD71
:101A700043704150550B149F9001159F300D112458
:101A800025573E4FC81BD109D7FD2196D595C7953F
:101A90004FE26C2FC601DF91CF911F910F91FF9004
:101AA000EF90DF90CF90BF90AF900C94352281FFE4
:101AB000C6CFBE016751710977FF02C06F5F7F4FCC
:101AC0007595679529EAE22E21E0F22EB2CFCF92EA
:101AD000DF92EF92FF920F931F93CF93DF936C01EE
:101AE000FC01C081D0E064AD75AD0E94EF22182FDB
:101AF000BE016751710977FF02C06F5F7F4F759517
:101B0000679538E5E32E31E0F32E0BE127E140E065
:101B1000C6010E944B1DF60124AD35ADBE01611B0F
:101B2000710977FF02C06F5F7F4F7595679540E23F
:101B3000C6010E946022F60166AD77ADC6010E9423
:101B4000EF22F60126AD37ADC81BD109D7FD21968E
:101B5000D595C7954FE26C2FC601DF91CF911F91AC
:101B60000F91FF90EF90DF90CF900C946022CF9276
:101B7000DF92EF92FF920F931F93CF93DF936C014D
:101B8000FC01C081CE52DD0B60EC73E00E94EF22BD
:101B9000182F3BE4E32E32E0F32E06E32EE245E07D
:101BA00061E0C6010E944B1DBE01611B710977FFF8
:101BB00002C06F5F7F4F759567957727625D7F4F96
:101BC00020EC33E04AE0C6010E9460226AEB73E039
:101BD000C6010E94EF22BE01681B710977FF02C097
:101BE0006F5F7F4F759567957727625D7F4F2AEB13
:101BF00033E049E1C6010E9460226DEA73E0C6014C
:101C00000E94EF22BE01681B710977FF02C06F5F5F
:101C10007F4F759567957727625D7F4F2DEA33E09B
:101C200048E2C601DF91CF911F910F91FF90EF9095
:101C3000DF90CF900C946022CF93DF93D82FC92FE1
:101C400065E082E00E94CF1F0E94EB1F65E082E00A
:101C50000E94CF1F61E00E94032065E082E00E94A5
:101C6000CF1F0E94D41F64E082E00E94CF1F0E9419
:101C7000EB1F64E082E00E94CF1F61E00E9403201E
:101C800064E082E00E94CF1F0E94D41F40E062E027
:101C900071E08D2F9C2F0E941B248D2F9C2F0E9462
:101CA000452763E276E08D2F9C2F0E940A238D2F1B
:101CB0009C2FDF91CF910C94CF22CF93DF93EC0137
:101CC0000E941C0E84E189AF8FEF88AFFE01EE5BAE
:101CD000FF4F108285E08AAFDF91CF910895FC011C
:101CE00022AD233079F030F4213071F0223071F0E0
:101CF0000C94090C243021F02530D1F70C94B70D49
:101D00000C94ED0C0C94750C0C94670D0C948F0BCB
:101D1000CF93DF93EC018FA9811120C088AD882378
:101D2000E9F089AD882339F0815089AF9FEF98AFF2
:101D3000811101C01AAECE010E943124CE010E9451
:101D40006F0ECE010E9436248111F8CF88AD8150EC
:101D500088AF811103C0CE010E9445248FA98F5FF7
:101D60008FABDF91CF910895CF93DF93EC011BAE42
:101D700060E00E94C10E1FAACE01DF91CF910C94AA
:101D8000880ECF93DF93EC016AAF88AD811106C056
:101D9000CE010E944D24CE010E94B40E8FEF88AF79
:101DA000DF91CF910895CF93DF93EC017DAF6CAFBE
:101DB0005FAF4EAF61E00E94C10E84E189AF1FAA00
:101DC000CE01DF91CF910C94880ECF93DF93EC017D
:101DD00063706BAF64E00E94C10E1FAACE01DF9159
:101DE000CF910C94880ECF93DF93EC0163E00E94B7
:101DF000C10E1FAACE01DF91CF910C94880ECF9215
:101E0000DF92EF92FF920F931F93CF93DF938C019A
:101E10007C0183E4E80EF11C86E0D7018C9380916D
:101E20008201909183018530910514F48F5F8C932A
:101E3000F801EE5BFF4F3081E801C05CDF4F888125
:101E4000998137FF2FC010820197998388838091F1
:101E500082019091830128813981AC01445051095C
:101E6000241735073CF105979983888368E171E071
:101E70008FE291E00E94CB07D12CC12C88819981FF
:101E8000C816D906E4F0C0E0DDE0F7018081C8178C
:101E9000F4F0DF91CF911F910F91FF90EF90DF90C1
:101EA000CF900895D7012C9132178CF221502083C6
:101EB0000196CBCF37FFDACF19821882D7CF8FE2C6
:101EC00091E00E947407BFEFCB1ADB0AD7CF8FE2F5
:101ED00091E00E947407D801CD02A00DB11D11241C
:101EE000AC5BBF4F882349F08DE0E2E6F1E0019062
:101EF0000D928A95E1F7CF5FC8CF6FE973E0CD010E
:101F00000E94C627F8CF0F931F93CF93DF93EC0166
:101F1000162F16169CF488AD811104C060E0CE0126
:101F20000E94C10E8FEF88AF133009F441C05CF4FA
:101F3000113009F49CC0123009F44CC0DF91CF91EC
:101F40001F910F9108951430D9F01530B9F78AAD6B
:101F50008111F4CF2BAD237089F32150330B45E170
:101F6000429FC001439F900D11248C579E4F0E94A9
:101F70007409CE01DF91CF911F910F910C94B40E93
:101F80008AAD811106C08BAD8370C1F681E08BAF45
:101F9000D5CF823099F6FE01EE5BFF4F80818F5FD7
:101FA0008083CE01DF91CF911F910F910C94FF0E92
:101FB0008AAD811106C08BAD8370823009F0BECF2F
:101FC000E5CF823009F0BACFFE01EE5BFF4F808192
:101FD0008150E6CF8AAD81110DC08BAD837009F4BD
:101FE000ADCFFE01EE5BFF4F10823297118210825F
:101FF0001AAFD7CF823009F0A1CFCE010E94F30EE5
:10200000FE01EE5BFF4F80818E019DE08902000D95
:10201000111D11240C5B1F4F6FE873E0C8010E9473
:10202000BD272BAD23702150330B45E1892B89F45B
:10203000429FC001439F900D11248C579E4F0E94D8
:10204000740960E0CE01DF91CF911F910F910C9444
:10205000C10E429FC001439F900D1124B8018C57BF
:102060009E4F0E94910A882309F468CFEACF8AAD77
:10207000823011F41AAE62CF811160CF2BAD237084
:1020800009F45CCF2150330B85E1829FE001839FEF
:10209000D00D1124CC57DE4FCE010E94560880E1AE
:1020A0008C8B4CCF83EB93E00C94D30E8EE291E0BB
:1020B0000C94FB068FE291E00C94C50784E891E054
:1020C0000C94EC0983EB93E00C945D0E88E199E2AB
:1020D0000FB6F894A895809360000FBE90936000AF
:1020E00080917F01882331F069E171E084E891E01B
:1020F0000E94910AC5E1A895809199018370C9F069
:1021000060919901637083EB93E00E94E50E20914A
:10211000990123702150330BC29FC001C39F900DC2
:1021200011248C579E4F0E94A20A83EB93E00E94D9
:10213000B40E80917A0086FD09C08EE291E00E9483
:102140000D07682F83EB93E00E94830F83EB93E0EE
:102150000E94880ED0CFAC019B0184EB9DEC12163F
:1021600013060CF00895DA01E92FFF274D91E427BB
:10217000EE0FFF1FE753FC4F45915491982F88278E
:102180008427952721503109AD01E9CFCF93DF9303
:10219000A1E8B0E091E09C932598E0E8F0E080ECC5
:1021A0008083C2E8D0E08881806888831082259A85
:1021B00096BB8C9188608C9310928500109284005D
:1021C00080E290E0909389008093880082E086BB53
:1021D00080E48083DF91CF91089510928500109262
:1021E000840081E286BB1092800081E080938100B0
:1021F00010928200EEE6F0E080818E7F8083089569
:10220000CF93DF93C6E4D4E09EEF988389836A83FB
:102210004F5F4B8382E08C8365E070E0CE010E94CB
:10222000AB109827892798279E838D838EE48F8310
:10223000DF91CF910895FF920F931F93FB01DA0175
:102240001197082F0695080F080F102F180F80E020
:10225000F82EB09A40E0B09B05C0B09AFA9411F401
:1022600083E010C14395B59BFECF30918600B59AAF
:10227000632F621B232F601770F3611758F74035E7
:1022800048F3B59BFECF30918600B59A632F621B51
:10229000232F611708F4DECFB59BFECF3091860067
:1022A000B59A632F621B232F061708F4611708F0F5
:1022B000D1CFB59BFECF30918600B59A632F621BBC
:1022C000232F611708F4C6CFB59BFECF309186004F
:1022D000B59A632F621B232F061708F4611708F0C5
:1022E000B9CFB59BFECF30918600B59A632F621BA4
:1022F000232F601708F0AECFB59BFECF309186003C
:10230000B59A632F621B232F611708F4A3CFB59BE7
:10231000FECF30918600B59A632F621B232F0617DC
:1023200008F4611708F096CFB59BFECF3091860078
:10233000B59A632F621B232F611708F48BCFB59BCF
:10234000FECF30918600B59A632F621B232F0617AC
:1023500008F4611708F07ECFB59BFECF3091860060
:10236000B59A632F621B232F601708F073CFB59BBC
:10237000FECF30918600B59A632F621B232F611721
:1023800008F468CFB59BFECF30918600B59A632FD5
:10239000621B232F061708F4611708F05BCFB59B6B
:1023A000FECF30918600B59A632F621B232F6117F1
:1023B00008F450CFB59BFECF30918600B59A632FBD
:1023C000621B232F061708F4611708F043CFBB23C5
:1023D0000AF458C058E0B59BFECF30918600B59AFC
:1023E000632F621B232F6017F0F0611798F0440FE2
:1023F0005A9529F4419358E0A150B04052F0440F4F
:1024000041605A9529F4419358E0A150B0400AF038
:10241000E2CF38C0440F5A9529F4419358E0A150B7
:10242000B040BAF30AC0440F41605A9529F4419371
:1024300058E0A150B0406AF3CECFB59BFECF3091AB
:102440008600B59A632F621B232F601790F0440F0C
:102450005A9529F4419358E0A150B0409AF0440FA6
:1024600041605A9529F4419358E0A150B04052F090
:10247000B2CF440F5A9529F4419358E0A150B0408F
:102480000AF0DBCF1F910F91FF9008950F931F93D8
:10249000DA01FB01082F080F0A95102F180F212FC2
:1024A000280F40E04093840040E600938800B19BF1
:1024B000FECF30E830938200B19A4A95B1F710937D
:1024C0008800B19BFECF30E830938200B19A209310
:1024D0008800B19BFECF30E830938200B19A109310
:1024E0008800B19BFECF30E830938200B19A2093F0
:1024F0008800B19BFECF30E830938200B19A1093F0
:102500008800B19BFECF30E830938200B19A0093EF
:102510008800B19BFECF30E830938200B19A2093BF
:102520008800B19BFECF30E830938200B19A1093BF
:102530008800B19BFECF30E830938200B19A20939F
:102540008800B19BFECF30E830938200B19A10939F
:102550008800B19BFECF30E830938200B19A00939F
:102560008800B19BFECF30E830938200B19A20936F
:102570008800B19BFECF30E830938200B19A10936F
:102580008800B19BFECF30E830938200B19A20934F
:102590008800B19BFECF30E830938200B19A10934F
:1025A0008800B19BFECF30E830938200B19A00934F
:1025B000880050E05A952AF4A150B0409AF1419118
:1025C00057E0441F30F030918800380F3093880076
:1025D00009C0B19BFECF30E830938200B19A0093DE
:1025E0008800E8CF5A952AF4A150B040DAF0419122
:1025F00057E0441F48F0B19BFECF30E83093820093
:10260000B19A00938800EECF30918800380F309354
:102610008800B19BFECF30E830938200B19A0093DE
:102620008800C8CFB19BFECF30E830938200B19ACA
:1026300090E090938900809388001F910F910895F6
:102640000F931F93082F080F0A95102F180F212F93
:10265000280F48E30E946D13109388000E94A41372
:102660004FE50E94661343E0109388000E94A41374
:1026700004C0209388000E94A413009388000E9445
:10268000A413109388000E94A413209388000E9432
:10269000A413109388000E94A4134A9551F7209325
:1026A00088000E94A41345E00E94661310938800DE
:1026B0000E94A41341E3009388000E94A4130E9487
:1026C0007113109388000E94A41345C000938800E2
:1026D0000E94A4134A95D1F70895109388000E9490
:1026E000A413109388000E94A413109388000E94E2
:1026F000A413109388000E94A413009388000E94E2
:10270000A413009388000E94A4134A9531F70895FA
:10271000109388000E94A41304C0009388000E94B4
:10272000A413209388000E94A413109388000E9491
:10273000A413209388000E94A413109388000E9481
:10274000A4134A9551F70895B19BFECF30E830931A
:102750008200B19A08950093880080E01F910F9144
:1027600008950F931F93E6E4F4E0082F080F0A95ED
:10277000102F180F212F280F109388000E945E142D
:1027800040E50E94201442E00E9442140093880019
:102790000E945E14209388000E945E1410938800AB
:1027A0000E945E14209388000E945E14109388009B
:1027B000B19BFECF30E830938200B19A009388003D
:1027C00050E0A8E05A9522F4A15092F1419157E0CF
:1027D000441F30F030918800380F3093880009C0D2
:1027E000B19BFECF30E830938200B19A009388000D
:1027F000E9CF5A9522F4A150DAF0419157E0441FF5
:1028000048F0B19BFECF30E830938200B19A00933C
:102810008800EFCF30918800380F30938800B19B4B
:10282000FECF30E830938200B19A00938800CACF7F
:1028300045E10E942714109388000E94A41345C00C
:10284000009388000E945E144A95D1F70895109372
:1028500088000E945E14109388000E945E141093FA
:1028600088000E945E14109388000E945E140093FA
:1028700088000E945E14009388000E945E144A95AE
:1028800031F70895109388000E945E1404C00093ED
:1028900088000E945E14209388000E945E141093AA
:1028A00088000E945E14209388000E945E1410939A
:1028B00088000E945E144A9551F70895B19BFECF9F
:1028C00030E830938200B19A08950093880080E048
:1028D0001F910F9108958EBD0DB407FEFDCF089591
:1028E0008FEF0E946B148EB50895FF920F931F9384
:1028F000CF93DF93C82FD42F152F062FF72E87FFE6
:1029000009C040E050E0BA0187E70E9475148230A8
:1029100030F5CF772A9A0E9470142A980E9470147A
:102920008C2F0E946B148F2D0E946B14802F0E949D
:102930006B14812F0E946B148D2F0E946B1485E9FC
:10294000C03421F087E8C83409F081E00E946B149C
:10295000CAE00E94701487FF02C0C150D1F7DF9116
:10296000CF911F910F91FF9008950F931F93CF93D5
:10297000DF93462F572FBC014115510561057105A5
:1029800001F18091520483FD07C089E0440F551F77
:10299000661F771F8A95D1F788E50E947514C1E0FC
:1029A00081110DC08FEF0E946B148EEF0E946B148B
:1029B00080E092E09093510480935004C0E0D0E016
:1029C00012C0C0915004D0915104CE3F8FEFD80770
:1029D00081F40E9470148F718530E9F0C1E0D0E07D
:1029E0002A9A0E947014CE01DF91CF911F910F910E
:1029F000089580E00E946B142197E7CFCE010197E4
:102A0000F1F7015011090E9470148F3F49F0011530
:102A10001105A1F7E3CF08E813E1C0E9D1E0F3CF56
:102A2000C1E0012BE1F2C0E0DACFAF92BF92CF92CA
:102A3000DF92EF92FF920F931F93CF93DF9300D01B
:102A400000D0CDB7DEB780915204882339F01A99AF
:102A500005C060E070E0CB010E94B514289A209A6E
:102A6000229A219A879A83E58CBD1DBC2A9A1AE086
:102A70000E9470141150E1F740E050E0BA0180E488
:102A80000E947514182F8130D9F01092520483E5FA
:102A90008CBD1DBC10E02A9A0E94701481E01111B7
:102AA00080E00F900F900F900F90DF91CF911F91CA
:102AB0000F91FF90EF90DF90CF90BF90AF9008956F
:102AC0004AEA51E060E070E088E40E9475148130C9
:102AD00009F04BC08E010F5F1F4F6E0185E0C80EDD
:102AE000D11C78010E947014F70181937F01EC15CD
:102AF000FD05C1F78B81813041F68C818A3A29F638
:102B000020E1E22E27E2F22E30E9A32EBB24B3947B
:102B100008C0C5010197F1F7F1E0EF1AF10809F4D7
:102B2000B4CF40E050E060E070E489EE0E9475149C
:102B30008111EFCF40E050E0BA018AE70E9475149E
:102B40008111A3CF0E947014F80181938F01EC15BD
:102B5000FD05C1F7898114E086FD1CE01093520445
:102B600080E58CBD81E08DBD96CF40E050E0BA019C
:102B700089EE0E94751401E4823010F412E009EE2F
:102B800080E1E82E87E2F82E90E9C92EDD24D39467
:102B900040E050E0BA01802F0E94751481110AC0F4
:102BA00040E052E060E070E080E50E947514811121
:102BB0006CCFD4CFC6010197F1F7F1E0EF1AF1081D
:102BC00039F763CFAF92BF92CF92DF92EF92FF922D
:102BD0000F931F93CF93DF936C015901780180917C
:102BE000520483FD07C089E0440F551F661F771FFD
:102BF0008A95D1F781E50E947514811108C0C0E45F
:102C0000DCE90E9470148F3F29F42197D1F7C1E0CD
:102C1000D0E01EC08E3FD9F7C2E0D2E0CE19DF0966
:102C2000CA19DB09A114B10411F5C114D10429F1A9
:102C30005601EFEFCE1ADE0A0E947014F501808370
:102C4000F1E0EF1AF108A1F70E9470142197E1F763
:102C50002A9A0E947014CE01DF91CF911F910F919B
:102C6000FF90EF90DF90CF90BF90AF9008950E94BB
:102C7000701481E0A81AB108D5CF0E94701481E0C9
:102C8000E81AF108D1F7E0CFEF92FF920F931F936C
:102C9000CF93DF93EC018091520483FD07C089E05C
:102CA000440F551F661F771F8A95D1F781E50E9453
:102CB0007514882369F0C1E0D0E02A9A0E9470144C
:102CC000CE01DF91CF911F910F91FF90EF9008956A
:102CD00000E41CE90E9470148F3F21F40150110997
:102CE000C9F7E9CF8E3F39F78E011E5F7E0121962D
:102CF0000E947014F7018083C017D107B9F70E94B2
:102D000070140E947014D0E0C0E0D7CFEF92FF9211
:102D10000F931F93CF93DF93F82EE92E80915204E7
:102D200083FD07C089E0440F551F661F771F8A95F2
:102D3000D1F788E50E947514882369F0C1E0D0E0DE
:102D40002A9A0E947014CE01DF91CF911F910F91AA
:102D5000FF90EF9008958FEF0E946B148EEF0E940A
:102D60006B1400E012E010934F0400934E04011521
:102D7000110589F480E00E946B1480E00E946B14BE
:102D8000C4ECD9E00E9470148F71853071F02097E7
:102D9000A9F22197F7CFCF2DDE2D89910E946B14D8
:102DA00001501109FC2EED2EDECFCD2B39F208E8B3
:102DB00013E1C0E9D1E005C0CE010197F1F7015060
:102DC00011090E9470148F3F21F001151105A1F720
:102DD000B5CFC1E0012B09F4B2CFC0E0B0CFCF93A3
:102DE000DF9300D000D0CDB7DEB7FC012081318168
:102DF00042815381CA01B9010F900F900F900F903B
:102E0000DF91CF910895CF93DF9300D000D0CDB75D
:102E1000DEB769837A838B839C83E0915304F091BE
:102E200054049B01AC0122503109410951098681AA
:102E30009781A085B1850297A109B10928173907A3
:102E40004A075B0718F5A281B0E00E949A276983C0
:102E50007A838B839C8382899389A489B58929810C
:102E60003A814B815C81280F391F4A1F5B1F2983E0
:102E70003A834B835C8369817A818B819C810F903B
:102E80000F900F900F90DF91CF91089519821A82C1
:102E90001B821C82F0CF0F931F93CF93DF9300D040
:102EA00000D0CDB7DEB7FC01A0915304B09154041B
:102EB0008C918330E1F484899589B0E0A0E0DC0155
:102EC00099278827428D538D70E060E08A019B012D
:102ED000082B192B2A2B3B2BC901B8010F900F90FF
:102EE0000F900F90DF91CF911F910F91089580E087
:102EF00090E0DC01E7CF0F931F93CF93DF93EC01BA
:102F0000E0915304F0915404198218826C817D8100
:102F10008E819F81613071058105910581F1068166
:102F2000178120853185601771078207930738F56F
:102F3000611571058105910539F42081233021F453
:102F40006685778580899189688779878A879B8755
:102F5000611571058105910569F00E9403176C8761
:102F60007D878E879F8790E080E0DF91CF911F91D2
:102F70000F9108956685778580899189F0CF81E0EA
:102F800090E0F3CF4F925F926F927F92AF92BF9299
:102F9000CF92DF92EF92FF920F931F93CF93DF9325
:102FA000CDB7DEB728970FB6F894DEBF0FBECDBF02
:102FB0006B017C01A0905304B090540482E0C816C9
:102FC000D104E104F10428F461E070E080E090E0D5
:102FD0005CC0F50186819781A085B185C816D906A8
:102FE000EA06FB0688F78081823009F463C08330EB
:102FF00009F47CC0813041F72B0156944794460E6A
:10300000571E92013170452C55244694712C612C29
:103010004285538564857585440D551D661D771D54
:1030200002E010E0CE0101962F3FF1E03F07D9F416
:1030300001E010E02FEF31E0CE0101960E94E21591
:10304000892B11F6F50142855385648575854F5F9F
:103050005F4F6F4F7F4F440D551D661D771D30E04C
:1030600020E0CE0102960E94E215892B09F0ACCF38
:1030700069817A81C0FC02C07F7005C0E4E076956A
:103080006795EA95E1F790E080E028960FB6F8940E
:10309000DEBF0FBECDBFDF91CF911F910F91FF908B
:1030A000EF90DF90CF90BF90AF907F906F905F9048
:1030B0004F9008959B013327220F331F77276F2DE1
:1030C0005E2D4D2D82859385A485B585480F591FAA
:1030D0006A1F7B1F02E010E0CE0101960E94E215FC
:1030E000892B09F071CF69817A81CDCF9B012F7730
:1030F0003327220F331F220F331FB701A60197E09A
:1031000076956795579547959A95D1F782859385DA
:10311000A485B585480F591F6A1F7B1F04E010E086
:10312000CE0101960E94E215892B09F04DCFCE0108
:1031300001960E94EF169F70A8CFCF92DF92EF9278
:10314000FF920F931F93CF93DF93CDB7DEB72A97EC
:103150000FB6F894DEBF0FBECDBF8D839E83E09087
:103160005304F0905404AD81BE810D911C910F5F0A
:103170001F4F89F483E090E02A960FB6F894DEBFE3
:103180000FBECDBFDF91CF911F910F91FF90EF90B8
:10319000DF90CF900895ED81FE8184859585A68589
:1031A000B7850097A105B10529F398012F70332742
:1031B000232BC9F40196A11DB11D84879587A6878D
:1031C000B78780859185A285B38589839A83AB83F0
:1031D000BC83892B8A2B8B2B69F4F7018481958121
:1031E0000817190738F6AD81BE810D931C9390E046
:1031F00080E0C2CFD70112968C918150990B980133
:1032000044E0369527954A95E1F782239323892B4D
:1032100051F769817A818B819C810E94C21762304B
:10322000710581059105E0F0F701C680D780E08443
:10323000F1846C157D058E059F0508F09BCFAD814F
:10324000BE8118966D937D938D939C931B970E94DE
:103250000317ED81FE816487758786879787C3CFC3
:1032600081E090E089CFCF92DF92EF92FF920F93AF
:103270001F93CF93DF93EC016A017B0102E010E022
:103280002EEF31E00E94E215892B31F5888199817A
:1032900085359A4A59F526E330E0A601B701CE01FB
:1032A0000E94E215892B29F4888199818634914402
:1032B00089F002E010E022E530E0A601B701CE017E
:1032C0000E94E215892BA1F481E0288139812634FE
:1032D000314419F480E001C083E0DF91CF911F9168
:1032E0000F91FF90EF90DF90CF90089582E0F5CF9F
:1032F00081E0F3CFCF92DF92EF92FF920F931F9373
:10330000CF93DF93EC017B01CA016C01DC012C91AE
:1033100001962032D1F32F3209F46C011C821D82F8
:103320001E821F82F6018081803208F062C0CE01C9
:103330000E947B179C01D7011C92C901DF91CF919C
:103340001F910F91FF90EF90DF90CF900895C40EE2
:10335000D11C81E0913208F080E0F8018387CE0132
:103360000E947B179C01892B41F7288139812F709E
:10337000332785E0220F331F8A95E1F74C855D8561
:103380006E857F8500E210E0C7010E94E2159C0176
:10339000892B09F056C0D7018C91882309F454C0B9
:1033A0001B964C9143FD11C08A819B81BC01655FD6
:1033B0007F4FFC011E2D5F2D6E177F0769F0A12F37
:1033C000B52F1D915191151721F0CE010E949D1826
:1033D000C9CF1A2F5B2FF0CFFC0183858111ADCFB0
:1033E00044FF32C0C7010E944B176C837D838E83DC
:1033F0009F830A811B814BE050E060E270E0C801CE
:103400000E94CD2720E090E088E041E0490FF601DE
:10341000E90FF11D9081913208F499CF9F3209F4A0
:1034200096CF9E32A1F0281708F091CFF801E20F55
:10343000F11D9083382F81E0820F282F942F832F46
:10344000E4CF21E030E079CF23E030E076CF883060
:1034500009F07DCF3BE0F1CF4F925F926F927F9268
:103460009F92AF92BF92CF92DF92EF92FF920F9313
:103470001F93CF93DF93CDB7DEB7E0970FB6F894E5
:10348000DEBF0FBECDBF5C011092540410925304F6
:103490000E94151502E010E080FD1FC040E050E0E2
:1034A000BA019E012F5F3F4F3901C9010E943319B4
:1034B000562C972CC12CD12C76018130B1F500E12E
:1034C00010E02EEB31E040E050E0BA01C3010E9471
:1034D000E215892BC9F001E010E0C801E0960FB6B3
:1034E000F894DEBF0FBECDBFDF91CF911F910F913A
:1034F000FF90EF90DF90CF90BF90AF909F907F9024
:103500006F905F904F9008958D81811103C006E008
:1035100010E0E3CFCE0109960E94EF166B017C010B
:10352000BC01A601C3010E9433198330A1F28111AD
:10353000EECF04E210E02DE030E0B701A601852DCA
:10354000992D0E94E2158C01892B29F68A859B858D
:103550009C0150E040E0892B31F4CE0148960E9456
:10356000EF169B01AC01AC81B0E00E949A2769A7DD
:103570007AA78BA79CA78A819B819C0150E040E0A1
:103580002DA33EA34FA358A72C013A014C0C5D1C60
:103590006E1C7F1CD5011A964D925D926D927C92A5
:1035A0001D97998012969C921297ED80FE80159639
:1035B000FC92EE9214978F8198859C0150E040E038
:1035C0002DA73EA74FA758AB892B41F4CE014496B7
:1035D0000E94EF166DA77EA78FA798AB84E0F694A4
:1035E000E7948A95E1F76701F12CE12C8DA19EA16A
:1035F000AFA1B8A58C0D9D1DAE1DBF1D29A53AA577
:103600004BA55CA5820F931FA41FB51F2DA53EA53A
:103610004FA558A9281B390B4A0B5B0B2DA33EA3C2
:103620004FA358A7292D30E050E040E06DA17EA1C6
:103630008FA198A50E947227DA01C9010296A11DE7
:10364000B11DF50186839783A087B187265F3F4030
:10365000410951092F3F3F4E41055105E8F1873F90
:103660002FEF9207A105B10528F183E0D5018C93D6
:10367000CE0180960E94EF16462F572FBC01F50110
:1036800046875787608B718BC40CD51CE61CF71CD2
:1036900029A53AA54BA55CA5C20ED31EE41EF51EB6
:1036A000C28AD38AE48AF58A1182B0925404A09225
:1036B000530413CF873F9F40A105B10508F027CFE2
:1036C00081E0D5018C9349A55AA56BA57CA5440D35
:1036D000551D661D771DD3CF873F9F4FA105B105AF
:1036E00020F682E0EECFEF92FF920F931F93CF93DD
:1036F000DF93CDB7DEB7EC970FB6F894DEBF0FBE01
:10370000CDBFAC01E0905304F090540405E010E00C
:10371000E114F10489F1D70111961C92CE01C196F2
:103720009CA38BA3BE016F5F7F4F40970E947A19C5
:103730008C01892B09F58981882361F18C8584FDB1
:1037400029C0CE0101960E944B17F701668F778F33
:1037500080A391A3CE014D960E94EF16D7015A96F1
:103760006D937D938D939C935D97F701168A178ACD
:10377000108E118E81E08183C801EC960FB6F8940B
:10378000DEBF0FBECDBFDF91CF911F910F91FF9094
:10379000EF90089503E010E0EFCF0F931F93CF93C6
:1037A000DF93CDB7DEB7AC970FB6F894DEBF0FBE90
:1037B000CDBF8C01AB01809153049091540425E05E
:1037C00030E0892B29F1CE018196D80113969C9384
:1037D0008E931297BE016F5F7F4FC8010E947A19C6
:1037E0009C01892BA9F48981882371F08C8523E0C1
:1037F00030E084FF0DC0CE0101960E944B17F80106
:103800006483758386839783C8010E947B179C011C
:10381000C901AC960FB6F894DEBF0FBECDBFDF91E5
:10382000CF911F910F910895CF92DF92EF92FF9267
:103830000F931F93CF93DF93CDB7DEB7AC970FB63F
:10384000F894DEBF0FBECDBF7C016B0180915304A5
:103850009091540425E030E0892B81F0CE018196CF
:10386000D70113969C938E93129723E030E0672B39
:1038700009F043C0C7010E947B179C01C901AC96A7
:103880000FB6F894DEBF0FBECDBFDF91CF911F9171
:103890000F91FF90EF90DF90CF900895F701208176
:1038A00031812F70332785E0220F331F8A95E1F78E
:1038B00000E210E0CE0101960E94E215892B09F08A
:1038C00043C08981882309F442C09C85853E21F04C
:1038D0008E3211F093FF20C0C7010E949D189C01F9
:1038E000892B59F0D7011C961D921D921D921C9296
:1038F0001F972330310511F60FC0D7011C964D914B
:103900005D916D917C911F97411551056105710580
:1039100029F62115310531F78601075F1F4FF701A1
:1039200084859585A685B785892B8A2B8B2B91F469
:10393000F8011082C7010E949D189C01039709F0AD
:103940009DCF30E020E09ACF21E030E0CBCF23E0E4
:1039500030E0C8CFDE01119696012F5E3F4F8D916A
:10396000803249F0853009F485EEF8018193E21741
:10397000F30771F589018985803281F0F8018EE2C3
:103980008193DE011996C80104968F012D91203292
:1039900029F02193E817F907C1F78C018C85F6010E
:1039A0008087CE014D960E94EF16D6016D937D93D0
:1039B0008D939C931397898D9A8D15969C938E93D6
:1039C00014978F89988D17969C938E931697B0CFE6
:1039D0008F01C5CFCF93DF9300D000D0CDB7DEB736
:1039E000E0915304F0915404868D978DA0A1B1A16C
:1039F00089839A83AB83BC83BC01CD010F900F9068
:103A00000F900F90DF91CF910C940317CF92DF921C
:103A1000EF92FF92CF93DF93C0915304D09154045F
:103A2000CE8CDF8CE8A0F9A0C114D104E104F1042C
:103A300049F481E090E0DF91CF91FF90EF90DF902B
:103A4000CF900895A895C701B6010E94C217462FCE
:103A5000572FBC018E819F81A885B98548175907CA
:103A60006A077B0720F040E050E060E070E08FEFF5
:103A7000C81AD80AE80AF80AC416D506E606F706F0
:103A800019F46A017B01D0CF81E0452B462B472BEF
:103A900089F280E0CFCF2F923F924F925F926F9248
:103AA0007F928F929F92AF92BF92CF92DF92EF92CE
:103AB000FF920F931F93CF93DF9300D000D0CDB729
:103AC000DEB7782E692E69834B83122F502E670143
:103AD0000E94D51D882309F187E0E82EE10EE694C7
:103AE000E694E6948B81580E812F8695869586956F
:103AF000882E912C312E98EF899F300C1124E9816A
:103B0000E95FEA83812F887FF981F80FFC832F2EEC
:103B1000230CF12C8B81851144C00F900F900F90D6
:103B20000F90DF91CF911F910F91FF90EF90DF9059
:103B3000CF90BF90AF909F908F907F906F905F904D
:103B40004F903F902F900895F501049122E04B8112
:103B5000642D872D962D0E945E24FFEFAF1ABF0AB9
:103B600089818850898398E0490EE981E83060F7BF
:103B7000F601E80DF91D332071F0B490AC80B0FE71
:103B800006C04B816A2D872D962D0E945524A39443
:103B9000B694A210F4CFCE0CDF1CFB81FF5FFB8339
:103BA000B9CF560119834A80E0CF0F93FC01015031
:103BB000040F84A996A9941788F0081710F4041725
:103BC00078F42150260F83A995A9961758F0281745
:103BD00060F481E0261720F40F910895081778F714
:103BE00080E0FACF2817A8F7FBCF81E0F5CFDB0103
:103BF0001496ED91FC9130E020E061E00994DB0146
:103C00001496ED91FC9130E020E063E00994DB0133
:103C10001496ED91FC9130E020E040E064E00994DE
:103C2000DB011496ED91FC9130E020E041E064E08E
:103C30000994DB011496ED91FC9130E020E062E004
:103C40000994DB011496ED91FC9130E020E065E0F1
:103C50000994DB011496ED91FC9166E00994CF92F2
:103C6000DF92EF92FF920F931F93CF93DF93F82E83
:103C7000E92ED62EC72E8A0180E0F801C491811169
:103C800011C081E0CF3F59F04C2F6D2D7C2D8F2D31
:103C90009E2D0E94211E882309F43FC080E00F5F03
:103CA0001F4FEBCF4FEFCF3F81F3CE3FB9F1C03F76
:103CB000A8F7C03E48F04C2F4F706D2D7C2D8F2DF6
:103CC0009E2D0E94191EEACFC03D48F04C2F4F7028
:103CD0006D2D7C2D8F2D9E2D0E94FF1DDFCFC03CB2
:103CE000B8F06D2D7C2D8F2D9E2D0E94071EC29544
:103CF000C07FCE5FD0E0CE010E942A206D2D7C2DAA
:103D00008F2D9E2D0E94101ECE010E942A20C6CF0C
:103D10008C2F90E0C7FFF9CFC1CF80E0DF91CF912A
:103D20001F910F91FF90EF90DF90CF900895CF9368
:103D3000DF93EC018BA5882389F088E70E944C1F54
:103D4000811104C080E0DF91CF9108958EA181118F
:103D500007C00E948C1F8823A9F31BA681E0F3CF24
:103D600080E4F7CF0F931F93CF93DF93FC01C62F0F
:103D7000D42F8901653081F148F4623009F449C0DB
:103D8000633011F16130B9F0C1E018C0663091F1D3
:103D90006730D1F70E94971E882311F1DD23A1F32C
:103DA000F80184910E948C1FC82F882339F00F5F7F
:103DB0001F4FD150F3CF86A50E94121F8C2FDF9189
:103DC000CF911F910F91089516A281E083A7411111
:103DD000DBCF0E94B01FD8CF0E94971E811104C074
:103DE0000E94B01FC0E0EACF8D2F0E948C1F81116E
:103DF000CBCFF6CF0E94971E882391F3DD2321F2CB
:103E0000F80181918F010E948C1F882349F3D150C2
:103E1000F5CF46A381E083A7B7CF10925704109245
:103E200055040895809356041092B90084FF05C08C
:103E30008CE08093B8000C940D1F88E4FACFCF93E8
:103E4000DF9300D0CDB7DEB720ED37E03A8329838A
:103E50009091BC009823961302C081E013C0298181
:103E60003A81232BA1F490915604892F827091FD01
:103E7000F4CF90915704911105C091E090935704AD
:103E8000409355040F900F90DF91CF9108952981B1
:103E90003A8121503109DACFCF93C82F84EA809339
:103EA000BC0041E060E880E80E941F1F811103C050
:103EB00080E0CF9108959091B900987F983069F093
:103EC000903159F0809157048111F2CF92E0909394
:103ED000570491E090935504ECCFC093BB0084E865
:103EE0008093BC0042E060E880E80E941F1F8823A6
:103EF000F9F28091560481FD0DC08091B900887F50
:103F0000883141F0809157048111D2CF92E0909393
:103F10005704E0CF81E0CDCF8093BB0084E880934D
:103F2000BC0043E060E880E80E941F1F8823B9F0CE
:103F300090915604892F827091FD10C09091B90024
:103F4000987F983259F090915704911108C092E0EF
:103F50009093570493E090935504089581E0089559
:103F600084E98093BC0044E060E080E10C941F1F72
:103F7000CF93DF9300D0CDB7DEB770E0660F771F29
:103F8000680F791F42E050E0CE0101960E94B427ED
:103F900089819A810F900F90DF91CF910895880FBA
:103FA000880F880F860F0895CF93C82F682F6695C6
:103FB0006695669585ED95E00E94B81FFC018081AD
:103FC000C77021E030E001C0220FCA95EAF7822BCA
:103FD0008083CF910895CF93C82F682F66956695FB
:103FE000669585ED95E00E94B81FFC012081C770A1
:103FF00081E090E001C0880FCA95EAF7809582239E
:104000008083CF910895CF93DF93C82FD62F682F49
:1040100066956695669589EC95E00E94B81FFC014F
:10402000C77081E090E001C0880FCA95EAF7D1110E
:104030000AC09FB7F89420818095822380839FBF18
:10404000DF91CF9108952FB7F8949081892B8083C9
:104050002FBFF6CF9C014EE95FE02115310509F431
:104060000895CA010197F1F721503109F6CFAF92B7
:10407000BF92CF92DF92FF920F931F93CF93DF9364
:104080008C01EB01F42E590180E1481709F470C04E
:104090008417B8F0EAE04E1709F45FC0FFE04F174D
:1040A00009F47AC095014F2DBE01C801DF91CF916F
:1040B0001F910F91FF90DF90CF90BF90AF900C9425
:1040C0001A2581E1481709F464C0E5E14E13EACFEF
:1040D000CA80DB8045EF55E0C8010E942F1EF60123
:1040E0004481440F406BBE01C8010E94211E41E083
:1040F000BE01C8010E94191EF60126813781458143
:10410000BE01C8010E94291E40E0BE01C8010E94F4
:10411000FF1D45EF55E0BE01C8010E942F1EF601AC
:104120004481440F4F5F406BBE01C8010E94211EB5
:1041300041E0BE01C8010E94191EF6014581268199
:104140003781240F311DBE01C8010E94291E40E0A5
:10415000BE01C8010E94FF1DA5CF42E0C8010E9418
:10416000F71D4DEF55E0BE01C8010E942F1E9ACFEA
:104170004CEE55E0BE01C8010E942F1E81E0DF9188
:10418000CF911F910F91FF90DF90CF90BF90AF9094
:10419000089541EE55E0EECF41E0C8010E94FF1DB9
:1041A00040E0BE01C8010E94191E41E8BE01C801DD
:1041B0000E94211EF5014081BE01C8010E94211EFE
:1041C00040E0BE01C8010E94FF1DD8CFFC01E60FF0
:1041D000F11D849190E0982F88273196E4918E0FFD
:1041E000911D0895FC01849108950E94F2208D7F15
:1041F00011F486E0089583E0089580E00895FC01BD
:10420000808D8F5F089566E00C94E62068E00C9442
:10421000E6200A96FC01849108950B96FC01849196
:1042200008959F92AF92BF92CF92DF92EF92FF924A
:104230000F931F93CF93DF938C01C62EDC0114964E
:10424000ED90FC90C7010E94F220C82FC7010E9488
:10425000F520982E2FE0A22EC13011F0AA24AA94A6
:10426000C7010E940921D82EC7010E940D21B82E36
:10427000C7010E940621EC01B0E6BC1530F5892B80
:1042800021F1CE0DDF1D91E6D92EBC1478F5D801B1
:1042900050961C92509753961C92539754961C928A
:1042A000549751961C92519752961C92D0E0C0E0C0
:1042B000CE01DF91CF911F910F91FF90EF90DF9092
:1042C000CF90BF90AF909F900895C7010E940321A7
:1042D000EC01E0E4EC1538F4892B29F0CE0DDF1D5C
:1042E00081E4D82ED2CFE7016196CFCFBD1478F20A
:1042F000892D90E0FE0124912F3F29F42196DB14B3
:1043000031F2D394F7CFDC1045C0C7010E94F220F0
:104310009E012F5F3F4F8D7FFE01D9F48491D8011C
:1043200053968C935397F901249154962C93549758
:104330003296E4915096EC935097FE013496E491B6
:104340005196EC935197FE013596E4915296EC9379
:10435000AFCF8491982F9F709250D80152969C9322
:10436000529782958F7051968C935197F9012491B1
:10437000822F8F7054968C93549722952F7053965A
:104380002C935397FE013296E491E295EF7050968C
:10439000EC938ECF3296E491EA219C012E0F311DD1
:1043A000C20FD31FACCF6F927F928F929F92AF922A
:1043B000BF92CF92DF92EF92FF920F931F93CF9312
:1043C000DF93EC01762E142F622F0E9411216C01D5
:1043D00080E0C114D104B1F08C819D810E94F52050
:1043E000B82EFB88EC888989780E1E198A89181BDB
:1043F0000E2D2F2D412F672DCE010E94D51D81112D
:1044000010C08889DF91CF911F910F91FF90EF909D
:10441000DF90CF90BF90AF909F908F907F906F90E4
:104420000895CB0CD11C87E0F80EF694F694F69420
:10443000E10E8F2C912C1E1521F3672C56010DC017
:10444000F501049120E0412F662DCE010E945E24EB
:10445000FFEFAF1ABF0A88E0680E8A2D8C198F15FE
:1044600078F3C80CD91C1F5FE6CFCF92DF92EF9292
:10447000FF920F931F93CF93DF93EC01162FD42E4F
:10448000C22E032FED89FE890995D80EEC2CF02E53
:1044900000E0F70121917F0121110AC0802FDF91F7
:1044A000CF911F910F91FF90EF90DF90CF900895E3
:1044B0004D2D612FCE010E94D321180F080FE9CF97
:1044C000DF92EF92FF920F931F93CF93DF937C01C4
:1044D000162FD42EE901DC015596ED91FC9109953A
:1044E000D80E00E0FE012491222349F04D2D612FCA
:1044F000C7010E94D321180F080F2196F3CF802FF8
:10450000DF91CF911F910F91FF90EF90DF90089571
:10451000DC0114962D913C9115972115310541F13F
:1045200057968C915797F901811123C03596849144
:10453000245F3F4FF901249158968C9358975996D0
:104540002C935997E82F880FFF0BE21BF10927FDE9
:10455000F3955A968C915A97803441F0E89FF00178
:10456000112486E0F695E7958A95E1F75B96EC9342
:104570000895813029F43F968491205F3F4FDACF30
:104580003D968491225F3F4FD5CFFC01178A0C9452
:1045900088222DEF30E2FC01368B258B08952FEF1A
:1045A00030E2FC01368B258B0895FF920F931F9309
:1045B000CF93DF93EC018B01F12CF80161918F0116
:1045C000662331F0CE010E9411218889F80EF5CFC3
:1045D0008F2DDF91CF911F910F91FF900895FF9242
:1045E0000F931F93CF93DF938C01EB01F12CFE010E
:1045F0006491662341F0C8010E941121F80180896D
:10460000F80E2196F4CF8F2DDF91CF911F910F914E
:10461000FF900895CF93DF93EC012C813D81261705
:10462000370741F07D836C830E9488228DEF90E2F2
:104630009E8B8D8BDF91CF9108951F93CF93DF9346
:10464000EC011D821C821F821E82198611E01887D0
:1046500082E28A871F861E864EE050E06FEF70E090
:10466000CE0183960E94CD2718A3CE010E94C922B5
:104670001F8B188E198E80E48A8F1B8E8DE597E232
:104680009AAB89ABDF91CF911F910895DB01ED913A
:10469000FC9109940F931F93CF93DF93EC018B014F
:1046A000E9A9FAA982E0099530E020E04AE0B801E2
:1046B000CE010E944623182FE9A9FAA983E00995A3
:1046C000E9A9FAA980E00995812FDF91CF911F9187
:1046D0000F9108950F931F93CF93DF93EC018B01FC
:1046E000E9A9FAA982E00995E9A9FAA981E0099561
:1046F00030E020E044E1B801CE010E9446239E0153
:104700002D5C3F4F47E1B801CE010E944623E9A945
:10471000FAA980E0DF91CF911F910F910994FF9248
:104720000F931F93CF93DF93EC01F62E072FE9A988
:10473000FAA982E00995E9A9FAA981E0099530E092
:1047400020E045E16F2D702FCE010E944623182FE7
:10475000882349F09E012D5C3F4F47E16F2D702F5C
:10476000CE010E944623E9A9FAA980E00995812F8C
:10477000DF91CF911F910F91FF900895FC01448F1D
:10478000258F9C01245E3F4F42E30C944623CF9338
:10479000DF930F92CDB7DEB79E012F5F3F4F46E408
:1047A0000E94462389810F90DF91CF910895CF9386
:1047B000DF930F92CDB7DEB79E012F5F3F4F47E4E7
:1047C0000E94462389810F90DF91CF91089530E0B8
:1047D00020E048E40C944623CF93DF93EC016A81F8
:1047E0007B810E94C72388836A817B81CE010E94DE
:1047F000D72389836A817B81CE010E94E7238B873F
:104800009E012D5C3F4F6A817B8147E1CE01DF91A4
:10481000CF910C944623CF93DF93EC016A817B8187
:104820000E944A23882321F0CE010E94EC2381E0DC
:10483000DF91CF910895FF920F931F93CF93DF9352
:10484000EC01F62E072F142F0E941D23FA820B83F2
:104850001EA7CE01DF91CF911F910F91FF900C9475
:104860000B24FC01628173810C946A23CF93DF9344
:10487000EC01EE85FF85309709F009956A817B810F
:10488000CE01DF91CF910C948F23FC016281738163
:1048900030E020E040E10C944623FC01628173810A
:1048A00030E020E041E10C944623FC01862F242FC8
:1048B00062817381482FCF010C94BE230F93FC01BA
:1048C00082819381648F458F278F068F9F01245E9D
:1048D0003F4F4BE3BC01CF010F910C944623FC01E9
:1048E0008385883221F0823021F483E008958FEFB0
:1048F000089581E00895CF93DF93EC018B85803399
:1049000031F48FEF88A389A3DF91CF910895CE0171
:104910000E946F2488A3F8CFFC0110A20895FC0127
:10492000128280818150838314820895FC018081EA
:104930009281980F92832181921760F494819F5FF6
:1049400094839381890F821710F08FEF820F8383F6
:1049500081E0089580E00895FC01458150E0440F16
:10496000551F70E060E0868197810C94CD27FC0193
:10497000868197813281431B342F483020F0458156
:10498000840F911D377041E050E001C0440F3A950B
:10499000EAF7FC01E60FF11D8081222319F0842B38
:1049A0008083089540958423FBCFFC01DB011196A1
:1049B0004C9111978281481760F08381841748F0E9
:1049C0006C918581681728F414962C91CF010C9472
:1049D000B7240895DF92EF92FF920F931F93CF9326
:1049E000DF93082FF92EEB011A812B81E12CD12CBA
:1049F000243048F430E0F901E65DFE4FD0802A5DB6
:104A00003E4FF901E08017FF05C0BE01802F9F2DAA
:104A10000E94D52428812D0D288329812E0D2983DC
:104A2000110F89F7DF91CF911F910F91FF90EF90B8
:104A3000DF9008950F931F93CF93DF938901FB01BC
:104A4000C281D3814233F1F060F4453139F147310D
:104A500071F14431E1F081E0DF91CF911F910F912D
:104A60000895463449F1473459F14B33A1F7B90160
:104A7000CE010E948725882371F3B801CE010E94E0
:104A8000EA24E9CFB901CE010E94D524E4CFCE01BA
:104A90000E94AC24CE010E948F24DDCFCE010E9463
:104AA00096248823C9F2CE010E94AC24D4CFB90148
:104AB000CE010E947725CFCF8D81F8018083CBCFA7
:104AC0008981FBCFFC0191E08381861708F490E097
:104AD00021E0461708F020E081E03281431708F416
:104AE00080E0392F322B83239223892B0895DC0118
:104AF000FB01108212968C911297818315968C91EE
:104B000015978150828313968C9183830895FB01BE
:104B10006181238148E0460F213019F0462F233070
:104B200011F00C9462256850FCCFCF92DF92EF9287
:104B3000FF920F931F93CF93DF93182FD92FE62E59
:104B4000F42EC22FD22EC62EC20E6C2D6D1997E0F8
:104B50009D1538F16C2F687F6E0D8C2F869586958C
:104B6000869598EF899FC00D1124CC2389F087E0AA
:104B7000C827CF5FC7708FEF90E001C0880FCA953C
:104B8000EAF7082F20E04F2D812F9D2F0E945E24F1
:104B9000DF91CF911F910F91FF90EF90DF90CF9019
:104BA00008950FEF20E04F2D812F9D2F0E945E244E
:104BB00088EFD80ECACFCF92DF92EF92FF920F9379
:104BC0001F93CF93DF93182FD92FF62EE42EC22FE9
:104BD000D22EC42EC20E4C2D4D1997E09D1538F1E2
:104BE0004C2F487F4E0D8C2F86958695869598EF95
:104BF000899FC00D1124CC2389F087E0C827CF5F9F
:104C0000C7708FEF90E001C0880FCA95EAF7082FB0
:104C100021E06F2D812F9D2F0E945E24DF91CF9187
:104C20001F910F91FF90EF90DF90CF9008950FEFBD
:104C300021E06F2D812F9D2F0E945E2488EFD80EDA
:104C4000CACFDF92EF92FF920F931F93CF93DF9320
:104C5000182FD92FF62EE42ED22EC02F0E94D51D4C
:104C6000882339F12D2D4E2D6F2D812F9D2F0E94E0
:104C70009525202F4E2D6F2D812F9D2F0E94DB25F6
:104C80006FEF6D0D6F0D202F4E2D812F9D2F0E94E8
:104C9000DB25C1504C2F4E0D2D2D6F2D812F9D2FBB
:104CA000DF91CF911F910F91FF90EF90DF900C94C7
:104CB0009525DF91CF911F910F91FF90EF90DF909D
:104CC0000895EF92FF920F931F93CF93DF93182FC6
:104CD000D92FF62EE22EC42F040F2E2D4C2F6F2D20
:104CE000812F9D2F0E949525CF5FC013F6CFDF91B6
:104CF000CF911F910F91FF90EF900895DF92EF9267
:104D0000FF920F931F93CF93DF93D82FC92F162FA6
:104D1000F42EE22E0E94D51D882339F02E2D4F2D22
:104D2000612F8D2F9C2F0E946126DF91CF911F91C3
:104D30000F91FF90EF90DF90089580E00895BF926B
:104D4000CF92DF92EF92FF920F931F93CF93DF9357
:104D50008C01D42EE901FB01E280F380F2E34F17CE
:104D600009F47BC0F417C8F08CE2481709F475C049
:104D7000EDE24E17E9F0F7E14F1781F19E014D2D5D
:104D8000B701C801DF91CF911F910F91FF90EF9074
:104D9000DF90CF90BF900C94462386E4481709F427
:104DA00051C0E7E44E1709F453C0FBE34F13E6CFBD
:104DB000B701C8010E94D7239981C82EC91AB7012B
:104DC000C8010E94C7239881891B81508883CA9497
:104DD000C9828B818E5F83708B8350C047E1B7019E
:104DE000C8010E944623B701C8010E94C7239A81C7
:104DF000B82EB91ABA94B701C8010E94C723D82E99
:104E00008881D81ADA94B701C8010E94D723C82E26
:104E10008B81C81ACA94B701C8010E94D723982F62
:104E20008981981B9150B882C982DA829B8381E084
:104E3000DF91CF911F910F91FF90EF90DF90CF9076
:104E4000BF900895B701C8010E94C7238883EFCFA0
:104E5000B701C8010E94D723F9CFB701C8010E944A
:104E6000D7239981C82EC91AB701C8010E94C72348
:104E70009881891B81508883CA94C9829E014D2DD7
:104E8000B701C8010E944623D2CFFC0182819381E1
:104E900021E08031920741F0909313018093120139
:104EA00080E191E0938382838FE996E290931101F0
:104EB00080931001CF010C94EC230895AA1BBB1B17
:104EC00051E107C0AA1FBB1FA617B70710F0A61B0A
:104ED000B70B881F991F5A95A9F780959095BC012B
:104EE000CD010895A1E21A2EAA1BBB1BFD010DC026
:104EF000AA1FBB1FEE1FFF1FA217B307E407F5078A
:104F000020F0A21BB30BE40BF50B661F771F881F65
:104F1000991F1A9469F760957095809590959B01FB
:104F2000AC01BD01CF010895EE0FFF1F0590F49174
:104F3000E02D09940E94A527A59F900DB49F900D88
:104F4000A49F800D911D11240895A29FB001B39FCD
:104F5000C001A39F700D811D1124911DB29F700D82
:104F6000811D1124911D0895FB01DC0102C00590F3
:104F70000D9241505040D8F70895FB01DC018D910E
:104F8000059080190110D9F3990B0895FB01DC01FC
:104F900005900D920020E1F70895DC0101C06D93AA
:104FA00041505040E0F70895FB01DC010D900020D6
:104FB000E9F7119701900D920020E1F70895FB01A8
:104FC000DC018D91019080190110D9F3990B08959E
:104FD000BB274A3031F4992322F4BDE290958195A4
:104FE0009F4F0C94F427BB27FB015527AA27880F56
:104FF000991FAA1FA41710F0A41B83955051B9F74D
:10500000A05DAA3308F0A95DA193009779F7B111CB
:10501000B1931192CB010C940D28DC01FC01672F98
:1050200071917723E1F7329704C07C916D9370837F
:0E5030006291AE17BF07C8F30895F894FFCF42
:10503E00060637200801B21E1040000000805804FA
:10504E009D2600000000000000424F4F542E494D97
:0E505E00470048325300000100FF0100FF0030
:00000001FF
