:100000000C94E6070C94D40A0C940E080C940E0879
:100010000C940E080C94F90A0C940E080C940E081B
:100020000C940E080C940E080C940E080C940E08F8
:100030000C940E080C940E080C940E080C940E08E8
:100040000C940E080C940E080C940E080C940E08D8
:100050000C940E080C940E080C940E080C940E08C8
:100060000C940E080C940E084E6F6E2D636F6E7418
:100070006967756F75732066696C650046696C65A4
:10008000206F70656E206661696C65640045525230
:100090004F5200464444454D550047656F6D6574A9
:1000A0007279203E2066696C6500496E636F6D70E1
:1000B00061742067656F6D6574727900556E726545
:1000C000636F676E697A656420696D616765004E6C
:1000D0006F7420666F756E640052656164205344CE
:1000E000206661696C6564004552524F5200577238
:1000F000697465205344206661696C6564005265CB
:100100006164205344206661696C65640045525205
:100110004F52004E6F206469736B000000000008AE
:1001200000001C00001C00003600003600006300C8
:10013000006300004B0080C90080DD00C09C01C04E
:100140009C01401C01600803600803300806300869
:100150000618000C18000C18180C0C18180C0018B5
:10016000FEFF3FFEFF3F000000000000FFFF1F01F9
:10017000003081FF60819F40819F40819F40819F2F
:100180004081FF40010040F1FF47F1FF47F1FF4789
:1001900071F04771E747716F4671674671F04771BB
:1001A000E74771EF4771EF47716F46717046F1FF96
:1001B00047F1FF47F5FF57010040FFFF7FFFFF1F9B
:1001C00001003081FF60819F40819F40819F40817D
:1001D0009F4081FF40010040F1FF47F1FF47F1FBE5
:1001E00047F1F947F1F147F17446F1764671E64778
:1001F00071E64731E04731EF47914F46914F46F165
:10020000FF47F1FF47F5FF57010040FFFF7FFFFF6A
:10021000FFFFFF0001000000800101C0FFFF01039C
:1002200001C0FF83010601C0FF83010C01C0FF83F1
:10023000011801C0FF83013001C0FF83012001C00C
:10024000FF83012001C0FF83012001C0FF83012043
:1002500001C0FF83012001C0FFFF01200100000059
:10026000002001000000002001000000002001002B
:1002700000000020010000000020C1FFFFFF7F20E0
:10028000C1FFFFFF7F20C1FFFFFF7F20C1FFFFFFF6
:100290007F20C1FFFFFF7F20C1FFFFFF7F20C1FF45
:1002A000FFFF7F20C1FFFFFF7F20C1FFFFFF7F20F7
:1002B000C180F1C87320C18071C87320C1FC61C8BE
:1002C0007320C1FC61C87320C1FC69C97320C1805F
:1002D00069C97320C18069C97320C1FC09C9732031
:1002E000C1FC09C97320C1FC89897120C100991919
:1002F0007820C10099397C20C1FFFFFF7F20C1FF1A
:10030000FFFF7F20C1FFFFFF7F20C1FFFFFF7F2096
:10031000C1FFFFFF7F20C1FFFFFF7F20C1FFFFFF65
:100320007F20C1FFFFFF7F20C1FFFFFF7F20C1FFB4
:10033000FFFF7F20C1FFFFFF7F200D000000002C8A
:100340000D000000002C010000000020FFFFFFFF57
:10035000FF3F464444454D55004C6F6164696E67EC
:100360002000425553590A00456C656B74726F6EDC
:10037000696B6369004163656D69002863292032F8
:10038000303231002069646C6500425553590A00CF
:1003900044726976652000464444454D55005465D5
:1003A0007374696E6720312C20322C203300455243
:1003B000524F52004C6F6164696E672000456A6558
:1003C00063746564200053656C6563746564200024
:1003D000447269766520003A2000533A2053656CD8
:1003E0006563742064726976650A503A20507265BC
:1003F00076696F75730A4E3A204E6578740A4C3AE6
:10040000204C6F61640A453A20456A656374004573
:100410006C656B74726F6E696B6369004163656DC7
:100420006900286329203230323100666464454D0A
:1004300055003A20000E1FBE5B7CAC22C0740B56E8
:10044000B40EBB0700CD105EEBF032E4CD16CD1933
:10045000EBFE54686973206973206E6F742061200D
:10046000626F6F7461626C65206469736B2E20200B
:10047000506C6561736520696E73657274206120CC
:10048000626F6F7461626C6520666C6F707079204A
:10049000616E640D0A707265737320616E79206BF2
:1004A000657920746F2074727920616761696E20AC
:1004B0002E2E2E200D0A000000000000000000007B
:1004C000000000000000000000000000000000002C
:1004D000000000000000000000000000000000001C
:1004E000000000000000000000000000000000000C
:1004F00000000000000000000000000000000000FC
:1005000000000000000000000000000000000000EB
:1005100000000000000000000000000000000000DB
:1005200000000000000000000000000000000000CB
:1005300000000000000000000000000000000000BB
:1005400000000000000000000000000000000000AB
:10055000000000000000000000000000000000009B
:10056000000000000000000000000000000000008B
:10057000000000000000000000000000000000007B
:10058000000000000000000000000000000000006B
:10059000000000000000000000000000000000005B
:1005A000000000000000000000000000000000004B
:1005B000000000000000000000000000000000003B
:1005C000000000000000000000000000000000002B
:1005D000000000000000000000000000000000001B
:1005E000000000000000000000000000000000000B
:1005F00000000000004641543132EB3C902E2E00AA
:100600002E00545854004452564200445256410061
:100610004449534B5300464444454D550066646479
:10062000454D550000002110422063308440A55004
:10063000C660E770088129914AA16BB18CC1ADD128
:10064000CEE1EFF13112100273325222B5529442D0
:10065000F772D662399318837BB35AA3BDD39CC378
:10066000FFF3DEE36224433420040114E664C7741C
:10067000A44485546AA54BB528850995EEE5CFF5C8
:10068000ACC58DD55336722611163006D776F66670
:100690009556B4465BB77AA719973887DFF7FEE718
:1006A0009DD7BCC7C448E5588668A778400861183C
:1006B00002282338CCC9EDD98EE9AFF94889699968
:1006C0000AA92BB9F55AD44AB77A966A711A500A10
:1006D000333A122AFDDBDCCBBFFB9EEB799B588BB8
:1006E0003BBB1AABA66C877CE44CC55C222C033C5C
:1006F000600C411CAEED8FFDECCDCDDD2AAD0BBD08
:10070000688D499D977EB66ED55EF44E133E322EAF
:10071000511E700E9FFFBEEFDDDFFCCF1BBF3AAF57
:10072000599F788F8891A981CAB1EBA10CD12DC1B5
:100730004EF16FE18010A100C230E320045025404B
:1007400046706760B9839893FBA3DAB33DC31CD3AB
:100750007FE35EF3B1029012F322D232354214529B
:1007600077625672EAB5CBA5A89589856EF54FE5F7
:100770002CD50DC5E234C324A014810466744764EB
:1007800024540544DBA7FAB79987B8975FE77EF74B
:100790001DC73CD7D326F2369106B016576676763B
:1007A000154634564CD96DC90EF92FE9C899E98917
:1007B0008AB9ABA94458654806782768C018E1088B
:1007C0008238A3287DCB5CDB3FEB1EFBF98BD89BEB
:1007D000BBAB9ABB754A545A376A167AF10AD01ADB
:1007E000B32A923A2EFD0FED6CDD4DCDAABD8BAD37
:1007F000E89DC98D267C076C645C454CA23C832C2B
:10080000E01CC10C1FEF3EFF5DCF7CDF9BAFBABF8A
:10081000D98FF89F176E367E554E745E932EB23E7A
:10082000D10EF01E0000250028002B00000024003F
:1008300027002A00FFE0FFD1AFFF32FFD0FFFEFF0D
:10084000E0FFD1AEFFD0FFFEFFE0FFD11000FFFEC2
:10085000FFD0FFE0FFC1FFD1AED580A83FD300405D
:100860008D142002A1C8DA1281CFD9F1DB402EA469
:10087000A6AFFFD0FFFE01060A00FE0701360268A0
:1008800020FFFE08FE07FE0A0060221767808080B6
:1008900080800080163363A0A0A00257675050F8F4
:1008A00050F850500257672070A0702870200257EF
:1008B0006748A8502050A89002576740A0A040A8C1
:1008C0009068261363808080123767204080808084
:1008D00040201237678040202020408003556588E3
:1008E00050F850880355652020F8202011336360AC
:1008F0004080055161F811336340E04002576708BA
:100900000810204080800257672050888888502037
:100910000257672060A0202020F8025767708808DF
:10092000304080F8025767F8081030088870025786
:100930006710305090F81010025767F880B0C80860
:100940008870025767304080B0C88870025767F8D7
:10095000081010204040025767708888708888709F
:100960000257677088986808106011376740E04048
:100970000040E04011376740E0400060408012478F
:100980006710204080402010045363F800F812479D
:100990006780402010204080025767708810202018
:1009A0000020025767708898A8B0807002576720AF
:1009B000508888F88888025767F04848704848F09F
:1009C00002576770888080808870025767F04848B7
:1009D000484848F0025767F88080F08080F8025756
:1009E00067F88080F08080800257677088808098E8
:1009F0008870025767888888F8888888123767E087
:100A00004040404040E0025767381010101090609E
:100A10000257678890A0C0A09088025767808080A6
:100A2000808080F80257678888D8A888888802570D
:100A3000678888C8A89888880257677088888888D7
:100A40008870025767F08888F0808080015868704D
:100A500088888888A87008025767F08888F0A09076
:100A60008802576770888070088870025767F8207E
:100A70002020202020025767888888888888700274
:100A8000576788888850505020025767888888A800
:100A9000A8D88802576788885020508888025767EE
:100AA00088885020202020025767F80810204080B6
:100AB000F8123767E08080808080E002576780808E
:100AC0004020100808123767E02020202020E00690
:100AD0005363205088015161F828226280400255FA
:100AE0006570087888780257678080B0C888C8B079
:100AF0000255657088808870025767080868988872
:100B000098680255657088F88070025767304840D1
:100B1000F04040400057677888887808887002570E
:100B2000678080B0C88888881237674000C040401E
:100B300040E010496910003010101090906002578A
:100B40006780808890E09088123767C040404040BE
:100B500040E0025565D0A8A8A888025565B0C888AD
:100B600088880255657088888870005767B0C88883
:100B7000C8B0808000576768988898680808025550
:100B800065B0C880808002556570807008F002579B
:100B9000674040F040404830025565888888986832
:100BA00002556588885050200255658888A8A8504D
:100BB00002556588502050880057678888986808D3
:100BC0008870025565F8102040F8124767304020C1
:100BD000C02040302217678080808080808012474C
:100BE00067C02040304020C006536348A890FFFFF4
:100BF000FFFFFFFFFFFFFFFFFFFFFFFFFFFFFFFF05
:100C0000FFFFFFFFFFFFFFFFFFFFFFFFFFFFFF0AE9
:100C100000602217678000808080808001576720F5
:100C200078A0A0A07820025767304840E04048B044
:100C3000025565887050708801586888885020F87F
:100C400020202022176780808000808080015868E3
:100C50007080E09048380870193161A002576770C1
:100C600088A8C8A888701346667090B05000F0023B
:100C700065652448904824144262F010154161F0E3
:100C80000257677088E8C8C88870095161F8163340
:100C90006340A0400256662020F82020F8154565E4
:100CA00060902040F0154565E0106010E028226259
:100CB0004080015666888888C8B08002576778E807
:100CC000E868282828251161802022624080153597
:100CD0006540C04040E01346666090906000F002BE
:100CE0006565904824489001696940C04040E40C23
:100CF000143C0401696940C04040E81404081C0128
:100D00005969C0204020C818287808025767200079
:100D100020204088700258684020708888F88888B1
:100D20000258681020708888F88888025868205017
:100D3000708888F8888802586848B0708888F88871
:100D4000880258685000708888F88888025868209F
:100D500050708888F888880267673C50909CF090B3
:100D60009C00596970888080808870204002586893
:100D700040F88080F08080F802586810F88080F099
:100D80008080F802586820F88080F08080F802584F
:100D90006850F88080F08080F81238688040E04029
:100DA000404040E01238682040E040404040E012BF
:100DB000386840A0E040404040E0123868A000E0C1
:100DC00040404040E0025767F04848E84848F00299
:100DD0005868285088C8A8988888025868402070A9
:100DE0008888888870025868102070888888887081
:100DF0000258682050708888888870025868285087
:100E00007088888888700258685000708888888840
:100E1000700255658850205088025767709898A8CE
:100E2000C8C870025868402088888888887002582E
:100E30006810208888888888700258682050008848
:100E4000888888700258685000888888888870026E
:100E50005868102088885020202002576780F0882A
:100E6000F0808080025767708890A09088B0025808
:100E70006840200070087888780258681020007058
:100E800008788878025868205000700878887802BE
:100E900058682850007008788878025767500070AA
:100EA000087888780258682050207008788878027E
:100EB000656578147C907C00576770888088702006
:100EC000400258684020007088F88070025868100E
:100ED00020007088F880700258682050007088F8F0
:100EE000807002576750007088F8807012386880F0
:100EF0004000C0404040E0123868408000C04040A0
:100F000040E012386840A000C0404040E01237671F
:100F1000A000C0404040E0025767C0307088888819
:100F200070025868285000B0C88888880258684005
:100F300020007088888870025868102000708888A7
:100F4000887002586820500070888888700258683D
:100F50002850007088888870025767500070888811
:100F600088700355652000F800200255657898A820
:100F7000C8F002586840200088888898680258683D
:100F80001020008888889868025868205000888857
:100F9000889868025767500088888898680059695F
:100FA00010208888986808887000586880F08888C1
:100FB00088F0808000596950008888986808887097
:100FC000CD18D118D518DD185B19611911241FBE71
:100FD000CFEFD8E0DEBFCDBF11E0A0E0B1E0E4ECA0
:100FE000F1E602C005900D92AA33B107D9F725E0CA
:100FF000AAE3B1E001C01D92AE3AB207E1F717E0F3
:10100000C6EED7E004C02197FE010E944E30C03EDC
:10101000D107C9F70E94E1180C94E0300C9400004D
:10102000E4E6F0E080818E7F808380E480937C0022
:1010300087E880937A0008956F70606460937C0005
:10104000EAE7F0E08081806480830895CF93DF93A6
:10105000D82FC92F0E94100867E08D2F9C2FDF9199
:10106000CF910C941C08809178009091790008959C
:101070000F931F93CF93DF938C0180917A0086FDAD
:1010800036C0C8010E943308EC0167E0C8010E9425
:101090001C08C53883E0D807C8F4CE0180529340BD
:1010A0008634910550F188539F4F8C33910538F168
:1010B00088539F4F8233910520F18E529F4F88971E
:1010C00010F181E0CD2B19F087E001C086E090910E
:1010D000000120910101263031F4891304C080936E
:1010E0000101863028F0909301018093000180E097
:1010F000DF91CF911F910F91089585E0E8CF84E0B3
:10110000E6CF83E0E4CF82E0E2CFCF93DF93EC0140
:10111000BC01665D7F4F805C9F4F0E94CE24FE0124
:10112000EF5AFF4F91838083892B21F481E09BA9A3
:10113000911101C080E0DF91CF910895CF93DF93AB
:10114000EC01CE010E948508882319F09AA994FD2C
:10115000F8CFDF91CF9108950F931F93CF93DF9333
:10116000EC018C010D5A1F4FF801118210820E9470
:10117000F50881110EC090E080E0DF91CF911F91C2
:101180000F910895A895F80180819181019691832E
:101190008083CE010E949E088111F4CFF8018081E6
:1011A0009181EBCFCF93DF93EC010E94E6229C016B
:1011B000FE01EF5AFF4F9183808380E0232B61F47F
:1011C000319781E0808333961182108268E171E06B
:1011D000CE010E94AC0881E0DF91CF910895FC011F
:1011E000E05BFF4F10820C94D208CF92DF92EF9217
:1011F000FF920F931F93CF93DF93EC018B016C0150
:1012000080E4C80ED11CC6010E9487249C017E0187
:10121000E1E5EE0EF11CF7019183808381E0211559
:101220003105B1F023703327232B11F480E010C077
:10123000CE010E94D2088823C9F3B801C6010E94DA
:1012400087249C01F7019183808381E0232B71F730
:10125000DF91CF911F910F91FF90EF90DF90CF9092
:101260000895CF92DF92FF920F931F93CF93DF9356
:101270008C01D42FF52E0E94F508882351F06801C7
:1012800083E3C80ED11CC8010E948508C82F8111B4
:101290000AC0C0E08C2FDF91CF911F910F91FF907A
:1012A000DF90CF900895A8956D2F7F2DC6010E94E5
:1012B000A230892B41F7EECFCF93DF93EC01C39699
:1012C0000E942D24CF5ADF4F998388834CE750E04A
:1012D000892B31F40E94C025892B71F448E650E037
:1012E0006DE870E083E894E00E94331560E070E000
:1012F000CB01DF91CF910895DF91CF910C94A4257C
:10130000CF93DF93EC018AA984FF05C06BE582E0EF
:1013100091E00E946414BE016D5C7F4F82E091E019
:101320000E94C9148AA984FF07C06DE582E091E09C
:10133000DF91CF910C946414DF91CF910895CF93F6
:10134000DF93FC011382148215821682DC0117964A
:101350008DE0ED0119928A95E9F780E5818382E1BC
:10136000828381E08083DF91CF9108954F925F92D5
:101370006F927F92BF92CF92DF92EF92FF920F9384
:101380001F93CF93DF93CDB7DEB762970FB6F89474
:10139000DEBF0FBECDBF7C01B62EC72EFC01808103
:1013A00081FF03C0C7010E949F094B2D5C2D69E19D
:1013B00071E08BE391E00E943109D82E81111DC0AC
:1013C0004FEC50E068EE70E083E894E00E94331543
:1013D0008D2D62960FB6F894DEBF0FBECDBFDF91A4
:1013E000CF911F910F91FF90EF90DF90CF90BF9022
:1013F0007F906F905F904F9008958BE391E00E94F3
:101400005C09AB01BC01F701438354838583768378
:1014100080916D0180FF03C080818460808302E140
:1014200010E026E330E0CE0101960E949C1E49EDBB
:1014300050E0892B59F58981863451F48A818134B1
:1014400039F48B81843521F48C81813309F44FC0C8
:10145000009165011091660120916701309168014A
:1014600059E036952795179507955A95D1F7003687
:10147000F9E01F0791F190F4003D82E0180791F127
:1014800080E5003A154079F14CEB50E068EE70E0F1
:1014900083E894E00E943315D12C9ACF0034FBE00E
:1014A0001F07B1F00038164179F780E5F701818315
:1014B00084E28283D70117968DE0EB2DFC2D0190FD
:1014C0000D928A95E1F7F70180818260808380CF59
:1014D00080E5F701818382E1ECCF80E5F70181832C
:1014E0008FE0E7CF88E2F701818389E0E2CFF7015F
:1014F000438154816581768102E110E02BE030E088
:10150000CE0101960E949C1E89819A81811592408C
:1015100051F488899989039734F46E857F856F3FEC
:10152000710521F01CF04AEA50E0B0CF89859A8518
:101530002C01712C612C00916501109166012091A4
:1015400067013091680149E0369527951795079511
:101550004A95D1F7041515052605370518F44AE90B
:1015600050E094CFF70162837727660F771F0E94C0
:10157000183061839FCF0C949F09CF93DF93EC01C8
:10158000888181FF03C0CE010E949F094DE050E099
:1015900063E970E0CE0107960E946E308881886012
:1015A0008883DF91CF9108958F938FB78F939F9307
:1015B0004A990FC04B9B17C08091BB019091BC0111
:1015C00001979093BC018093BB019093BC018093E1
:1015D000BB018091BA0180688093BA019F918F917D
:1015E0008FBF8F9118958091BB019091BC0101969E
:1015F000E8CF8F938FB78F934D9909C08091BA012F
:1016000081608093BA018F918FBF8F9118954C990B
:1016100004C08091BA018260F4CF8091BA018C7FBE
:10162000F0CF1092BD018AB183708AB984B1807CF9
:1016300084B987B1807F87B95F98299888B1817F05
:1016400088B98BB180638BB98BB18C648BB9289AC4
:10165000409AE9E6F0E080818C7F8083808182601F
:101660008083E89A80E380936D00E8E6F0E0808173
:101670008460808381E08093BD0178940895CF9346
:10168000DF93EC018091BD01811102C00E94110B1A
:1016900080E18C8BDF91CF910895CF93DF93D82F8A
:1016A000C92F0E94BB0A8D2F9C2FDF91CF910C94E4
:1016B0003F0B0F931F93CF93DF9300D000D0CDB794
:1016C000DEB78C01FC018781811111C063E171E0FB
:1016D00084EC91E00E94803084EC91E00F900F90B8
:1016E0000F900F90DF91CF911F910F91089583E498
:1016F0008093C4011092C50181814AE0BE016F5FF1
:101700007F4F90E00E94AB30BE016F5F7F4F84EC53
:1017100091E00E94973065E271E084EC91E00E94D4
:101720009730F80182814AE0BE016F5F7F4F90E001
:101730000E94AB30BE016F5F7F4F84EC91E00E944E
:101740009730CACFCF93DF93FC01AB01808181FF3B
:101750001FC0052E000C660B770B83819481A58139
:10176000B681480F591F6A1F7B1F81ED91E00E94CF
:10177000FE1EEC01892B41F04EEF50E06DE071E070
:1017800083E894E00E943315CE01DF91CF91089554
:10179000C1E0D0E083FFF8CF61ED71E084E894E030
:1017A000DF91CF910C94B018CF93DF93FC01AB0184
:1017B000808181FF1FC0052E000C660B770B838193
:1017C0009481A581B681480F591F6A1F7B1F81ED47
:1017D00091E00E94401FEC01892B41F04EEE50E059
:1017E0006DE071E083E894E00E943315CE01DF9153
:1017F000CF910895C1E0D0E083FFF8CF61ED71E0B3
:1018000084E894E0DF91CF910C94B018CF93DF93EC
:10181000EC010E94B609882329F09A819A3028F0B9
:1018200090E19C8BDF91CF91089590E2FACFEF92F7
:10183000FF920F931F93CF93DF93EC01888180FF7A
:1018400007C03B9A8881982F9A7011F08E7F888309
:10185000888182FF16C03A9A0E94801911E002E145
:101860003BEFF32E4EE4E42E8091BA01837059F4DD
:101870003B983A98DF91CF911F910F91FF90EF9095
:1018800008953A98E9CF579A8C890E94DA1B5798A5
:1018900080E08093C0019A81891730F78091BA0166
:1018A000837011F3A8958091BA018370E9F289B130
:1018B00086FB882780F981278093C1018091BA0136
:1018C00087FF21C08091BA018F778093BA01209160
:1018D000BB013091BC013093C3012093C20137FF9B
:1018E00065C01092C3011092C201399A8091C20161
:1018F0009091C3019093BC018093BB0188818A7051
:1019000009F467C03B988091C2019091C301880F90
:10191000991F2091C101820F911D089FB001099F5D
:10192000700D11248091C001680F711D7093BF016B
:101930006093BE01CE010E94A20B0E9480194091CB
:10194000C0016091C1018091C2010E94BA198C89C5
:101950000E946B1C8091BB019091BC012091C2013F
:101960003091C30128173907E9F484E190E0309BF6
:1019700002C00197E1F730992EC00E94A71943E0F9
:1019800052E060ED71E08C890E94D519A8950E9403
:1019900080196091BE017091BF01CE010E94D40BED
:1019A000309BFECF8091C0018F5F73CF898190E023
:1019B000281739072CF001979093C3018093C20137
:1019C0008091C2019091C301892B09F48ECF39987F
:1019D0008DCF3B9A98CFF092D00161E072E080ED1C
:1019E00091E00E9465199827892798279093D20340
:1019F0008093D103E092D30344E052E060ED71E0C4
:101A00008C890E94001BCECF2F923F924F925F9203
:101A10006F927F928F929F92AF92BF92CF92DF92FE
:101A2000EF92FF920F931F93CF93DF934C010E948D
:101A30007F2BF401908D818D292E281A3080412C26
:101A4000512C3401F3E46F0E711CC32CD12C5401C2
:101A500022E4A20EB11C052D10E0F3018081082EB6
:101A6000000C990B08171907ACF0C401DF91CF9156
:101A70001F910F91FF90EF90DF90CF90BF90AF90AC
:101A80009F908F907F906F905F904F903F902F909E
:101A90000C94352DC4013DE0539E800D911D112401
:101AA000FC01EC5BFF4F7F01BF01C4010E948F2B43
:101AB000E601C81BD109D7FD2196D595C795C4016C
:101AC0000E94352DF5018081082E000C990B80179E
:101AD000910759F4022D232D41E0440D60E0C4012B
:101AE0000E94382FC4010E94462D9701442D6C2F6F
:101AF000C4010E94EF2A5394420CADCFCF92DF92E3
:101B0000EF92FF920F931F93CF93DF93EC01188115
:101B10000E94352D8BAD5DEBE52E51E0F52E0BE1EE
:101B200027E143E061E080FFAAC0CE010E940526C4
:101B30000DE129E142E060E0CE010E94DB2E26EEBD
:101B4000210F42E06AE1CE010E94382FCE010E94AF
:101B5000462D812F8751990B6C0167E971E0CE0109
:101B60000E948F2BB601681B710977FF02C06F5F5F
:101B70007F4F759567957727695E7F4F27E931E03D
:101B800044E0CE010E94EF2A80E991E00E94590BC7
:101B9000F82E092F682F792FCE010E948F2BB601C6
:101BA000681B710977FF02C06F5F7F4F759567955E
:101BB0007727695E7F4F2F2D302F41E1CE010E94A4
:101BC000EF2ACE010E94352D8BAD3CE6E32E31E0AD
:101BD000F32E0BE127E141E261E081FF54C0CE0129
:101BE0000E9405260DE129E140E260E0CE010E945D
:101BF000DB2E26EE210F40E26AE1CE010E94382F53
:101C0000CE010E94462D6CEA71E0CE010E948F2B1E
:101C1000B601681B710977FF02C06F5F7F4F759532
:101C200067957727695E7F4F2CEA31E042E2CE016B
:101C30000E94EF2A85EA91E00E94590B8C01BC01B9
:101C4000CE010E948F2BB601681B710977FF02C07D
:101C50006F5F7F4F759567957727695E7F4F980116
:101C60004FE2CE010E94EF2ACE01DF91CF911F916A
:101C70000F91FF90EF90DF90CF900C94352DCE0117
:101C80000E94052666CFCE010E940526BCCFAF92EA
:101C9000BF92CF92DF92EF92FF920F931F93CF9359
:101CA000DF936C01FC01C081D0E069E573E00E9424
:101CB000A92B9E01281B3109C90137FD01965C0142
:101CC000B594A794F60183AD80FF49C0BE0167516A
:101CD000710977FF02C06F5F7F4F759567954DEB78
:101CE000E42E41E0F42E0BE127E140E0C6010E9422
:101CF000052629E533E040E26A2DC6010E941A2B31
:101D00005601F2E4AF0EB11CF50180811DE0B60171
:101D10008102600D711D11246C5B7F4FC6010E9412
:101D20008F2BF501908196019102200D311D112418
:101D30002C5B3F4FC81BD109D7FD2196D595C79580
:101D40004FE26C2FC601DF91CF911F910F91FF9051
:101D5000EF90DF90CF90BF90AF900C94EF2A81FF6F
:101D6000C8CFBE016751710977FF02C06F5F7F4F17
:101D7000759567952CE6E22E21E0F22EB4CFAF9256
:101D8000BF92CF92DF92EF92FF920F931F93CF9368
:101D9000DF936C01FC01C081D0E062E673E00E9439
:101DA000A92B9E01281B3109C90137FD01965C0151
:101DB000B594A794F60183AD80FF4BC0BE01675177
:101DC000710977FF02C06F5F7F4F759567954DEB87
:101DD000E42E41E0F42E0BE127E140E0C6010E9431
:101DE000052622E633E040E26A2DC6010E941A2B46
:101DF000F60183AD83708150990B15E1189FB001F6
:101E0000199F700D112469567E4FC6010E948F2BB9
:101E1000F60143AD43704150550B149F9001159F3F
:101E2000300D112429563E4FC81BD109D7FD2196EC
:101E3000D595C7954FE26C2FC601DF91CF911F91C9
:101E40000F91FF90EF90DF90CF90BF90AF900C94E8
:101E5000EF2A81FFC6CFBE016751710977FF02C02B
:101E60006F5F7F4F759567952CE6E22E21E0F22E8D
:101E7000B2CFCF92DF92EF92FF920F931F93CF9347
:101E8000DF936C01FC01C081D0E064AD75AD0E94B0
:101E9000A92B182FBE016751710977FF02C06F5F30
:101EA0007F4F759567953BE1E32E31E0F32E0BE113
:101EB00027E140E0C6010E940526F60124AD35ADBC
:101EC000BE01611B710977FF02C06F5F7F4F75957F
:101ED000679540E2C6010E941A2BF60166AD77AD08
:101EE000C6010E94A92BF60126AD37ADC81BD1094A
:101EF000D7FD2196D595C7954FE26C2FC601DF918E
:101F0000CF911F910F91FF90EF90DF90CF900C94A5
:101F10001A2BCF92DF92EF92FF920F931F93CF93E2
:101F2000DF936C01FC01C081CE52DD0B6BE773E0E7
:101F30000E94A92B182F3EE0E32E32E0F32E06E399
:101F40002EE245E061E0C6010E940526BE01611B4C
:101F5000710977FF02C06F5F7F4F7595679577278F
:101F6000625D7F4F2BE733E04AE0C6010E941A2BE7
:101F700065E773E0C6010E94A92BBE01681B7109C9
:101F800077FF02C06F5F7F4F759567957727625D1A
:101F90007F4F25E733E049E1C6010E941A2B68E62E
:101FA00073E0C6010E94A92BBE01681B710977FF6F
:101FB00002C06F5F7F4F759567957727625D7F4F92
:101FC00028E633E048E2C601DF91CF911F910F91DF
:101FD000FF90EF90DF90CF900C941A2BCF93DF936C
:101FE000D82FC92F65E082E00E9489280E94A52889
:101FF00065E082E00E94892861E00E94BD2865E0DA
:1020000082E00E9489280E948E2864E082E00E947B
:1020100089280E94A52864E082E00E94892861E066
:102020000E94BD2864E082E00E9489280E948E28D8
:1020300040E064E071E08D2F9C2F0E94D52C8D2F05
:102040009C2F0E94FF2F66E778E08D2F9C2F0E9427
:10205000C42B8D2F9C2FDF91CF910C94892BCF9384
:10206000DF93EC010E94EE0F84E189AF8FEF88AF20
:10207000FE01EE5BFF4F108285E08AAFDF91CF91CA
:102080000895FC0122AD233079F030F4213071F055
:10209000223071F00C947E0D243021F02530D1F7E0
:1020A0000C94890F0C94BF0E0C94470E0C94390FAE
:1020B0000C94040DCF93DF93EC018FA9811120C004
:1020C00088AD8823E9F089AD882339F0815089AF44
:1020D0009FEF98AF811101C01AAECE010E94EB2C88
:1020E000CE010E944110CE010E94F02C8111F8CF48
:1020F00088AD815088AF811103C0CE010E94FF2CB2
:102100008FA98F5F8FABDF91CF910895CF93DF932E
:10211000EC011BAE60E00E9493101FAACE01DF917C
:10212000CF910C945A10CF93DF93EC016AAF88AD36
:10213000811106C0CE010E94072DCE010E9486109B
:102140008FEF88AFDF91CF910895CF93DF93EC01AC
:102150007DAF6CAF5FAF4EAF61E00E94931084E142
:1021600089AF1FAACE01DF91CF910C945A10CF9363
:10217000DF93EC0163706BAF64E00E9493101FAAC1
:10218000CE01DF91CF910C945A10CF93DF93EC01E5
:1021900063E00E9493101FAACE01DF91CF910C94AF
:1021A0005A10CF92DF92EF92FF920F931F93CF932B
:1021B000DF938C017C0183E4E80EF11C86E0D701FB
:1021C0008C9380918E0190918F018530910514F44C
:1021D0008F5F8C93F801EE5BFF4F3081E801C05CAC
:1021E000DF4F8881998137FF2FC010820197998333
:1021F000888380918E0190918F0128813981AC0173
:1022000044505109241735073CF105979983888379
:102210006AE171E08BE391E00E94F508D12CC12CBA
:1022200088819981C816D906E4F0C0E0DDE0F701A5
:102230008081C817F4F0DF91CF911F910F91FF902B
:10224000EF90DF90CF900895D7012C9132178CF248
:10225000215020830196CBCF37FFDACF1982188225
:10226000D7CF8BE391E00E949E08BFEFCB1ADB0A29
:10227000D7CF8BE391E00E949E08D801CD02A00D3C
:10228000B11D1124AC5BBF4F882349F08DE0EEE611
:10229000F1E001900D928A95E1F7CF5FC8CF62E53A
:1022A00073E0CD010E948030F8CF0F931F93CF933E
:1022B000DF93EC01162F16169CF488AD811104C033
:1022C00060E0CE010E9493108FEF88AF133009F4C5
:1022D00045C05CF4113009F4A0C0123009F450C0BC
:1022E000DF91CF911F910F9108951430D9F01530DF
:1022F000B9F78AAD8111F4CF2BAD237089F321504A
:10230000330B45E1429FC001439F900D112480573C
:102310009E4F0E94BD0ACE01DF91CF911F910F9178
:102320000C9486108AAD81110AC08BAD837019F4AC
:1023300081E08BAFD5CF813099F682E0FACF823041
:1023400079F6FE01EE5BFF4F80818F5F8083CE01C7
:10235000DF91CF911F910F910C94D1108AAD811113
:1023600006C08BAD8370823009F0BACFE1CF8230E6
:1023700009F0B6CFFE01EE5BFF4F80818150E6CFC2
:102380008AAD81110DC08BAD837009F4A9CFFE0118
:10239000EE5BFF4F10823297118210821AAFD7CFB7
:1023A000823009F09DCFCE010E94C510FE01EE5B88
:1023B000FF4F80818E019DE08902000D111D1124C7
:1023C0000C5B1F4F62E573E0C8010E9477302BADB4
:1023D00023702150330B45E1892B89F4429FC001C2
:1023E000439F900D112480579E4F0E94BD0A60E0CC
:1023F000CE01DF91CF911F910F910C949310429FCA
:10240000C001439F900D1124B80180579E4F0E9438
:10241000060C882309F464CFEACF8AAD823011F428
:102420001AAE5ECF81115CCF2BAD237009F458CF6B
:102430002150330B85E1829FE001839FD00D112451
:10244000C057DE4FCE010E949F0980E18C8B48CFA0
:10245000FC0110821282118208956AE082E091E00C
:102460000E9464146AE082E091E00E9464146BE2CE
:1024700074E082E091E00E94E01460E282E091E08A
:102480000E94641462E274E082E091E00E94E01431
:1024900060E282E091E00E9464146CE174E082E00A
:1024A00091E00E94E01460E282E091E00E946414F6
:1024B0006FE074E082E091E00E94E0146AE082E064
:1024C00091E00E9464146AE082E091E00E9464144A
:1024D0006AED73E082E091E00E94E0146AE082E03D
:1024E00091E00E9464146AE082E091E00C9464142C
:1024F0006AE082E091E00E94641461E482E091E08D
:102500000E94641467ED73E082E091E00E94E014A1
:1025100067E971E082E091E00E94C91469E082E01D
:1025200091E00E94641480E991E00E94590BBC0183
:1025300082E091E00E94C9146AE082E091E00E948A
:10254000641462E482E091E00E94641467ED73E039
:1025500082E091E00E94E0146CEA71E082E091E098
:102560000E94C91469E082E091E00E94641485EA47
:1025700091E00E94590BBC0182E091E00E94C914D5
:102580006AE082E091E00C946414CF92DF92EF92C3
:10259000FF920F931F93CF93DF93CDB7DEB72D97A5
:1025A0000FB6F894DEBF0FBECDBF8C0182E091E084
:1025B0000E947614853609F449C10CF041C080357B
:1025C00009F4BBC014F58C3409F4D0C08E3409F47E
:1025D00040C0853409F43AC19FEC980F953008F05B
:1025E00015C160ED680F84ED93E02D960FB6F89459
:1025F000DEBF0FBECDBFDF91CF911F910F91FF9036
:10260000EF90DF90CF900C945511833509F45CC0A6
:10261000883511F74EE953E06EEA73E084ED93E0FC
:102620002D960FB6F894DEBF0FBECDBFDF91CF91D0
:102630001F910F91FF90EF90DF90CF900C94A51019
:10264000803709F47AC0D4F58C3609F48FC08E3601
:1026500019F6F80181819281019697FD75C09283E8
:10266000818380918E0190918F01F80121813281C7
:102670002817390714F09283818364E271E08BE3B9
:1026800091E00E94F508F12CE12CF8018181928102
:102690008E159F050CF05BC066EC73E082E091E064
:1026A0000E94E01480916E01882309F458C06EE600
:1026B00071E082E091E00E94C91428C0833721F0C4
:1026C000883709F4A7CF88CFF8018081982F9D7FA4
:1026D00081F581E08083C8010E94781266EC73E086
:1026E00082E091E00E94E01460ED73E082E091E00E
:1026F0000E94E014F801808161E4813019F0823099
:1027000029F462E482E091E00E9464146AE082E0CD
:1027100091E02D960FB6F894DEBF0FBECDBFDF91CE
:10272000CF911F910F91FF90EF90DF90CF900C947D
:102730006414813081F682E0CDCFF80181819281ED
:1027400002979283818385CF128211828ACF8BE395
:1027500091E00E949E08FFEFEF1AFF0A96CF67E90B
:1027600073E082E091E00E94E014D0CFF801808114
:10277000882309F44BC08DE0EEE6F1E09E012F5F67
:102780003F4F7901D90101900D928A95E1F764EBF1
:1027900073E082E091E00E94E01489816701882360
:1027A00009F443C0B70182E091E00E94C9146AE0D5
:1027B00082E091E00E9464148981F8012081215017
:1027C000330B45E18823C1F1429FC001439F900D27
:1027D0001124B60180579E4F0E94060CF8012081FB
:1027E0002150330B45E1429FC001439F900D1124BE
:1027F00080579E4F0E94590BBC0182E091E00E94DD
:10280000C9146AE082E091E00E9464142D960FB62C
:10281000F894DEBF0FBECDBFDF91CF911F910F9116
:10282000FF90EF90DF90CF90089567E973E082E02A
:1028300091E00E94E014BBCF429FC001439F900DE6
:10284000112480579E4F0E94BD0AC8CFF801808195
:102850008823E1F26DEB73E082E091E00E94E014E6
:10286000F801808161E4813009F062E482E091E066
:102870000E9464146AE082E091E00E946414F8010E
:1028800080818150990B25E1289F8001299F100D9F
:10289000112400571E4FC8010E949F0980E1F801D2
:1028A000848BB4CF8A3039F49091C00095FFFCCF6F
:1028B0009DE09093C6009091C00095FFFCCF80935F
:1028C000C60090E080E008956A3039F48091C0003D
:1028D00085FFFCCF8DE08093C6008091C00085FF0E
:1028E000FCCF6093C60090E080E008958091C00026
:1028F00087FFFCCF8091C60090E00895E5E7F4E003
:1029000082E594E19187808786E794E193878287C7
:1029100083E08383A6E9B4E01596FC93EE931497C5
:102920001396FC93EE931297ED93FC930895242F46
:10293000352FAB01211581EE38074105510511F105
:102940002A3E81E0380741055105E0F082E080939E
:10295000C00060E079E08DE390E00E942C302150CF
:102960003109410951095695479537952795309377
:10297000C5002093C4008091C10088618093C1008C
:102980000C947E141092C00060E874E88EE190E030
:10299000E4CF0F931F93CF93DF938C01EB016991E9
:1029A00016162CF0DF91CF911F910F910895D80149
:1029B000ED91FC910190F081E02DC8010995EFCFD8
:1029C0000F931F93CF93DF938C01EB01FE01649172
:1029D000219616162CF0DF91CF911F910F9108953B
:1029E000D801ED91FC910190F081E02DC80109958D
:1029F000EDCF1F93CF93DF93EC01862F82958F70DD
:102A0000162F1F70603AC8F460E3680F80E31A3035
:102A100008F087E3180FE881F9810190F081E02D3B
:102A2000CE010995E881F9810190F081E02D612FB7
:102A3000CE01DF91CF911F91099467E3E6CFCF9349
:102A4000DF93D82FC92F242F4AE069E674E0822F44
:102A5000952F0E94AB3069E674E08D2F9C2FDF919B
:102A6000CF910C94C9140F931F93CF93DF938B01D5
:102A7000D42FC52F84ED93E00E94A510B80182E009
:102A800091E00E94E01462E374E082E091E00E9431
:102A9000E0146D2F7C2F82E091E00E94E0146AE048
:102AA00082E091E0DF91CF911F910F910C9464141B
:102AB000CF92DF92EF92FF92CF93DF9300D000D0BE
:102AC00000D0CDB7DEB78D839E8340E050E0BA01E1
:102AD0008D819E810E94FE1E892BA9F019821A8287
:102AE0001B821C8269817A818B819C8126960FB61C
:102AF000F894DEBF0FBECDBFDF91CF91FF90EF9076
:102B0000DF90CF900895ED81FE81EA53FE4FC080A3
:102B1000D180E280F380B701A6018D819E810E9461
:102B2000FE1EAD81BE81D6968C91D6978823F1F09A
:102B300050964C91509756962D913C915797429FA5
:102B4000C001439F900D11241E962D913C91C20E01
:102B5000D31EE11CF11CA7019601280F391F411D4E
:102B6000511D29833A834B835C83BCCFED81FE8169
:102B7000EE5AFF4F8081882309F4B0CFAD81BE812A
:102B80009C962D913D914D915C919F9722503109DA
:102B9000410951091D96AC91B0E00E9454306983FF
:102BA0007A838B839C83ED81FE8186859785C80E11
:102BB000D91EE11CF11C29813A814B815C81C20E36
:102BC000D31EE41EF51EA08924A135A146A157A15C
:102BD000B0E00E945430DC01CB018C0D9D1DAE1D78
:102BE000BF1D89839A83AB83BC837CCF3F924F9276
:102BF0005F926F927F928F929F92AF92BF92CF928D
:102C0000DF92EF92FF920F931F93CF93DF93582E93
:102C1000692E762E872E942E322E432EE5014BE020
:102C200050E060E270E0C5010E949030852D962D45
:102C30000E948730AC01652D762DC5010E946E3053
:102C4000892D887159F4872D982D0E948730AC0109
:102C5000672D782DC50108960E946E309B86832DC6
:102C6000942D9D8B8C8B1B8F0A8FCC8EDD8EEE8EE0
:102C7000FF8EDF91CF911F910F91FF90EF90DF902A
:102C8000CF90BF90AF909F908F907F906F905F900C
:102C90004F903F900895CF93DF93FC0110821182F3
:102CA00012821382DC0115968DE0ED0119928A954E
:102CB000E9F71482DF91CF910895CF93DF93EC0170
:102CC0008C81982F937051F080FF0BC0BE016B5F19
:102CD0007F4F80E991E00E94060C1C82DF91CF912A
:102CE000089581FFFACFBE016B5F7F4F85EA91E0C7
:102CF000F2CFCF93DF93EC01FB014132510588F015
:102D00009A01215231094236510581F41486DE01BF
:102D100015968DE001900D928A95E1F78C81816086
:102D20008C8390E080E0DF91CF91089522343105CB
:102D3000C1F71486DE0115968DE001900D928A95FB
:102D4000E1F78C818260ECCF0F931F93CF93DF93D9
:102D50008C01EB01FC0180819181A281B381892BDF
:102D60008A2B8B2B49F4CB010E945815D8016D9307
:102D70007D938D939C93139700E012E0FE01C801B0
:102D800011920197E9F743E050E06AEF75E0CE0158
:102D90000E946E3046E050E06DE176E0CE01039691
:102DA0000E946E301C870B8781E08D8781E090E068
:102DB0009F878E8782E0888B80EE90E09A8B898B4C
:102DC00080E49BE09C8B8B8B80EF8D8B89E090E087
:102DD0009F8B8E8B82E190E0998F888F82E090E0CC
:102DE0009B8F8A8F89E28EA380EE90EDA0EDB0EFED
:102DF0008FA398A7A9A7BAA78E01055D1F4F4BE027
:102E000050E060E270E0C8010E94903046E050E07F
:102E100066E176E0C8010E946E3045E050E065EF63
:102E200075E0CE01C6960E946E3040EC51E065E33D
:102E300074E0CE01CE960E946E30C250DE4F85E522
:102E40009AEA99838883DF91CF911F910F9108951A
:102E5000AF92BF92CF92DF92EF92FF920F931F93A8
:102E6000CF93DF93EB0180E092E0FB019C01119294
:102E700021503040E1F74331510509F03FC05B017B
:102E8000C12CD12C760100E010E0980148E070E000
:102E900060E086E196E00E94F61530E2A30EB11CD8
:102EA00003E010E020E030E040E170E060E080E12D
:102EB00096E00E94F6155E0180E4A80EB11C8DE03C
:102EC000C82ED12CE12CF12C03E410E020E030E0FE
:102ED00040E062E076E08BE096E00E94F6155E014D
:102EE000E0E6AE0EB11C03E410E020E030E040E08C
:102EF00062E076E086E096E00E94F615DF91CF91E1
:102F00001F910F91FF90EF90DF90CF90BF90AF9007
:102F10000895AF92BF92CF92DF92EF92FF920F93FC
:102F20001F93CF93DF938C01EB017A0122E2E21A27
:102F3000F10830E4E316F10408F06EC0E114F10486
:102F400039F4D80114968C9114978B7F14968C9336
:102F5000F8014081518162817381411551056105FC
:102F6000710509F450C0848182FF45C080E092E081
:102F7000DE01FC011D923197E9F7FE019E013E5FE3
:102F80008081811107C0D80114968C9114978460B8
:102F900014968C93158A148A138E128EB096E217AB
:102FA000F30771F7EF28E1F45E01C12CD12C760113
:102FB00003E010E020E030E040E170E060E080E01D
:102FC00096E00E94F61530E2A30EB11C00E010E07E
:102FD000980140E170E060E08DEF95E00E94F61509
:102FE000DF91CF911F910F91FF90EF90DF90CF90E5
:102FF000BF90AF9008954E0D5F1D611D711DCE01F4
:103000000E94FE1EBACF80E092E0FE019C01119268
:1030100021503040E1F7C6CF9A01215231094236A2
:10302000510549F48DE0E7E9F1E0DE0101900D92F0
:103030008A95E1F7D5CF2234310521F48DE0ECEA11
:10304000F1E0F3CF80E092E0DB01FC011D923197CB
:10305000E9F7C6CFFB01CA01AB01569547954E0F64
:103060005F1FD901A40FB51F4D915C911197E0FF2F
:103070000AC024E0880F991F2A95E1F7842B952B2D
:103080008D939C9308959F70F9CFAF92BF92CF928A
:10309000DF92EF92FF920F931F93CF93DF93182F3E
:1030A000092FF22EE32EEA01C60FD71F5E0181E041
:1030B000A81AB1086C177D0758F0DF91CF911F91C6
:1030C0000F91FF90EF90DF90CF90BF90AF90089559
:1030D0006B018FEFC81AD80A4FEF5FE0A616B7064C
:1030E00009F0A6012F2D3E2D812F902F0E942A1826
:1030F000B601E0CFCF93DF93EB014150510960E07F
:1031000072E0DE01FB011D923197E9F7493051056C
:1031100010F049505109452B01F520EF3FE039836C
:1031200028832FEF3FEF3A8329839E0140E450E04C
:1031300063E070E00E944518FE01EC59FF4F80816A
:103140009181806F9F6F91838083CA59DF4F8881FF
:1031500099818F6F9F6099838883DF91CF910895C4
:103160004115510529F40E94A41690E080E00895CD
:103170009A01215031092231310518F40E947A1840
:10318000F4CF9A01235131092E30310518F40E94F1
:103190002817EBCF0E948917E8CF8AE391E00C94BF
:1031A00026088BE391E00C94EF0880E991E00E94FF
:1031B0004D0B85EA91E00C944D0B84ED93E00C945B
:1031C0002F1088E199E20FB6F894A89580936000DB
:1031D0000FBE9093600040E052EC61E070E082E04E
:1031E00091E00E94971486E694E00E942D1280914F
:1031F0008B01882309F45AC06BE171E080E991E00A
:103200000E94060CC5E1A8958091BA018370A1F1D6
:103210006091BA01637084ED93E00E94B7106AE890
:1032200073E082E091E00E94E0142091BA012370E3
:103230002150330BC29FC001C39F900D11248057B2
:103240009E4F0E94170C84E894E00E945D1684ED66
:1032500093E00E94861060E973E082E091E00E94B2
:10326000E01464E873E082E091E00E94E0146AE018
:1032700082E091E00E9464148091C00087FF04C046
:1032800086E694E00E94C51280917A0086FD09C00E
:103290008AE391E00E943808682F84ED93E00E9451
:1032A000551184ED93E00E945A10ADCF80E991E072
:1032B0000E94BD0AA7CFE6E6F4E0108212821182D6
:1032C000089584E894E00C944B16AC019B0184EBC8
:1032D0009DEC121613060CF00895DA01E92FFF2772
:1032E0004D91E427EE0FFF1FEC5DF94F459154918E
:1032F000982F88278427952721503109AD01E9CFE0
:10330000CF93DF93A1E8B0E091E09C932198E0E8AF
:10331000F0E080EC8083C2E8D0E088818068888318
:103320001082219A96BB8C9188608C9310928500B4
:103330001092840080E290E090938900809388004E
:1033400082E086BB80E48083DF91CF910895109264
:1033500085001092840081E286BB1092800081E09B
:103360008093810010928200EEE6F0E080818E7FF3
:1033700080830895CF93DF93CCE9D4E09EEF9883C8
:1033800089836A834F5F4B8382E08C8365E070E0C2
:10339000CE010E9465199827892798279E838D83DF
:1033A0008EE48F83DF91CF910895FF920F931F9347
:1033B000FB01DA011197082F0695080F080F102F4F
:1033C000180F80E0F82EB09A40E0B09B05C0B09A8C
:1033D000FA9411F483E010C14395B59BFECF309170
:1033E0008600B59A632F621B232F601770F3611755
:1033F00058F7403548F3B59BFECF30918600B59A1B
:10340000632F621B232F611708F4DECFB59BFECF1D
:1034100030918600B59A632F621B232F061708F49C
:10342000611708F0D1CFB59BFECF30918600B59AD9
:10343000632F621B232F611708F4C6CFB59BFECF05
:1034400030918600B59A632F621B232F061708F46C
:10345000611708F0B9CFB59BFECF30918600B59AC1
:10346000632F621B232F601708F0AECFB59BFECFF2
:1034700030918600B59A632F621B232F611708F4E1
:10348000A3CFB59BFECF30918600B59A632F621B08
:10349000232F061708F4611708F096CFB59BFECFCF
:1034A00030918600B59A632F621B232F611708F4B1
:1034B0008BCFB59BFECF30918600B59A632F621BF0
:1034C000232F061708F4611708F07ECFB59BFECFB7
:1034D00030918600B59A632F621B232F601708F086
:1034E00073CFB59BFECF30918600B59A632F621BD8
:1034F000232F611708F468CFB59BFECF309186006B
:10350000B59A632F621B232F061708F4611708F082
:103510005BCFB59BFECF30918600B59A632F621BBF
:10352000232F611708F450CFB59BFECF3091860052
:10353000B59A632F621B232F061708F4611708F052
:1035400043CFBB230AF458C058E0B59BFECF30915F
:103550008600B59A632F621B232F6017F0F0611766
:1035600098F0440F5A9529F4419358E0A150B04087
:1035700052F0440F41605A9529F4419358E0A1500C
:10358000B0400AF0E2CF38C0440F5A9529F4419375
:1035900058E0A150B040BAF30AC0440F41605A95B8
:1035A00029F4419358E0A150B0406AF3CECFB59BC7
:1035B000FECF30918600B59A632F621B232F6017D0
:1035C00090F0440F5A9529F4419358E0A150B0402F
:1035D0009AF0440F41605A9529F4419358E0A15064
:1035E000B04052F0B2CF440F5A9529F4419358E0BD
:1035F000A150B0400AF0DBCF1F910F91FF900895CA
:103600000F931F93DA01FB01082F080F0A95102F63
:10361000180F212F280F40E04093840040E60093CC
:103620008800B19BFECF30E830938200B19A4A9572
:10363000B1F710938800B19BFECF30E83093820041
:10364000B19A20938800B19BFECF30E8309382007E
:10365000B19A10938800B19BFECF30E8309382007E
:10366000B19A20938800B19BFECF30E8309382005E
:10367000B19A10938800B19BFECF30E8309382005E
:10368000B19A00938800B19BFECF30E8309382005E
:10369000B19A20938800B19BFECF30E8309382002E
:1036A000B19A10938800B19BFECF30E8309382002E
:1036B000B19A20938800B19BFECF30E8309382000E
:1036C000B19A10938800B19BFECF30E8309382000E
:1036D000B19A00938800B19BFECF30E8309382000E
:1036E000B19A20938800B19BFECF30E830938200DE
:1036F000B19A10938800B19BFECF30E830938200DE
:10370000B19A20938800B19BFECF30E830938200BD
:10371000B19A10938800B19BFECF30E830938200BD
:10372000B19A0093880050E05A952AF4A150B04015
:103730009AF1419157E0441F30F030918800380FE2
:103740003093880009C0B19BFECF30E830938200EF
:10375000B19A00938800E8CF5A952AF4A150B0405E
:10376000DAF0419157E0441F48F0B19BFECF30E8BA
:1037700030938200B19A00938800EECF3091880098
:10378000380F30938800B19BFECF30E83093820031
:10379000B19A00938800C8CFB19BFECF30E8309338
:1037A0008200B19A90E090938900809388001F91E5
:1037B0000F9108950F931F93082F080F0A95102F4C
:1037C000180F212F280F48E30E94271C1093880010
:1037D0000E945E1C4FE50E94201C43E0109388006D
:1037E0000E945E1C04C0209388000E945E1C00930F
:1037F00088000E945E1C109388000E945E1C20932B
:1038000088000E945E1C109388000E945E1C4A95EE
:1038100051F7209388000E945E1C45E00E94201C06
:10382000109388000E945E1C41E3009388000E9470
:103830005E1C0E942B1C109388000E945E1C45C0D9
:10384000009388000E945E1C4A95D1F7089510935A
:1038500088000E945E1C109388000E945E1C1093DA
:1038600088000E945E1C109388000E945E1C0093DA
:1038700088000E945E1C009388000E945E1C4A958E
:1038800031F70895109388000E945E1C04C00093D5
:1038900088000E945E1C209388000E945E1C10938A
:1038A00088000E945E1C209388000E945E1C10937A
:1038B00088000E945E1C4A9551F70895B19BFECF87
:1038C00030E830938200B19A08950093880080E038
:1038D0001F910F9108950F931F93ECE9F4E0082FC7
:1038E000080F0A95102F180F212F280F109388000A
:1038F0000E94181D40E50E94DA1C42E00E94FC1C58
:10390000009388000E94181D209388000E94181DB3
:10391000109388000E94181D209388000E94181D93
:1039200010938800B19BFECF30E830938200B19AAB
:103930000093880050E0A8E05A9522F4A15092F13B
:10394000419157E0441F30F030918800380F309398
:10395000880009C0B19BFECF30E830938200B19A55
:1039600000938800E9CF5A9522F4A150DAF04191F2
:1039700057E0441F48F0B19BFECF30E830938200FF
:10398000B19A00938800EFCF30918800380F3093C0
:103990008800B19BFECF30E830938200B19A00934B
:1039A0008800CACF45E10E94E11C109388000E9464
:1039B0005E1C45C0009388000E94181D4A95D1F7EF
:1039C0000895109388000E94181D109388000E948B
:1039D000181D109388000E94181D109388000E94E3
:1039E000181D009388000E94181D009388000E94F3
:1039F000181D4A9531F70895109388000E94181DEC
:103A000004C0009388000E94181D209388000E9423
:103A1000181D109388000E94181D209388000E9492
:103A2000181D109388000E94181D4A9551F708959B
:103A3000B19BFECF30E830938200B19A0895009395
:103A4000880080E01F910F9108958EBD0DB407FE90
:103A5000FDCF08958FEF0E94251D8EB50895FF922A
:103A60000F931F93CF93DF93C82FD42F152F062FBB
:103A7000F72E87FF09C040E050E0BA0187E70E94B7
:103A80002F1D823030F5CF772A9A0E942A1D2A985E
:103A90000E942A1D8C2F0E94251D8F2D0E94251DFE
:103AA000802F0E94251D812F0E94251D8D2F0E9491
:103AB000251D85E9C03421F087E8C83409F081E08C
:103AC0000E94251DCAE00E942A1D87FF02C0C15026
:103AD000D1F7DF91CF911F910F91FF9008950F9330
:103AE0001F93CF93DF93462F572FBC0141155105EC
:103AF0006105710501F18091A80483FD07C089E08B
:103B0000440F551F661F771F8A95D1F788E50E94DD
:103B10002F1DC1E081110DC08FEF0E94251D8EEF7A
:103B20000E94251D80E092E09093A7048093A60454
:103B3000C0E0D0E012C0C091A604D091A704CE3F4F
:103B40008FEFD80781F40E942A1D8F718530E9F02C
:103B5000C1E0D0E02A9A0E942A1DCE01DF91CF91C8
:103B60001F910F91089580E00E94251D2197E7CFB6
:103B7000CE010197F1F7015011090E942A1D8F3FD4
:103B800049F001151105A1F7E3CF08E813E1C0E9F9
:103B9000D1E0F3CFC1E0012BE1F2C0E0DACFAF9288
:103BA000BF92CF92DF92EF92FF920F931F93CF932A
:103BB000DF9300D000D0CDB7DEB78091A804882372
:103BC00039F01A9905C060E070E0CB010E946F1DCA
:103BD0002A9A229A239A259A229A83E58CBD1DBCA3
:103BE0002A9A1AE00E942A1D1150E1F740E050E0A5
:103BF000BA0180E40E942F1D182F8130D9F0109255
:103C0000A80483E58CBD1DBC10E02A9A0E942A1DE1
:103C100081E0111180E00F900F900F900F90DF91D5
:103C2000CF911F910F91FF90EF90DF90CF90BF90B9
:103C3000AF9008954AEA51E060E070E088E40E94A5
:103C40002F1D813009F04BC08E010F5F1F4F6E0199
:103C500085E0C80ED11C78010E942A1DF7018193CE
:103C60007F01EC15FD05C1F78B81813041F68C8118
:103C70008A3A29F620E1E22E27E2F22E30E9A32E3D
:103C8000BB24B39408C0C5010197F1F7F1E0EF1A26
:103C9000F10809F4B4CF40E050E060E070E489EE50
:103CA0000E942F1D8111EFCF40E050E0BA018AE75A
:103CB0000E942F1D8111A3CF0E942A1DF80181931C
:103CC0008F01EC15FD05C1F7898114E086FD1CE02C
:103CD0001093A80480E58CBD81E08DBD96CF40E0B7
:103CE00050E0BA0189EE0E942F1D01E4823010F4E9
:103CF00012E009EE80E1E82E87E2F82E90E9C92E65
:103D0000DD24D39440E050E0BA01802F0E942F1DA3
:103D100081110AC040E052E060E070E080E50E945E
:103D20002F1D81116CCFD4CFC6010197F1F7F1E0BF
:103D3000EF1AF10839F763CFAF92BF92CF92DF92BB
:103D4000EF92FF920F931F93CF93DF936C01590172
:103D500078018091A80483FD07C089E0440F551FB6
:103D6000661F771F8A95D1F781E50E942F1D81116B
:103D700008C0C0E4DCE90E942A1D8F3F29F4219786
:103D8000D1F7C1E0D0E01EC08E3FD9F7C2E0D2E04B
:103D9000CE19DF09CA19DB09A114B10411F5C11448
:103DA000D10429F15601EFEFCE1ADE0A0E942A1D36
:103DB000F5018083F1E0EF1AF108A1F70E942A1DB6
:103DC0002197E1F72A9A0E942A1DCE01DF91CF9117
:103DD0001F910F91FF90EF90DF90CF90BF90AF9029
:103DE00008950E942A1D81E0A81AB108D5CF0E942B
:103DF0002A1D81E0E81AF108D1F7E0CFEF92FF9297
:103E00000F931F93CF93DF93EC018091A80483FD60
:103E100007C089E0440F551F661F771F8A95D1F7A9
:103E200081E50E942F1D882369F0C1E0D0E02A9A25
:103E30000E942A1DCE01DF91CF911F910F91FF901B
:103E4000EF90089500E41CE90E942A1D8F3F21F4A1
:103E500001501109C9F7E9CF8E3F39F78E011E5F76
:103E60007E0121960E942A1DF7018083C017D10789
:103E7000B9F70E942A1D0E942A1DD0E0C0E0D7CFCA
:103E8000EF92FF920F931F93CF93DF93F82EE92EBB
:103E90008091A80483FD07C089E0440F551F661F69
:103EA000771F8A95D1F788E50E942F1D882369F036
:103EB000C1E0D0E02A9A0E942A1DCE01DF91CF9165
:103EC0001F910F91FF90EF9008958FEF0E94251D95
:103ED0008EEF0E94251D00E012E01093A5040093D0
:103EE000A4040115110589F480E00E94251D80E0DD
:103EF0000E94251DC4ECD9E00E942A1D8F718530D7
:103F000071F02097A9F22197F7CFCF2DDE2D89915F
:103F10000E94251D01501109FC2EED2EDECFCD2B68
:103F200039F208E813E1C0E9D1E005C0CE010197FC
:103F3000F1F7015011090E942A1D8F3F21F0011550
:103F40001105A1F7B5CFC1E0012B09F4B2CFC0E054
:103F5000B0CFCF93DF9300D000D0CDB7DEB7FC0158
:103F60002081318142815381CA01B9010F900F90A4
:103F70000F900F90DF91CF910895CF93DF9300D0F2
:103F800000D0CDB7DEB769837A838B839C83E091C1
:103F9000A904F091AA049B01AC0122503109410906
:103FA000510986819781A085B1850297A109B10940
:103FB000281739074A075B0718F5A281B0E00E946D
:103FC000543069837A838B839C8382899389A48903
:103FD000B58929813A814B815C81280F391F4A1F9D
:103FE0005B1F29833A834B835C8369817A818B8150
:103FF0009C810F900F900F900F90DF91CF910895BB
:1040000019821A821B821C82F0CF0F931F93CF93C9
:10401000DF9300D000D0CDB7DEB7FC01A091A9049A
:10402000B091AA048C918330E1F484899589B0E041
:10403000A0E0DC0199278827428D538D70E060E075
:104040008A019B01082B192B2A2B3B2BC901B80194
:104050000F900F900F900F90DF91CF911F910F91C4
:10406000089580E090E0DC01E7CF0F931F93CF939A
:10407000DF93EC01E091A904F091AA04198218825F
:104080006C817D818E819F816130710581059105F3
:1040900081F10681178120853185601771078207BC
:1040A000930738F5611571058105910539F4208173
:1040B000233021F46685778580899189688779879F
:1040C0008A879B87611571058105910569F00E94BA
:1040D000BD1F6C877D878E879F8790E080E0DF9192
:1040E000CF911F910F910895668577858089918979
:1040F000F0CF81E090E0F3CF4F925F926F927F928A
:10410000AF92BF92CF92DF92EF92FF920F931F93E5
:10411000CF93DF93CDB7DEB728970FB6F894DEBF05
:104120000FBECDBF6B017C01A090A904B090AA0482
:1041300082E0C816D104E104F10428F461E070E0E3
:1041400080E090E05CC0F50186819781A085B18513
:10415000C816D906EA06FB0688F78081823009F482
:1041600063C0833009F47CC0813041F72B01569441
:104170004794460E571E92013170452C55244694A3
:10418000712C612C4285538564857585440D551DC0
:10419000661D771D02E010E0CE0101962F3FF1E091
:1041A0003F07D9F401E010E02FEF31E0CE01019696
:1041B0000E949C1E892B11F6F5014285538564856A
:1041C00075854F5F5F4F6F4F7F4F440D551D661DC7
:1041D000771D30E020E0CE0102960E949C1E892BC4
:1041E00009F0ACCF69817A81C0FC02C07F7005C044
:1041F000E4E076956795EA95E1F790E080E028960F
:104200000FB6F894DEBF0FBECDBFDF91CF911F91E7
:104210000F91FF90EF90DF90CF90BF90AF907F9085
:104220006F905F904F9008959B013327220F331FAB
:1042300077276F2D5E2D4D2D82859385A485B585BD
:10424000480F591F6A1F7B1F02E010E0CE01019644
:104250000E949C1E892B09F071CF69817A81CDCF94
:104260009B012F773327220F331F220F331FB701F4
:10427000A60197E076956795579547959A95D1F75A
:1042800082859385A485B585480F591F6A1F7B1FBA
:1042900004E010E0CE0101960E949C1E892B09F0DB
:1042A0004DCFCE0101960E94A91F9F70A8CFCF923B
:1042B000DF92EF92FF920F931F93CF93DF93CDB7CF
:1042C000DEB72A970FB6F894DEBF0FBECDBF8D8341
:1042D0009E83E090A904F090AA04AD81BE810D9167
:1042E0001C910F5F1F4F89F483E090E02A960FB670
:1042F000F894DEBF0FBECDBFDF91CF911F910F911C
:10430000FF90EF90DF90CF900895ED81FE8184853E
:104310009585A685B7850097A105B10529F3980174
:104320002F703327232BC9F40196A11DB11D84875B
:104330009587A687B78780859185A285B385898370
:104340009A83AB83BC83892B8A2B8B2B69F4F7016F
:10435000848195810817190738F6AD81BE810D93C8
:104360001C9390E080E0C2CFD70112968C918150CF
:10437000990B980144E0369527954A95E1F78223F9
:104380009323892B51F769817A818B819C810E94CB
:104390007C206230710581059105E0F0F701C6804F
:1043A000D780E084F1846C157D058E059F0508F0AB
:1043B0009BCFAD81BE8118966D937D938D939C9319
:1043C0001B970E94BD1FED81FE81648775878687DC
:1043D0009787C3CF81E090E089CFCF92DF92EF92B1
:1043E000FF920F931F93CF93DF93EC016A017B0140
:1043F00002E010E02EEF31E00E949C1E892B31F587
:104400008881998185359A4A59F526E330E0A601DD
:10441000B701CE010E949C1E892B29F488819981C5
:104420008634914489F002E010E022E530E0A601F4
:10443000B701CE010E949C1E892BA1F481E0288146
:1044400039812634314419F480E001C083E0DF91E2
:10445000CF911F910F91FF90EF90DF90CF90089533
:1044600082E0F5CF81E0F3CFCF92DF92EF92FF921F
:104470000F931F93CF93DF93EC017B01CA016C0173
:10448000DC012C9101962032D1F32F3209F46C011A
:104490001C821D821E821F82F6018081803208F0FC
:1044A00062C0CE010E9435209C01D7011C92C90137
:1044B000DF91CF911F910F91FF90EF90DF90CF9000
:1044C0000895C40ED11C81E0913208F080E0F8011B
:1044D0008387CE010E9435209C01892B41F72881DA
:1044E00039812F70332785E0220F331F8A95E1F73A
:1044F0004C855D856E857F8500E210E0C7010E94D6
:104500009C1E9C01892B09F056C0D7018C918823F1
:1045100009F454C01B964C9143FD11C08A819B81C4
:10452000BC01655F7F4FFC011E2D5F2D6E177F075D
:1045300069F0A12FB52F1D915191151721F0CE01D2
:104540000E945721C9CF1A2F5B2FF0CFFC01838522
:104550008111ADCF44FF32C0C7010E9405206C839A
:104560007D838E839F830A811B814BE050E060E254
:1045700070E0C8010E94903020E090E088E041E0C7
:10458000490FF601E90FF11D9081913208F499CF9E
:104590009F3209F496CF9E32A1F0281708F091CFF0
:1045A000F801E20FF11D9083382F81E0820F282F50
:1045B000942F832FE4CF21E030E079CF23E030E067
:1045C00076CF883009F07DCF3BE0F1CF4F925F92FC
:1045D0006F927F929F92AF92BF92CF92DF92EF92B3
:1045E000FF920F931F93CF93DF93CDB7DEB7E09782
:1045F0000FB6F894DEBF0FBECDBF5C011092AA04C7
:104600001092A9040E94CF1D02E010E080FD1FC09F
:1046100040E050E0BA019E012F5F3F4F3901C901D0
:104620000E94ED21562C972CC12CD12C7601813083
:10463000B1F500E110E02EEB31E040E050E0BA01CE
:10464000C3010E949C1E892BC9F001E010E0C80143
:10465000E0960FB6F894DEBF0FBECDBFDF91CF91CD
:104660001F910F91FF90EF90DF90CF90BF90AF9090
:104670009F907F906F905F904F9008958D818111F2
:1046800003C006E010E0E3CFCE0109960E94A91F07
:104690006B017C01BC01A601C3010E94ED218330A6
:1046A000A1F28111EECF04E210E02DE030E0B7017D
:1046B000A601852D992D0E949C1E8C01892B29F61F
:1046C0008A859B859C0150E040E0892B31F4CE0126
:1046D00048960E94A91F9B01AC01AC81B0E00E94EA
:1046E000543069A77AA78BA79CA78A819B819C01DC
:1046F00050E040E02DA33EA34FA358A72C013A0160
:104700004C0C5D1C6E1C7F1CD5011A964D925D925F
:104710006D927C921D97998012969C921297ED80D3
:10472000FE801596FC92EE9214978F8198859C01DD
:1047300050E040E02DA73EA74FA758AB892B41F48E
:10474000CE0144960E94A91F6DA77EA78FA798ABA4
:1047500084E0F694E7948A95E1F76701F12CE12C67
:104760008DA19EA1AFA1B8A58C0D9D1DAE1DBF1D35
:1047700029A53AA54BA55CA5820F931FA41FB51FC1
:104780002DA53EA54FA558A9281B390B4A0B5B0B3D
:104790002DA33EA34FA358A7292D30E050E040E0C1
:1047A0006DA17EA18FA198A50E942C30DA01C901CC
:1047B0000296A11DB11DF50186839783A087B1875D
:1047C000265F3F40410951092F3F3F4E41055105AA
:1047D000E8F1873F2FEF9207A105B10528F183E0AB
:1047E000D5018C93CE0180960E94A91F462F572F8A
:1047F000BC01F50146875787608B718BC40CD51CB3
:10480000E61CF71C29A53AA54BA55CA5C20ED31E34
:10481000E41EF51EC28AD38AE48AF58A1182B09218
:10482000AA04A092A90413CF873F9F40A105B10518
:1048300008F027CF81E0D5018C9349A55AA56BA537
:104840007CA5440D551D661D771DD3CF873F9F4F17
:10485000A105B10520F682E0EECFEF92FF920F9313
:104860001F93CF93DF93CDB7DEB7EC970FB6F894D5
:10487000DEBF0FBECDBFAC01E090A904F090AA044A
:1048800005E010E0E114F10489F1D70111961C92C2
:10489000CE01C1969CA38BA3BE016F5F7F4F409753
:1048A0000E9434228C01892B09F58981882361F1CA
:1048B0008C8584FD29C0CE0101960E940520F70158
:1048C000668F778F80A391A3CE014D960E94A91F7A
:1048D000D7015A966D937D938D939C935D97F701C5
:1048E000168A178A108E118E81E08183C801EC969A
:1048F0000FB6F894DEBF0FBECDBFDF91CF911F91F1
:104900000F91FF90EF90089503E010E0EFCF0F9329
:104910001F93CF93DF93CDB7DEB7AC970FB6F89464
:10492000DEBF0FBECDBF8C01AB018091A904909179
:10493000AA0425E030E0892B29F1CE018196D80127
:1049400013969C938E931297BE016F5F7F4FC801A1
:104950000E9434229C01892BA9F48981882371F05B
:104960008C8523E030E084FF0DC0CE0101960E94CB
:104970000520F8016483758386839783C8010E94AC
:1049800035209C01C901AC960FB6F894DEBF0FBE6E
:10499000CDBFDF91CF911F910F910895CF92DF92FC
:1049A000EF92FF920F931F93CF93DF93CDB7DEB7B4
:1049B000AC970FB6F894DEBF0FBECDBF7C016B0184
:1049C0008091A9049091AA0425E030E0892B81F020
:1049D000CE018196D70113969C938E93129723E074
:1049E00030E0672B09F043C0C7010E9435209C01CD
:1049F000C901AC960FB6F894DEBF0FBECDBFDF91F4
:104A0000CF911F910F91FF90EF90DF90CF9008957D
:104A1000F701208131812F70332785E0220F331F6A
:104A20008A95E1F700E210E0CE0101960E949C1EFB
:104A3000892B09F043C08981882309F442C09C85F1
:104A4000853E21F08E3211F093FF20C0C7010E94F5
:104A500057219C01892B59F0D7011C961D921D925C
:104A60001D921C921F972330310511F60FC0D701FC
:104A70001C964D915D916D917C911F97411551054B
:104A80006105710529F62115310531F78601075FAA
:104A90001F4FF70184859585A685B785892B8A2BBD
:104AA0008B2B91F4F8011082C7010E9457219C01C1
:104AB000039709F09DCF30E020E09ACF21E030E06D
:104AC000CBCF23E030E0C8CFDE01119696012F5EF8
:104AD0003F4F8D91803249F0853009F485EEF80121
:104AE0008193E217F30771F589018985803281F09E
:104AF000F8018EE28193DE011996C80104968F01B8
:104B00002D91203229F02193E817F907C1F78C0184
:104B10008C85F6018087CE014D960E94A91FD60193
:104B20006D937D938D939C931397898D9A8D159694
:104B30009C938E9314978F89988D17969C938E9340
:104B40001697B0CF8F01C5CFCF93DF9300D000D0A1
:104B5000CDB7DEB7E091A904F091AA04868D978DB8
:104B6000A0A1B1A189839A83AB83BC83BC01CD0191
:104B70000F900F900F900F90DF91CF910C94BD1F6D
:104B8000CF92DF92EF92FF92CF93DF93C091A9046F
:104B9000D091AA04CE8CDF8CE8A0F9A0C114D10476
:104BA000E104F10449F481E090E0DF91CF91FF90BE
:104BB000EF90DF90CF900895A895C701B6010E94AD
:104BC0007C20462F572FBC018E819F81A885B985F7
:104BD000481759076A077B0720F040E050E060E083
:104BE00070E08FEFC81AD80AE80AF80AC416D5068A
:104BF000E606F70619F46A017B01D0CF81E0452B68
:104C0000462B472B89F280E0CFCF2F923F924F92D5
:104C10005F926F927F928F929F92AF92BF92CF924C
:104C2000DF92EF92FF920F931F93CF93DF9300D009
:104C300000D0CDB7DEB7782E692E69834B83122F53
:104C4000502E67010E948F26882309F187E0E82E05
:104C5000E10EE694E694E6948B81580E812F8695BA
:104C600086958695882E912C312E98EF899F300C51
:104C70001124E981E95FEA83812F887FF981F80FA8
:104C8000FC832F2E230CF12C8B81851144C00F90B7
:104C90000F900F900F90DF91CF911F910F91FF9088
:104CA000EF90DF90CF90BF90AF909F908F907F90CC
:104CB0006F905F904F903F902F900895F501049171
:104CC00022E04B81642D872D962D0E94182DFFEF39
:104CD000AF1ABF0A89818850898398E0490EE9811B
:104CE000E83060F7F601E80DF91D332071F0B4905B
:104CF000AC80B0FE06C04B816A2D872D962D0E9498
:104D00000F2DA394B694A210F4CFCE0CDF1CFB8120
:104D1000FF5FFB83B9CF560119834A80E0CF0F9321
:104D2000FC010150040F84A996A9941788F0081774
:104D300010F4041778F42150260F83A995A996172B
:104D400058F0281760F481E0261720F40F91089599
:104D5000081778F780E0FACF2817A8F7FBCF81E093
:104D6000F5CFDB011496ED91FC9130E020E061E09D
:104D70000994DB011496ED91FC9130E020E063E0B2
:104D80000994DB011496ED91FC9130E020E040E0C5
:104D900064E00994DB011496ED91FC9130E020E091
:104DA00041E064E00994DB011496ED91FC9130E060
:104DB00020E062E00994DB011496ED91FC9130E073
:104DC00020E065E00994DB011496ED91FC9166E02A
:104DD0000994CF92DF92EF92FF920F931F93CF939C
:104DE000DF93F82EE92ED62EC72E8A0180E0F80137
:104DF000C491811111C081E0CF3F59F04C2F6D2D2E
:104E00007C2D8F2D9E2D0E94DB26882309F43FC028
:104E100080E00F5F1F4FEBCF4FEFCF3F81F3CE3FCF
:104E2000B9F1C03FA8F7C03E48F04C2F4F706D2D30
:104E30007C2D8F2D9E2D0E94D326EACFC03D48F0B9
:104E40004C2F4F706D2D7C2D8F2D9E2D0E94B926DD
:104E5000DFCFC03CB8F06D2D7C2D8F2D9E2D0E9494
:104E6000C126C295C07FCE5FD0E0CE010E94E4286B
:104E70006D2D7C2D8F2D9E2D0E94CA26CE010E9465
:104E8000E428C6CF8C2F90E0C7FFF9CFC1CF80E0D8
:104E9000DF91CF911F910F91FF90EF90DF90CF9016
:104EA0000895CF93DF93EC018BA5882389F088E7E1
:104EB0000E940628811104C080E0DF91CF910895FF
:104EC0008EA1811107C00E9446288823A9F31BA642
:104ED00081E0F3CF80E4F7CF0F931F93CF93DF935D
:104EE000FC01C62FD42F8901653081F148F462306E
:104EF00009F449C0633011F16130B9F0C1E018C064
:104F0000663091F16730D1F70E945127882311F163
:104F1000DD23A1F3F80184910E944628C82F88233D
:104F200039F00F5F1F4FD150F3CF86A50E94CC27D9
:104F30008C2FDF91CF911F910F91089516A281E0E0
:104F400083A74111DBCF0E946A28D8CF0E94512746
:104F5000811104C00E946A28C0E0EACF8D2F0E9410
:104F600046288111CBCFF6CF0E945127882391F399
:104F7000DD2321F2F80181918F010E9446288823C8
:104F800049F3D150F5CF46A381E083A7B7CF109264
:104F9000AD041092AB0408958093AC041092B90054
:104FA00084FF05C08CE08093B8000C94C72788E488
:104FB000FACFCF93DF9300D0CDB7DEB720ED37E047
:104FC0003A8329839091BC009823961302C081E014
:104FD00013C029813A81232BA1F49091AC04892F2D
:104FE000827091FDF4CF9091AD04911105C091E0D4
:104FF0009093AD044093AB040F900F90DF91CF914D
:10500000089529813A8121503109DACFCF93C82FF1
:1050100084EA8093BC0041E060E880E80E94D927E0
:10502000811103C080E0CF9108959091B900987FDD
:10503000983069F0903159F08091AD048111F2CF30
:1050400092E09093AD0491E09093AB04ECCFC093C9
:10505000BB0084E88093BC0042E060E880E80E94E6
:10506000D9278823F9F28091AC0481FD0DC080918D
:10507000B900887F883141F08091AD048111D2CF91
:1050800092E09093AD04E0CF81E0CDCF8093BB0060
:1050900084E88093BC0043E060E880E80E94D92760
:1050A0008823B9F09091AC04892F827091FD10C0D3
:1050B0009091B900987F983259F09091AD04911178
:1050C00008C092E09093AD0493E09093AB040895F0
:1050D00081E0089584E98093BC0044E060E080E1D1
:1050E0000C94D927CF93DF9300D0CDB7DEB770E013
:1050F000660F771F680F791F42E050E0CE010196DE
:105100000E946E3089819A810F900F90DF91CF912C
:105110000895880F880F880F860F0895CF93C82FA2
:10512000682F6695669566958CE298E00E947228D5
:10513000FC018081C77021E030E001C0220FCA95D8
:10514000EAF7822B8083CF910895CF93C82F682FE1
:105150006695669566958CE298E00E947228FC013F
:105160002081C77081E090E001C0880FCA95EAF7FE
:10517000809582238083CF910895CF93DF93C82FAA
:10518000D62F682F66956695669584E298E00E9412
:105190007228FC01C77081E090E001C0880FCA95B9
:1051A000EAF7D1110AC09FB7F89420818095822335
:1051B00080839FBFDF91CF9108952FB7F89490819E
:1051C000892B80832FBFF6CF9C014EE95FE021152C
:1051D000310509F40895CA010197F1F72150310909
:1051E000F6CFAF92BF92CF92DF92FF920F931F93B1
:1051F000CF93DF938C01EB01F42E590180E1481726
:1052000009F470C08417B8F0EAE04E1709F45FC0E3
:10521000FFE04F1709F47AC095014F2DBE01C80178
:10522000DF91CF911F910F91FF90DF90CF90BF90B2
:10523000AF900C94D42D81E1481709F464C0E5E1E6
:105240004E13EACFCA80DB8048E458E0C8010E94D0
:10525000E926F6014481440F406BBE01C8010E945B
:10526000DB2641E0BE01C8010E94D326F60126815B
:1052700037814581BE01C8010E94E32640E0BE019E
:10528000C8010E94B92648E458E0BE01C8010E9446
:10529000E926F6014481440F4F5F406BBE01C8010F
:1052A0000E94DB2641E0BE01C8010E94D326F60120
:1052B000458126813781240F311DBE01C8010E941E
:1052C000E32640E0BE01C8010E94B926A5CF42E016
:1052D000C8010E94B12640E558E0BE01C8010E9405
:1052E000E9269ACF4FE358E0BE01C8010E94E926A3
:1052F00081E0DF91CF911F910F91FF90DF90CF90D0
:10530000BF90AF90089544E358E0EECF41E0C8016C
:105310000E94B92640E0BE01C8010E94D32641E8A0
:10532000BE01C8010E94DB26F5014081BE01C80113
:105330000E94DB2640E0BE01C8010E94B926D8CFFA
:10534000FC01E60FF11D849190E0982F882731969B
:10535000E4918E0F911D0895FC01849108950E949F
:10536000AC298D7F11F486E0089583E0089580E0F4
:105370000895FC01808D8F5F089566E00C94A0294C
:1053800068E00C94A0290A96FC01849108950B967C
:10539000FC01849108959F92AF92BF92CF92DF92C9
:1053A000EF92FF920F931F93CF93DF938C01C62E42
:1053B000DC011496ED90FC90C7010E94AC29C82F27
:1053C000C7010E94AF29982E2FE0A22EC13011F004
:1053D000AA24AA94C7010E94C329D82EC7010E94FB
:1053E000C729B82EC7010E94C029EC01B0E6BC1540
:1053F00030F5892B21F1CE0DDF1D91E6D92EBC149D
:1054000078F5D80150961C92509753961C9253975A
:1054100054961C92549751961C92519752961C92F6
:10542000D0E0C0E0CE01DF91CF911F910F91FF90AE
:10543000EF90DF90CF90BF90AF909F900895C701FD
:105440000E94BD29EC01E0E4EC1538F4892B29F029
:10545000CE0DDF1D81E4D82ED2CFE7016196CFCFEC
:10546000BD1478F2892D90E0FE0124912F3F29F49C
:105470002196DB1431F2D394F7CFDC1045C0C7017D
:105480000E94AC299E012F5F3F4F8D7FFE01D9F412
:105490008491D80153968C935397F9012491549693
:1054A0002C9354973296E4915096EC935097FE01CA
:1054B0003496E4915196EC935197FE013596E49120
:1054C0005296EC93AFCF8491982F9F709250D80151
:1054D00052969C93529782958F7051968C935197C8
:1054E000F9012491822F8F7054968C9354972295B2
:1054F0002F7053962C935397FE013296E491E295C8
:10550000EF705096EC938ECF3296E491EA219C0195
:105510002E0F311DC20FD31FACCF6F927F928F928F
:105520009F92AF92BF92CF92DF92EF92FF920F9332
:105530001F93CF93DF93EC01762E142F622F0E94DE
:10554000CB296C0180E0C114D104B1F08C819D8124
:105550000E94AF29B82EFB88EC888989780E1E1925
:105560008A89181B0E2D2F2D412F672DCE010E94E9
:105570008F26811110C08889DF91CF911F910F91E3
:10558000FF90EF90DF90CF90BF90AF909F908F9063
:105590007F906F900895CB0CD11C87E0F80EF694A5
:1055A000F694F694E10E8F2C912C1E1521F3672CA6
:1055B00056010DC0F501049120E0412F662DCE016A
:1055C0000E94182DFFEFAF1ABF0A88E0680E8A2DDF
:1055D0008C198F1578F3C80CD91C1F5FE6CFCF92BA
:1055E000DF92EF92FF920F931F93CF93DF93EC0123
:1055F000162FD42EC22E032FED89FE890995D80EC1
:10560000EC2CF02E00E0F70121917F0121110AC05E
:10561000802FDF91CF911F910F91FF90EF90DF903E
:10562000CF9008954D2D612FCE010E948D2A180F25
:10563000080FE9CFDF92EF92FF920F931F93CF9362
:10564000DF937C01162FD42EE901DC015596ED91F4
:10565000FC910995D80E00E0FE012491222349F027
:105660004D2D612FC7010E948D2A180F080F21961A
:10567000F3CF802FDF91CF911F910F91FF90EF908B
:10568000DF900895DC0114962D913C91159721151A
:10569000310541F157968C915797F901811123C03B
:1056A00035968491245F3F4FF901249158968C934D
:1056B000589759962C935997E82F880FFF0BE21BA8
:1056C000F10927FDF3955A968C915A97803441F051
:1056D000E89FF001112486E0F695E7958A95E1F7B9
:1056E0005B96EC930895813029F43F968491205F76
:1056F0003F4FDACF3D968491225F3F4FD5CFFC01DB
:10570000178A0C94422B27EB39E2FC01368B258B50
:10571000089529EB39E2FC01368B258B0895FF9221
:105720000F931F93CF93DF93EC018B01F12CF801C2
:1057300061918F01662331F0CE010E94CB298889C7
:10574000F80EF5CF8F2DDF91CF911F910F91FF9024
:105750000895FF920F931F93CF93DF938C01EB017A
:10576000F12CFE016491662341F0C8010E94CB290F
:10577000F8018089F80E2196F4CF8F2DDF91CF911B
:105780001F910F91FF900895CF93DF93EC012C812F
:105790003D812617370741F07D836C830E94422BA1
:1057A00087EB99E29E8B8D8BDF91CF9108951F93AC
:1057B000CF93DF93EC011D821C821F821E8219860B
:1057C00011E0188782E28A871F861E864EE050E02D
:1057D0006FEF70E0CE0183960E94903018A3CE0147
:1057E0000E94832B1F8B188E198E80E48A8F1B8E4C
:1057F00087E190E39AAB89ABDF91CF911F91089538
:10580000DB01ED91FC9109940F931F93CF93DF93EC
:10581000EC018B01E9A9FAA982E0099530E020E0CA
:105820004AE0B801CE010E94002C182FE9A9FAA97C
:1058300083E00995E9A9FAA980E00995812FDF9114
:10584000CF911F910F9108950F931F93CF93DF93E3
:10585000EC018B01E9A9FAA982E00995E9A9FAA965
:1058600081E0099530E020E044E1B801CE010E94DA
:10587000002C9E012D5C3F4F47E1B801CE010E94F4
:10588000002CE9A9FAA980E0DF91CF911F910F9137
:105890000994FF920F931F93CF93DF93EC01F62EA1
:1058A000072FE9A9FAA982E00995E9A9FAA981E0F7
:1058B000099530E020E045E16F2D702FCE010E9468
:1058C000002C182F882349F09E012D5C3F4F47E1A3
:1058D0006F2D702FCE010E94002CE9A9FAA980E05B
:1058E0000995812FDF91CF911F910F91FF9008951E
:1058F000FC01448F258F9C01245E3F4F42E30C94B2
:10590000002CCF93DF930F92CDB7DEB79E012F5FB0
:105910003F4F46E40E94002C89810F90DF91CF9188
:105920000895CF93DF930F92CDB7DEB79E012F5F1F
:105930003F4F47E40E94002C89810F90DF91CF9167
:10594000089530E020E048E40C94002CCF93DF93DE
:10595000EC016A817B810E94812C88836A817B8132
:10596000CE010E94912C89836A817B81CE010E94A5
:10597000A12C8B879E012D5C3F4F6A817B8147E183
:10598000CE01DF91CF910C94002CCF93DF93EC01EB
:105990006A817B810E94042C882321F0CE010E9421
:1059A000A62C81E0DF91CF910895FF920F931F9372
:1059B000CF93DF93EC01F62E072F142F0E94D72BE5
:1059C000FA820B831EA7CE01DF91CF911F910F9119
:1059D000FF900C94C52CFC01628173810C94242CE3
:1059E000CF93DF93EC01EE85FF85309709F00995A1
:1059F0006A817B81CE01DF91CF910C94492CFC010F
:105A00006281738130E020E040E10C94002CFC01C5
:105A10006281738130E020E041E10C94002CFC01B4
:105A2000862F242F62817381482FCF010C94782C0C
:105A30000F93FC0182819381648F458F278F068F9E
:105A40009F01245E3F4F4BE3BC01CF010F910C94AB
:105A5000002CFC018385883221F0823021F483E020
:105A600008958FEF089581E00895CF93DF93EC01BF
:105A70008B85803331F48FEF88A389A3DF91CF9199
:105A80000895CE010E94292D88A3F8CFFC0110A211
:105A90000895FC01128280818150838314820895CD
:105AA000FC0180819281980F92832181921760F48A
:105AB00094819F5F94839381890F821710F08FEFF9
:105AC000820F838381E0089580E00895FC01458181
:105AD00050E0440F551F70E060E0868197810C9480
